:020000040800F2
:1000000000000220A1950008699400086B94000884
:100010006D9400086F9400087194000800000000BF
:1000200000000000000000000000000073940008C1
:100030007594000800000000779400087994000887
:10004000F1950008F1950008F1950008F195000878
:10005000F1950008F1950008F1950008F195000868
:10006000F1950008F1950008F1950008F195000858
:10007000F1950008F1950008F1950008F195000848
:10008000F1950008F1950008F1950008F195000838
:10009000F1950008F1950008F19500088194000899
:1000A000F1950008F1950008F1950008F195000818
:1000B000F1950008F19500088D940008F19500086D
:1000C000F1950008F1950008F1950008F1950008F8
:1000D000F1950008F1950008F1950008F1950008E8
:1000E000F1950008F1950008F1950008F1950008D8
:1000F000F1950008F1950008F1950008F1950008C8
:10010000F1950008F1950008F1950008F1950008B7
:10011000F1950008F1950008F1950008F1950008A7
:10012000F1950008F1950008F1950008F195000897
:10013000F1950008F1950008F1950008F195000887
:10014000F1950008F1950008F1950008F195000877
:10015000F1950008F1950008F1950008F195000867
:10016000F1950008F1950008F1950008F195000857
:10017000F1950008F1950008F195000800000000D5
:08018000F1950008F19500085B
:1001900010B5054C237833B9044B13B10448AFF3C1
:1001A00000800123237010BD280100200000000002
:1001B000F8EB000808B5034B1BB103490348AFF344
:1001C000008008BD000000002C010020F8EB0008B2
:1001D00047F63003038002230A0F090130323A2A1E
:1001E00000D30732C25201330A2BF5D170470029E0
:1001F00009DA00B52D2202700130C1F1000100F0D2
:1002000002F8013000BD30B54FF0000505604560D3
:1002100085600E4BA3FB0143DC0822000A2304FB8C
:1002200003F40C1B44F030044453013511460029FB
:10023000EFD120B4013D445D425C4255445401314C
:10024000013D8D4200D0F6DC31BD0000CDCCCCCCE0
:1002500010F8012B11F8013B012A28BF9A42F7D070
:10026000D01A7047034613F8012B002AFBD1181A45
:10027000013870470000000000000000000000008E
:1002800001F0FF01102A2BDB10F0070F08D010F847
:10029000013B013A8B422DD010F0070F42B3F6D14B
:1002A000F0B441EA012141EA014122F007047FF064
:1002B00000070023F0E80256083C85EA010586EABB
:1002C000010685FA47F5A3FA87F586FA47F6A5FAF7
:1002D00087F68EB9EED1F0BC01F0FF0102F0070203
:1002E00032B110F8013B013A83EA010313B1F8D1AE
:1002F0000020704701387047002D06BF354603388F
:10030000073815F0010F07D1013015F4807F02BFC7
:10031000013015F4C03F0130F0BC0138704700BF18
:1003200081F0004102E000BF83F0004330B54FEAA6
:1003300041044FEA430594EA050F08BF90EA020F13
:100340001FBF54EA000C55EA020C7FEA645C7FEAA6
:10035000655C00F0E2804FEA5454D4EB5555B8BFC9
:100360006D420CDD2C4480EA020281EA030382EA3A
:10037000000083EA010180EA020281EA0303362DCC
:1003800088BF30BD11F0004F4FEA01314FF4801C9F
:100390004CEA113102D0404261EB410113F0004FB1
:1003A0004FEA03334CEA133302D0524263EB430368
:1003B00094EA050F00F0A780A4F10104D5F1200E06
:1003C0000DDB02FA0EFC22FA05F2801841F1000161
:1003D00003FA0EF2801843FA05F359410EE0A5F135
:1003E00020050EF1200E012A03FA0EFC28BF4CF066
:1003F000020C43FA05F3C01851EBE37101F000451C
:1004000007D54FF0000EDCF1000C7EEB00006EEB28
:100410000101B1F5801F1BD3B1F5001F0CD34908B2
:100420005FEA30004FEA3C0C04F101044FEA445209
:1004300012F5800F80F09A80BCF1004F08BF5FEA90
:10044000500C50F1000041EB045141EA050130BD70
:100450005FEA4C0C404141EB0101013C28BFB1F582
:10046000801FE9D291F0000F04BF01460020B1FACD
:1004700081F308BF2033A3F10B03B3F120020CDAA0
:100480000C3208DD02F1140CC2F10C0201FA0CF07E
:1004900021FA02F10CE002F11402D8BFC2F1200CE3
:1004A00001FA02F120FA0CFCDCBF41EA0C01904099
:1004B000E41AA2BF01EB0451294330BD6FEA0404E2
:1004C0001F3C1CDA0C340EDC04F11404C4F12002CD
:1004D00020FA04F001FA02F340EA030021FA04F3DF
:1004E00045EA030130BDC4F10C04C4F1200220FA36
:1004F00002F001FA04F340EA0300294630BD21FA74
:1005000004F0294630BD94F0000F83F4801306BF39
:1005100081F480110134013D4EE77FEA645C18BF2D
:100520007FEA655C29D094EA050F08BF90EA020FC4
:1005300005D054EA000C04BF1946104630BD91EABC
:10054000030F1EBF0021002030BD5FEA545C05D1BF
:100550004000494128BF41F0004130BD14F58004FE
:100560003CBF01F5801130BD01F0004545F0FE4172
:1005700041F470014FF0000030BD7FEA645C1ABFA7
:10058000194610467FEA655C1CBF0B46024650EADE
:10059000013406BF52EA033591EA030F41F400210A
:1005A00030BD00BF90F0000F04BF0021704730B590
:1005B0004FF4806404F132044FF000054FF0000165
:1005C00050E700BF90F0000F04BF0021704730B526
:1005D0004FF4806404F1320410F0004548BF4042FB
:1005E0004FF000013EE700BF42004FEAE2014FEA50
:1005F00031014FEA02701FBF12F07F4393F07F4F2B
:1006000081F06051704732F07F4208BF704793F02D
:100610007F4F04BF41F40021704730B54FF4607440
:1006200001F0004521F000411CE700BF50EA010243
:1006300008BF704730B54FF000050AE050EA0102EC
:1006400008BF704730B511F0004502D5404261EB5C
:1006500041014FF4806404F132045FEA915C3FF49D
:10066000D8AE4FF003025FEADC0C18BF03325FEA3A
:10067000DC0C18BF033202EBDC02C2F1200300FAEB
:1006800003FC20FA02F001FA03FE40EA0E0021FA10
:1006900002F11444BDE600BF70B54FF0FF0C4CF4FE
:1006A000E06C1CEA11541DBF1CEA135594EA0C0FB0
:1006B00095EA0C0F00F0DEF82C4481EA030621EAEB
:1006C0004C5123EA4C5350EA013518BF52EA033526
:1006D00041F4801143F4801338D0A0FB02CE4FF0D8
:1006E0000005E1FB02E506F00042E0FB03E54FF008
:1006F0000006E1FB03569CF0000F18BF4EF0010E00
:10070000A4F1FF04B6F5007F64F5407404D25FEAFB
:100710004E0E6D4146EB060642EAC62141EA5551AE
:100720004FEAC52040EA5E504FEACE2EB4F1FD0CF0
:1007300088BFBCF5E06F1ED8BEF1004F08BF5FEA6E
:10074000500E50F1000041EB045170BD06F0004620
:1007500046EA010140EA020081EA0301B4EB5C04CD
:10076000C2BFD4EB0C0541EA045170BD41F48011C5
:100770004FF0000E013C00F3AB8014F1360FDEBFEA
:10078000002001F0004170BDC4F10004203C35DAC6
:100790000C341BDC04F11404C4F1200500FA05F349
:1007A00020FA04F001FA05F240EA020001F00042EA
:1007B00021F0004110EBD37021FA04F642EB060160
:1007C0005EEA430E08BF20EAD37070BDC4F10C048A
:1007D000C4F1200500FA04F320FA05F001FA04F24E
:1007E00040EA020001F0004110EBD37041F100013A
:1007F0005EEA430E08BF20EAD37070BDC4F1200545
:1008000000FA05F24EEA020E20FA04F301FA05F2AC
:1008100043EA020321FA04F001F0004121FA04F254
:1008200020EA020000EBD3705EEA430E08BF20EA24
:10083000D37070BD94F0000F0FD101F0004640005E
:1008400041EB010111F4801F08BF013CF7D041EAE0
:10085000060195F0000F18BF704703F000465200E4
:1008600043EB030313F4801F08BF013DF7D043EAB5
:100870000603704794EA0C0F0CEA135518BF95EA6B
:100880000C0F0CD050EA410618BF52EA4306D1D1F2
:1008900081EA030101F000414FF0000070BD50EA11
:1008A000410606BF1046194652EA430619D094EA9B
:1008B0000C0F02D150EA013613D195EA0C0F05D185
:1008C00052EA03361CBF104619460AD181EA0301D9
:1008D00001F0004141F0FE4141F470014FF0000091
:1008E00070BD41F0FE4141F4780170BD70B54FF02C
:1008F000FF0C4CF4E06C1CEA11541DBF1CEA1355AC
:1009000094EA0C0F95EA0C0F00F0A7F8A4EB05048D
:1009100081EA030E52EA03354FEA013100F0888084
:100920004FEA03334FF0805545EA131343EA12634D
:100930004FEA022245EA111545EA10654FEA002602
:100940000EF000419D4208BF964244F1FD0404F5BB
:10095000407402D25B084FEA3202B61A65EB030517
:100960005B084FEA32024FF480104FF4002CB6EBD4
:10097000020E75EB030E22BFB61A754640EA0C0054
:100980005B084FEA3202B6EB020E75EB030E22BF94
:10099000B61A754640EA5C005B084FEA3202B6EBD5
:1009A000020E75EB030E22BFB61A754640EA9C0094
:1009B0005B084FEA3202B6EB020E75EB030E22BF64
:1009C000B61A754640EADC0055EA060E18D04FEA22
:1009D000051545EA16754FEA06164FEAC30343EAC2
:1009E00052734FEAC2025FEA1C1CC0D111F4801F8F
:1009F0000BD141EA00014FF000004FF0004CB6E788
:100A000011F4801F04BF01430020B4F1FD0C88BF26
:100A1000BCF5E06F3FF6AFAEB5EB030C04BFB6EB31
:100A2000020C5FEA500C50F1000041EB045170BD24
:100A30000EF0004E4EEA113114EB5C04C2BFD4EB51
:100A40000C0541EA045170BD41F480114FF0000ED5
:100A5000013C90E645EA060E8DE60CEA135594EA51
:100A60000C0F08BF95EA0C0F3FF43BAF94EA0C0F54
:100A70000AD150EA01347FF434AF95EA0C0F7FF4C9
:100A800025AF104619462CE795EA0C0F06D152EA1D
:100A900003353FF4FDAE1046194622E750EA410601
:100AA00018BF52EA43067FF4C5AE50EA41047FF412
:100AB0000DAF52EA43057FF4EBAE12E74FF0FF3C77
:100AC00006E000BF4FF0010C02E000BF4FF0010C48
:100AD0004DF804CD4FEA410C7FEA6C5C4FEA430CC1
:100AE00018BF7FEA6C5C1BD001B050EA410C0CBF10
:100AF00052EA430C91EA030F02BF90EA020F002072
:100B0000704710F1000F91EA030F58BF994208BFD8
:100B100090422CBFD8176FEAE37040F00100704795
:100B20004FEA410C7FEA6C5C02D150EA013C07D1EC
:100B30004FEA430C7FEA6C5CD6D152EA033CD3D037
:100B40005DF8040B704700BF8446104662468C4631
:100B50001946634600E000BF01B5FFF7B7FF002864
:100B600048BF10F1000F01BD4DF808EDFFF7F4FF8D
:100B70000CBF012000205DF808FB00BF4DF808ED18
:100B8000FFF7EAFF34BF012000205DF808FB00BF3B
:100B90004DF808EDFFF7E0FF94BF012000205DF85D
:100BA00008FB00BF4DF808EDFFF7CEFF94BF012012
:100BB00000205DF808FB00BF4DF808EDFFF7C4FF0B
:100BC00034BF012000205DF808FB00BF4FEA410C54
:100BD0007FEA6C5C02D150EA013C0AD14FEA430C37
:100BE0007FEA6C5C02D152EA033C02D14FF0000074
:100BF00070474FF0010070474FEA410212F50012B2
:100C000015D211D56FF47873B3EB625212D94FEA53
:100C1000C12343F0004343EA505311F0004F23FA3D
:100C200002F018BF404270474FF00000704750EA92
:100C3000013005D111F0004008BF6FF0004070474F
:100C40004FF00000704700BF4FEA4102B2F1E043AD
:100C500024BFB3F5001CDCF1FE5C0DD901F0004CA3
:100C60004FEAC0024CEA5070B2F1004F40EB8300F3
:100C700008BF20F00100704711F0804F21D113F11F
:100C80003872BCBF01F00040704741F480114FEA58
:100C90005252C2F11802C2F1200C10FA0CF320FAE1
:100CA00002F018BF40F001004FEAC1234FEAD323FE
:100CB00003FA0CFC40EA0C0023FA02F34FEA430368
:100CC000CCE77FEA625307D150EA01331EBF4FF0F1
:100CD000FE4040F44000704701F0004040F0FE400C
:100CE00040F40000704700BF7BB972B90029BEBF55
:100CF00000204FF0004106E008BF00281CBF6FF045
:100D000000414FF0FF3000F0D3B9ADF1080C6DE9B0
:100D100004CE002909DB002B1ADB00F04DF8DDF8CA
:100D200004E0DDE9022304B07047404261EB410179
:100D3000002B1BDB00F040F8DDF804E0DDE90223C6
:100D400004B0404261EB4101524263EB4303704700
:100D5000524263EB430300F02FF8DDF804E0DDE9D5
:100D6000022304B0404261EB41017047524263EB01
:100D7000430300F021F8DDF804E0DDE9022304B0CC
:100D8000524263EB4303704753B94AB9002908BF85
:100D900000281CBF4FF0FF314FF0FF3000F088B942
:100DA000ADF1080C6DE904CE00F006F8DDF804E0C2
:100DB000DDE9022304B070472DE9F047089D8E4617
:100DC00004468846002B4AD18A42174662D9B2FAB5
:100DD00082F64EB1C6F1200301FA06F820FA03F3B9
:100DE000B74043EA0808B4404FEA174E1FFA87FCA1
:100DF000B8FBFEF1230C0EFB118843EA084301FB0C
:100E00000CF29A4209D9FB1801F1FF3080F0EA8018
:100E10009A4240F2E78002393B449A1AA3B2B2FBED
:100E2000FEF00EFB102243EA024300FB0CFC9C4543
:100E300009D9FB1800F1FF3280F0D6809C4540F2C2
:100E4000D3803B44023840EA0140A3EB0C0300216D
:100E50001DB1F3400022C5E90032BDE8F0878B42A6
:100E600005D90DB1C5E9000100210846F5E7B3FA3F
:100E700083F1002946D1734502D3824200F20581F5
:100E8000841A6EEB030201209046002DE5D0C5E9DF
:100E90000048E2E7002A00F09080B2FA82F6002EC5
:100EA00040F0A4808A1A030C4FEA174E80B2BCB2FD
:100EB0000121B2FBFEFC0EFB1C2243EA024304FBB1
:100EC0000CF29A4207D9FB180CF1FF3802D29A4271
:100ED00000F2E080C4469B1AB3FBFEF20EFB123315
:100EE00040EA034302FB04F49C4207D9FB1802F1D9
:100EF000FF3002D29C4200F2CA8002461B1B42EA2B
:100F00000C40A5E7C1F120068B4022FA06F71F43EB
:100F10000EFA01F420FA06F32EFA06FE4FEA1749FC
:100F2000234300FA01F81FFA87FCBEFBF9F01C0C02
:100F300009FB10EE44EA0E4400FB0CFEA64502FA43
:100F400001F209D93C1900F1FF3A80F09C80A645D6
:100F500040F2998002383C44A4EB0E041FFA83FE51
:100F6000B4FBF9F309FB13444EEA044403FB0CFC05
:100F7000A44508D93C1903F1FF3E80F08280A445C6
:100F80007FD9023B3C4443EA0040A4EB0C04A0FBA5
:100F900002EC64457346E14662D35FD05DB1B8EBC5
:100FA000030264EB090404FA06F622FA01F31E4375
:100FB000CC40C5E9006400214FE7B1FBF2FC010C15
:100FC00041EA0E4180B240EA01423B4638463C4687
:100FD000B846BE462026B1FBF7F1A2EB080241EA73
:100FE0000C4166E7014618E710462CE7C6F12002DF
:100FF0002EFA02F3B740B14020FA02F24FEA174E40
:101000000A43B3FBFEF8BCB20EFB1833110C41EAE5
:10101000034108FB04F9B04089454FEA104380B210
:101020003ED9791808F1FF3C01D289451FD8A1EBC0
:101030000901B1FBFEF909FB04F80EFB191192B28C
:1010400042EA0142424529D2BA1809F1FF31C4D21D
:101050004245C2D2A9F102013A44BEE7F0459DD211
:10106000BEEB02036CEB070C0138E14696E7A7EBF9
:1010700009094944A8F1020CB1FBFEF909FB04F887
:10108000DBE773467FE7504666E70846FDE63B44EC
:10109000023A33E7ACF1020C3B441CE749469CE7BB
:1010A000A1EB0901C446B1FBFEF909FB04F8C4E752
:1010B000704700BF2DE9F04F85B0824688461D4637
:1010C00013B200935200C2F10303019300240AE01B
:1010D000009BE31A019A02EB83030A331BB20193CC
:1010E000013E33B20093009B9C4255DCA4B204EB5A
:1010F0000A091FFA89F9BDF80060A8EB06039BB244
:101100002A4602931946484600F086FF06EB0A0776
:10111000BFB2A8EB04039AB210462A4603900146D8
:10112000384600F079FF04EB080B1FFA8BFB2A46C8
:101130005946384600F070FF06EB0807BFB22A4652
:101140003946484600F068FFAAEB04091FFA89F9FE
:101150002A463946484600F05FFFAAEB0607BFB2B1
:101160002A465946384600F057FF2A460299484613
:1011700000F052FF2A460399384600F04DFF013433
:10118000A3B224B2019A002AA2DA9B009BB21344B4
:1011900006331BB20193A6E705B0BDE8F08F00004F
:1011A00038B514461D46821892B263189BB2013BB3
:1011B000013A9BB292B200F011FF002102E0044A12
:1011C0001580013104FB04F28A42F8D838BD00BF13
:1011D000000008602DE9F04106460F4614461D4602
:1011E000BDF81880904201D204461646AF4202D2A2
:1011F0002B463D461F463B4632462946204600F0D8
:10120000EDFE002203E0084BA3F80080013206F156
:10121000010CACEB040C7B1C5B1B03FB0CFC94452E
:10122000F1D2BDE8F08100BF0000086008B50248B7
:1012300008F0E6FF80B208BDE00300202DE9F04F82
:1012400085B08046084692461D46BDF83840A24209
:101250002ED0994236D0A4EB0209B9F1000FB8BFE5
:10126000C9F10009A3EB010BBBF1000FB8BFCBF133
:10127000000BD94504DC23462C461D468A46104601
:10128000A24505D82B4605461846234654469A469D
:10129000AAEB0403471B002FB8BF7F4203EBD376B2
:1012A000761085422FD34FF0FF32029203931AE05B
:1012B000CDF8008023462A465146FFF78BFF05B044
:1012C000BDE8F08FCDF8008023462A465146FFF74F
:1012D00081FFF4E742462946204600F09DFEF61BBA
:1012E0000BD40134A4B25445E9D8D945F2DD4246C5
:1012F0002146284600F090FEF1E7029B1D44ADB266
:10130000039B1E44EDE7012202920393EBE72DE9D4
:10131000F04182B004460F4616461D46BDF82080B7
:101320000092FFF78BFFCDF800802B4642463946EE
:101330002046FFF783FFCDF800803B463246394612
:101340002046FFF77BFFCDF800802B46324629462A
:101350002046FFF773FF02B0BDE8F08110B582B000
:1013600014469E4683B28AB21444A4B2013CA4B28D
:10137000009419467046FFF761FF02B010BD2DE9D9
:10138000F04F87B00390049116469846BDF844305C
:10139000059393B2C3F1010424B2C3EBC3335B00E2
:1013A0001BB20193BDF9403001339BB202939146C9
:1013B00000254FF0010A19E0039B0BEB0300B3B2C9
:1013C000049AD11A5A0092B2029B1A44059B12B297
:1013D00009B200B2FFF7C2FF26E04E4506D018F072
:1013E000010F35D118F0020F42D1B146B54250DAA3
:1013F000002C08DB013E36B2019B02331AB2019287
:1014000014FA83F31CB2AFB27D1C1FFA85FB2DB218
:101410000AF102030FFA83FA14FA83F31CB2AE4204
:10142000DBDB18F0010FC7D118F0020FD5D0039BFA
:10143000A3EB0B00B3B2049AD11A5A0092B2029BEA
:101440001A44059B12B209B200B2FFF787FFC4E746
:10145000039B03EB0900049BD91B7A0092B2029B09
:101460001A44059B12B209B200B2FFF777FFB9E741
:10147000039BA3EB0900049BD91B7A0092B2029B49
:101480001A44059B12B209B200B2FFF767FFB146DA
:10149000ACE707B0BDE8F08FF0B583B006460C4668
:1014A00015461F461FFA82FCA1EB0C014FEA4C0CBB
:1014B0001FFA8CFC0CF1010C0FFA8CF209B2FFF749
:1014C0004DFF01970023009303232A46214630460F
:1014D000FFF755FF03B0F0BD08B5002000F0BCFDDC
:1014E00008BD08B51F2000F0B7FD4FF47A7008F072
:1014F000D3F8FFF7F1FF08BD08B5002000F0CCFDE0
:1015000008BD08B54FF4FA7008F0C6F808BD38B544
:10151000FFF7E2FF4FF47843642278211046FFF78B
:10152000BBFF0025642425E0FFF7EBFF38BD002357
:10153000662278212046FFF7BDFD00236522782131
:101540002046FFF7B7FD0134A4B24FF4784364227C
:1015500078212046FFF7AEFD4FF4784365227821CD
:101560002046FFF7A7FD4FF47843662278212046F6
:10157000FFF7A0FD55B905F0A9F80028D4D1DB2C60
:10158000D5D90125F6E7FFF7BCFFCFE74DB305F04E
:101590009DF80028F7D1662C23D9002366227821F4
:1015A0002046FFF787FD0023652278212046FFF7BC
:1015B00081FD013CA4B24FF4784364227821204697
:1015C000FFF778FD4FF47843652278212046FFF736
:1015D00071FD4FF47843662278212046FFF76AFDBB
:1015E000D4E7FFF78EFFA1E7F8B5FFF775FF0025F9
:1015F00040F6C3139D4235D81D4E304608F000FE1C
:1016000083081C4AA2FB03235B08DC2202FB1303B2
:1016100032339FB2304608F0F3FD8308164AA2FB2E
:101620000323DB088C2202FB130332339CB23046C7
:1016300008F0E6FD114EA6FB00363609322303FB07
:101640001606FFF7F3FD034632B221B238B2FFF7B8
:1016500023FF05F03BF810B90135ADB2C8E7FFF73D
:1016600050FFF8BD4FF47A7008F016F8F9E700BFA4
:10167000E003002095204F093BA8833A1F85EB51DA
:101680002DE9F04782B0FFF727FF4FF00008B8F1CF
:10169000630F49D8FFF7CAFD8146DFF8A0A0504686
:1016A00008F0AEFD234CA4FB0036360A06EB860696
:1016B000A0EB8616B6B2504608F0A2FDA4FB00349B
:1016C000240A04EB8404A0EB8414A4B2504608F06E
:1016D00097FD194DA5FB0037FF09C7EB0717A0EBD6
:1016E0000717BFB2504608F08BFDA5FB0023DB09AE
:1016F000C3EB0313A0EB03139BB2009323463A46BC
:1017000031464846FFF703FE0A2007F0C5FF04F004
:10171000DDFF20B908F101081FFA88F8B7E7FFF7E5
:10172000F0FE02B0BDE8F0874FF47A7007F0B4FF26
:10173000F7E700BFCDCCCCCC89888888E0030020B7
:1017400030B583B0FFF7C8FE04250024EE2C18DC6A
:10175000A4B2ADB2EF2300932B46224600211F20F6
:10176000FFF76CFD063424B208352DB20A2007F0CD
:1017700093FF04F0ABFF0028E8D0FFF7C2FE03B0F0
:1017800030BD40F23B15EF24002C18DDA4B2ADB201
:10179000002300932B46224640F23F111F20FFF703
:1017A0004DFD063C24B2083D2DB20A2007F074FF1F
:1017B00004F08CFF0028E7D0FFF7A3FEDFE7042545
:1017C000EF24002C17DDA4B2ADB2002100912B460E
:1017D00022464FF47840FFF731FD063C24B208352D
:1017E0002DB20A2007F058FF04F070FF0028E8D05F
:1017F000FFF787FEC3E740F23B150024EE2C19DC0F
:10180000A4B2ADB2EF2300932B46224640F23F1123
:101810004FF47840FFF712FD063424B2083D2DB294
:101820000A2007F039FF04F051FF0028E6D0FFF747
:1018300068FEA4E704F04AFF20B94FF47A7007F07D
:101840002BFF9CE7FFF75DFE99E700002DE9F047CD
:1018500082B0FFF741FE4FF00008B8F5FA6F46D2AC
:10186000FFF7E4FC8146DFF894A0504608F0C8FC7E
:10187000204CA4FB0036360A06EB8606A0EB861643
:10188000B6B2504608F0BCFCA4FB0034240A04EBBA
:101890008404A0EB8414A4B2504608F0B1FC164DA9
:1018A000A5FB0037FF09C7EB0717A0EB0717BFB26F
:1018B000504608F0A5FCA5FB0023DB09C3EB03138E
:1018C000A0EB0313CDF800909BB222463946304678
:1018D000FFF780FC04F0FAFE20B908F101081FFAB6
:1018E00088F8BAE7FFF70DFE02B0BDE8F087FFF712
:1018F00008FEF9E7CDCCCCCC89888888E0030020AD
:101900002DE9F04182B0002000F0A6FB0024EF2C6E
:1019100013D8FFF78BFC009440F23F1322460021BE
:10192000FFF78CFC04F0D2FE10B90134A4B2EEE74C
:10193000FFF7E7FD02B0BDE8F081FFF7E2FD00240C
:10194000B4F5A07F11D2FFF771FCEF23009323467B
:1019500000222146FFF772FC04F0B8FE10B90134F2
:10196000A4B2EDE7FFF7CDFDE4E7FFF7CAFD4FF0C6
:10197000EF0840F23F16002425462746772F1BD854
:10198000FFF754FCCDF80080334622462946FFF786
:10199000BEFC0135ADB2013EB6B20134A4B208F1CD
:1019A000FF331FFA83F804F091FE10B90137BFB27C
:1019B000E4E7FFF7A6FDBDE7FFF7A3FDBAE70000E8
:1019C000F8B5FFF789FD002740F2DB539F4237D877
:1019D0001D4C204608F014FCC5081C4BA3FB053524
:1019E0006D084FF48C7303FB1505204608F008FCC6
:1019F000174EA6FB0036B609C82303FB1606204681
:101A000008F0FEFB134CA4FB0034240904EB84040F
:101A1000A0EB8404FFF70AFC034606F11401143519
:101A2000E2B289B2A8B2FFF745FB012007F034FE0D
:101A300004F04CFE08B90137C6E7FFF762FDF8BDB8
:101A4000FFF75FFDFBE700BFE00300200FEAA00EF9
:101A50001F85EB51CDCCCCCC2DE9F04782B0FFF700
:101A60003BFD4FF00009B9F57A7F46D2FFF7DEFB68
:101A70008046DFF894A0504608F0C2FB204DA5FB3D
:101A80000036360A06EB8606A0EB8616504608F0AE
:101A9000B7FB1C4CA4FB0037FF09C7EB0717A0EBF3
:101AA0000717504608F0ACFBA5FB00352D0A05EBE7
:101AB0008505A0EB8515504608F0A2FBA4FB003C71
:101AC0004FEADC1CCCEB0C1CA0EB0C1C1FFA8CF4BA
:101AD0000094ABB2BAB2B1B24046FFF7AFFB0120FF
:101AE00007F0DAFD04F0F2FD10B909F10109BAE7D7
:101AF000FFF707FD02B0BDE8F087FFF702FDF9E749
:101B0000CDCCCCCC89888888E0030020F8B5FFF7DD
:101B1000E3FC002643F697239E423DD8204F3846EB
:101B200008F06EFB1F4CA4FB0034240A04EB840471
:101B3000A0EB8414384608F063FB1B4DA5FB003571
:101B4000ED09C5EB0515A0EB0515384608F058FB67
:101B5000164AA2FB0032D20BC2EB0242821A92B2A8
:101B6000A9B2A0B200F058FA5F23114A12681149D5
:101B7000A1FB0212520D02FB03F31A46013B002A9D
:101B8000FBD104F0A3FD08B90136C3E7FFF7B9FCA8
:101B9000002000F061FAF8BDFFF7B3FCFBE700BFDF
:101BA000E0030020CDCCCCCC8988888801800080DF
:101BB000240000206BCA5F6B08B5022007F06CFDA3
:101BC00008BD2DE9F041FFF787FC1F2332221146A3
:101BD0001046FFF761FC00252C4632273E4628E0E0
:101BE000FFF78FFCBDE8F0810023342239463046F0
:101BF000FFF760FA0023332239463046FFF75AFADE
:101C00000023352239463046FFF754FA701C86B25D
:101C1000791C8FB21F23322209B200B2FFF73CFCBD
:101C2000FFF7CAFF012C15D0022C3CD0032C3FD06B
:101C30000135B5F57A7F80F0838004F047FD80465A
:101C40000028CDD1002CEDD1B6F5877F28D2BD2F4D
:101C5000CAD90124B6F5877F24D2322F01D8444651
:101C6000E4E70023342239463046FFF723FA002305
:101C7000332239463046FFF71DFA00233522394614
:101C80003046FFF717FA701C86B2791E8FB21F23F9
:101C9000322209B200B2FFF7FFFBFFF78DFFC3E767
:101CA0000324C1E70224322E46D9322F06D803245A
:101CB000322E43D9BD2F20D90224B9E70023342284
:101CC00039463046FFF7F6F90023332239463046CD
:101CD000FFF7F0F90023352239463046FFF7EAF9DD
:101CE000701E86B2791E8FB21F23322209B200B253
:101CF000FFF7D2FBFFF760FF98E700233422394655
:101D00003046FFF7D7F90023332239463046FFF734
:101D1000D1F90023352239463046FFF7CBF9701E42
:101D200086B2791C8FB21F23322209B200B2FFF7AC
:101D3000B3FBFFF741FF7BE7012479E7444677E7F0
:101D40004FF47A7007F0A8FC4CE72DE9F04782B019
:101D5000FFF7C2FB4FF47843009364231A46002137
:101D60000846FFF737FA002425464FF06408C146BD
:101D7000274626463BE0FFF7C4FB02B0BDE8F087EC
:101D800000974B463A4631460020FFF757FACDF808
:101D9000008033463A4631460020FFF74FFA0136BD
:101DA000B6B209F101091FFA89F90137BFB208F18A
:101DB00001081FFA88F8CDF800804B4642463146AC
:101DC0004FF47840FFF73AFACDF800804B463A4698
:101DD00049464FF47840FFF731FAFFF7EDFE012D49
:101DE00014D0022D4AD0032D4CD00134A4B2B4F546
:101DF0007A7FC2D204F06AFC82460028BBD1002D53
:101E0000EDD1DB2E37D88B2FBAD90125DB2E34D874
:101E10000FB95546E7E7CDF8008033463A463146DC
:101E20000020FFF70BFACDF800804B4642463146C2
:101E30000020FFF703FA0136B6B209F101091FFAD3
:101E400089F9013FBFB208F1FF381FFA88F8CDF8D1
:101E500000804B463A4649464FF47840FFF7EEF98A
:101E600000974B463A4631464FF47840FFF7E6F983
:101E7000FFF7A2FEB5E70325B3E70225002E67D0E2
:101E800037B90325002E65D08B2F31D90225ACE759
:101E9000CDF800804B46424631460020FFF7CEF990
:101EA000CDF800804B463A4649460020FFF7C6F978
:101EB000013EB6B209F1FF391FFA89F9013FBFB2FD
:101EC00008F1FF381FFA88F800974B463A4631462A
:101ED0004FF47840FFF7B2F9CDF8008033463A4628
:101EE00031464FF47840FFF7A9F9FFF765FE7AE72E
:101EF00000974B463A4631460020FFF79FF9CDF850
:101F000000804B463A4649460020FFF797F9013ECC
:101F1000B6B209F1FF391FFA89F90137BFB208F1EA
:101F200001081FFA88F8CDF800804B46424631463A
:101F30004FF47840FFF782F9CDF8008033463A46F7
:101F400031464FF47840FFF779F9FFF735FE4CE75B
:101F500001254AE7554648E708B5FFF7CDFAFFF7F0
:101F6000D5FDFFF779FDFFF72BFDFFF7C9FCFFF764
:101F70006DFCFFF7EAFEFFF7E3FBFFF781FBFFF7DE
:101F800033FBFFF7C4FAFFF71CFEFFF7AAFAFFF7CF
:101F9000A3FAFFF7B6FA08BD4FF0C04345221A80F6
:101FA00003230B4A12680B49A1FB0212520D02FBDC
:101FB00003F31A46013B002AFBD1074A1388138812
:101FC0001088DBB2C0B200EB032080B2704700BFC4
:101FD000240000206BCA5F6B0000086010B54FF052
:101FE000C04C2A24ACF800404FEA102E094CA4F84B
:101FF00000E02080100A208022802B22ACF80020F4
:102000000A0A228021801A0A228023802C23ACF81D
:10201000003010BD0000086000B54FF0C04C2A230E
:10202000ACF800304FEA102E0A4BA3F800E01880FD
:10203000A3F800E018802B20ACF80000080A1880F4
:102040001980188019802C21ACF800101A805DF8D6
:1020500004FB00BF0000086010B50446074A53881F
:10206000128800210846FFF7B9FF002302E0044A66
:1020700014800133B3F5963FF9D310BD0000002062
:10208000000008604FF0C04318807047014B188073
:10209000704700BF0000086010B5072800D9002075
:1020A0000B4B18710B4A125CDA7103280CD94FF4F0
:1020B000A073F022064C228063803620FFF7E2FFF7
:1020C000E079FFF7E3FF10BDF0234FF4A072F1E7D2
:1020D0000000002050EC000810B5002401E007F0DB
:1020E000DBFA134B1B5DB3B14FF0C0421380631C8E
:1020F0000F4AD05C02340F28F1D80028F1D0002319
:1021000005E01A190A49895C0A4A1180013398428C
:10211000F7D80444E5E70420FFF7BEFF0020FFF7EF
:102120009BFF054B1B684FF6FF721A6410BD00BF82
:1021300058EC000800000860C8020020436882686C
:10214000934204DA0268591C4160D05C7047002059
:10215000704743688268934202DA0268D05C704735
:10216000002070470378407800EB032080B270476E
:102170000378407800EB032000B270470278437880
:102180001B0403EB0263827803EB0223C07818443C
:102190007047027843781B0403EB0263827803EBF9
:1021A0000223C078184470470378312B0BD0742B6E
:1021B00014D04F2B1DD013B94278012A24D0742B90
:1021C0002AD0002070474278002AF0D18278002A75
:1021D000EDD1C278002AEAD1012070474278792AED
:1021E000E7D18278702AE4D1C278312AE1D1012086
:1021F00070474278542ADED18278542ADBD1C278E3
:102200004F2AD8D1012070478278002AD7D1C278CE
:10221000002AD4D1012070474378722B01D00020CE
:1022200070478378752B01D000207047C378652BE9
:1022300001D0002070470120704770B504460E465B
:102240001546081D2044FFF78DFF06F10C02002300
:1022500000E00133834220DA02EB031114F801E0BD
:1022600095F800C0E645F4D104EB010C9CF801E0C0
:1022700095F801C0E645ECD1661896F802C0AE7834
:10228000B445E6D1661896F803C0EE78B445E0D1BF
:1022900008316018FFF772FF00E0002070BD38B50C
:1022A00005460C46FFF780FF00BB2B78742B23D12B
:1022B0006B78742B23D1AB78632B23D1EB78662B0F
:1022C00023D1281DFFF75AFFB0F5803F02D0B0F5AB
:1022D000003F1DD105F10800FFF75BFFA0421ADDAA
:1022E000A4000C342819FFF749FF38BD0CB920466B
:1022F000FBE74FF0FF30F8E74FF0FF30F5E74FF026
:10230000FF30F2E74FF0FF30EFE74FF0FF30ECE740
:102310004FF0FF30E9E74FF0FF30E6E7017302804E
:102320004380BDF900308380BDF90430C38070471D
:1023300030B583B004463BB382B94D1CC1EBC1003C
:10234000099B0193089B0093079B069A032104EBCA
:102350004000FFF7E3FF284603B030BD4D1CC1EB42
:10236000C1000A9B089A9A180B9B09990B440B9978
:1023700001910A9900915B105210032104EB400077
:10238000FFF7CCFF2946D8E772B14D1CC1EBC10065
:102390000B9B01930A9B0093079B069A032104EB76
:1023A0004000FFF7BBFFD6E74D1CC1EBC100002387
:1023B00001930093079B069A022104EB4000FFF76C
:1023C000ADFFC8E7C3698B4201DB436803B9C16154
:1023D000436A934201DB436803B9426283698B42DB
:1023E00001DC436803B98161036A934201DC4368FD
:1023F00003B9026201234360704730B583B00446DD
:102400000D46114602687AB11A46FFF7DBFF042D2C
:1024100028D1079A06992046FFF7D4FF099A089910
:102420002046FFF7CFFF1DE0C06AC0EBC000079A4F
:102430000192069A00920A462946A56A05EB4000D9
:10244000FFF76CFFA26AE36AC3EBC30302EB43022C
:10245000089B1381A26AE36AC3EBC30302EB430246
:10246000099B5381E36A0133E36203B030BDD0EDD1
:10247000027A90ED047AF4EE477AF1EE10FA08D180
:10248000D0ED036A90ED057AF4EE476AF1EE10FAAA
:1024900016D000B585B090ED037A00230393029324
:1024A00001930093BDEEC77A17EE103AFDEEE77A7E
:1024B00017EE902A0221FFF7A0FF05B05DF804FB9C
:1024C000704710B52DED028B84B00446F0EE408AC3
:1024D000B0EE608AFFF7CBFFD4ED047A37EEA80A9E
:1024E00084ED040A84ED020AD4ED057A77EE880AB9
:1024F000C4ED050AC4ED030A00230393029301937C
:102500000093FDEEE07A17EE903AFDEEC07A17EEFA
:10251000902A01212046FFF770FF04B0BDEC028B2A
:1025200010BD00B585B0D0ED047A37EE800A80ED9D
:10253000040AD0ED057A77EEA00AC0ED050A002363
:102540000393029301930093FDEEE07A17EE903A25
:10255000FDEEC07A17EE902A0221FFF74EFF05B07C
:102560005DF804FB00B585B0D0ED047A37EE800A43
:10257000D0ED057A77EEA00A30EE011A70EEA11ABE
:1025800031EE022A80ED042A71EEA22AC0ED052A5E
:10259000FDEEE11ACDED031ABDEEC11A8DED021A62
:1025A000FDEEE00ACDED010ABDEEC00A8DED000A98
:1025B000FDEEE27A17EE903AFDEEC27A17EE902A1F
:1025C0000421FFF71AFF05B05DF804FB2DE9F8437D
:1025D0004768406A0744B8B30C461546B81CFFF775
:1025E000C1FD80B307F10800FFF7BCFD01282DD124
:1025F00007F10A00FFF7B6FD461E45EA04454FF015
:10260000000803E0854216D909F10108B04518DC3D
:1026100008EB06034FEA630923F0010404EB6304AB
:10262000640004F112003844FFF7A8FD8542E9D2A6
:1026300009F1FF36EAE704F116003844FFF798FD88
:1026400002E0002000E00020BDE8F8830020FBE766
:102650002DE9F04706460D46FFF784FD012806D018
:10266000022821D04FF0FF384046BDE8F087B01C6B
:10267000FFF778FD441E002703E08542F4DD08F1F2
:102680000107A7420DDC3B194FEA630823F0010361
:10269000181D3044FFF766FD8542EEDA08F1FF347D
:1026A000EFE74FF0FF38DFE7B01CFFF75BFD471E99
:1026B0004FF0000803E085421ADD09F10108B84532
:1026C0001EDC08EB07034FEA630923F0010404EB67
:1026D00063046400043434442046FFF743FD82461B
:1026E000A01CFFF73FFD5545E5DA09F1FF37E6E7A6
:1026F000201DFFF737FD00EB0508A8EB0A08B3E73C
:102700004FF0FF38B0E72DE9F04780460F46FFF75E
:1027100029FD012805D002281AD04FF0FF30BDE86E
:10272000F08708F10200FFF71DFD044608F10400E0
:10273000FFF718FDBC4234DC2044B84201DC002025
:10274000EDE7381B400006304044FFF70BFDE6E79D
:1027500008F10200FFF706FD451E002603E0874250
:1027600019DD09F10106AE4219DC73194FEA63095C
:1027700023F0010404EB6304640004344444204661
:10278000FFF7F0FC8246A01CFFF7ECFC5745E6DAA9
:1027900009F1FF35E7E7201DFFF7E4FCBFE7002064
:1027A000BDE70020BBE72DE9F04F87B0034601915C
:1027B000806A002800F0DB8093465C680444204671
:1027C000FFF7D0FC012840F0D180A01CFFF7CAFC25
:1027D000002840F0CF8004F10800FFF7C3FC044458
:1027E0002046FFF7BFFC4FF000080746A3E008F1C2
:1027F0000400FFF7B7FC074608F10600FFF7B2FC3C
:10280000042F40F0B980002840F0B88008F108009B
:10281000FFF7A8FC074660000A304044FFF7A2FC1F
:1028200080444046FFF79EFCA74240F3A98000F198
:10283000FF394FF0000A03E0834511DD07F1010A7B
:10284000CA454DDC0AEB09077F10BC000234444442
:102850002046FFF787FC8345EEDA07F1FF39EFE703
:10286000A01CFFF785FC82E0381DFFF77BFC0446C7
:10287000B81DFFF777FC042C40F0848008B10020DD
:1028800075E008F10800FFF76DFC044608F10A0046
:10289000FFF768FC054601993819FFF734FF044635
:1028A00059467819FFF72FFF054608F10C00FFF78E
:1028B00059FC064608F10E00FFF754FC002C63DBC0
:1028C000A64263DD002D63DBA84263DD04FB00F359
:1028D0005B00103303EB45004044FFF749FC46E042
:1028E0000135029BAB4220DD680006303044FFF723
:1028F00039FC06EB00084046FFF734FC814608F13E
:102900000200FFF72FFC01994044FFF7A1FE0446A7
:10291000B0F1FF3FE4D0B9F1010F3FF468AF474693
:10292000B9F1020FA0D0002021E0DDF80C80049C5A
:10293000059F08F10108474516DD4FEA48000230BF
:102940002044FFF70FFC26183046FFF70BFC054626
:10295000301DFFF707FC0290022DEAD10025CDF8CB
:102960000C8004940597BCE7002000E0002007B02D
:10297000BDE8F08F0020FAE70020F8E70020F6E736
:102980000020F4E70020F2E70020F0E70020EEE767
:102990000020ECE70020EAE743680B6041607047E5
:1029A00020EE200AF6EE007A20EE270A7047F0B5F6
:1029B00087B005460F4601262AE0AC44BEE80F006A
:1029C000ACE80F00DEF80030CCF80030013C002C01
:1029D0000FDD04EB840C4FEA8C0CACF1140EAE440A
:1029E000DEED017A9DED027AB4EEE77AF1EE10FAAF
:1029F000E3D4A6420BD004EB840405EB84040DF170
:102A0000040CBCE80F000FC4DCF800302360013672
:102A1000BE420DDA06EB86040DF1040C05EB8404CE
:102A20000FCCACE80F002368CCF800303446CEE77A
:102A300007B0F0BD2DE9F04387B005460E460C2ED9
:102A400040F3B2807410D5ED016A04EB840405EB09
:102A50008404D4ED017AF4EEE76AF1EE10FA4CBF8B
:102A60000122002206EB86039B00143B2B4493EDCE
:102A7000017AF4EEC77AF1EE10FA4CBF012300237D
:102A80009A4228D0F4EEC76AF1EE10FA4CBF012248
:102A90000022934238D0771E07EB870705EB8707A4
:102AA0000DF1040CBE46BEE80F00ACE80F00DEF8E6
:102AB0000030CCF80030A446BCE80F000FC7DCF8AB
:102AC00000303B6027460DF1040CBCE80F000FC737
:102AD000DCF800303B6001AFAC46BCE80F000FC72C
:102AE000DCF800303B602F46A446BCE80F000FC75F
:102AF000DCF800303B6001AF0FCF0FC43B682360B0
:102B0000741E4FF001082FE00027C5E7013C04EBDD
:102B1000840C05EB8C0CDCED017AB4EEE77AF1EE77
:102B200010FAF3D4A0452FDA0DF1040EB946B9E836
:102B30000F00AEE80F00D9F80030CEF80030BE46E6
:102B400067460FCFAEE80F003B68CEF800300DF1BE
:102B5000040EBEE80F00ACE80F00DEF80030CCF841
:102B6000003008F10108013C08EB880E05EB8E07E8
:102B7000D7ED017A95ED017AF4EEC77AF1EE10FA0D
:102B8000C5D508F10108EFE7A6EB0806A64205DD6A
:102B900021462846FFF74EFF3D4650E7314638466E
:102BA000FFF748FF26464AE707B0BDE8F08338B58F
:102BB00004460D46FFF73EFF29462046FFF7F7FE85
:102BC00038BD28B100EBC10181ED000AC1ED010A59
:102BD000704770B52DED088B31EE018A38EE008A12
:102BE00038EE028AF5EE007A28EE278A71EEA18A85
:102BF00078EEA08A78EEA28A68EEA78A70EE027A52
:102C0000F6EE006A67EEA67A77EEC87A30EEA27A20
:102C100027EE267A37EE687A102A3FDC06460D4604
:102C2000B0EE419AF0EE619AB0EE42AAF0EE62AADE
:102C3000B0EE43BA67EEA77A27EE077A77EE877A87
:102C4000F4EEC37AF1EE10FA2CDD31EE001A71EEDB
:102C5000A01A541CF0EE66BA2246F0EE682AB0EED6
:102C6000482A61EEA61A21EE261AFFF7B2FF39EEC6
:102C70000A1A79EEAA1A2246B0EE4B3AF0EE6A2A08
:102C8000B0EE4A2A61EEAB1A21EE2B1AF0EE680A7A
:102C9000B0EE480A29463046FFF79BFF0120BDEC05
:102CA000088B70BDF0EE620AB0EE420A0968FFF7C9
:102CB00088FF2B6801332B60F0E7000008B58368BC
:102CC0008B4203DB002901DB416008BD034B044A52
:102CD00040F27D41034809F0A9F800BFCCEC0008A0
:102CE00048F20008E4EC000808B543681944FFF70F
:102CF000E5FF08BD08B5B2F1804F04D201608260E3
:102D00000023436008BD034B034A40F2934103484C
:102D100009F08CF8FCEC000838F20008E4EC00083C
:102D2000F8B505460F4614461E4600221146FFF729
:102D3000E1FF002C0BDB002E09DBBB68A34206DBA6
:102D40001B1BB34203DB3B6823442B60AE60284669
:102D5000F8BD0000F8B54B1E032B04D807460E46FD
:102D6000002528460CE0084B084A40F28A410848F2
:102D700009F05CF804023846FFF7E0F9204301351A
:102D8000B542F7DBF8BD00BF10ED0008F8F1000810
:102D9000E4EC000810B504460021FFF78FFF022184
:102DA0002046FFF7D7FF10BDF0B585B0064601AC51
:102DB00084E80E000A9F00212046FFF77FFF0221D2
:102DC0002046FFF7C7FF05462046FFF7B7F9002F5B
:102DD0001FDB0446BD421CDD431E032B20D807FB2E
:102DE00000F101A8FFF780FF214601A8FFF7B2FF1D
:102DF0000746214601A8FFF7ADFF05FB0444A21CCE
:102E0000C31B3A4401A93046FFF78AFF304605B09C
:102E1000F0BD074B074A40F2F241074809F006F8B7
:102E2000064B044A40F2F341034808F0FFFF00BF9D
:102E300024ED000858F20008E4EC000838ED000822
:102E400010B586B0044603A880E80E00FFF7A2FF85
:102E500048F26B43984204DCB0F59B6F10DA6B23A9
:102E600001E04FF40043089A9B1801D498420ADC11
:102E7000002211462046FFF73DFF204606B010BD58
:102E800040F26B43EFE7009306AB13E90E002046D8
:102E9000FFF78AFFF1E700002DE9F04106460C46F6
:102EA0004F6802212046FFF755FFA0B1804620461B
:102EB000FFF744F90546431E032B16D800FB08F123
:102EC0002046FFF711FF29462046FFF743FF411E2A
:102ED0002046FFF709FF6368DB1B3A462146304670
:102EE000FFF71EFF3046BDE8F081034B034A40F276
:102EF000AD41034808F09AFF38ED000808F20008D9
:102F0000E4EC000838B50546FFF718F9A0F12003F6
:102F1000D62B10D9A0F1F703032B0ED9A0F1FB0398
:102F2000032B11D91C2818D01D281BD10421284699
:102F3000FFF710FF38BD8B38FCE71C022846FFF76F
:102F4000FDF820446C30F5E7C0F1FB04240228466C
:102F5000FFF7F4F8201A6C38ECE702212846FFF757
:102F6000F9FEE7E7034B044A40F2BC41034808F08E
:102F70005DFF00BFE4ED0008E8F10008E4EC0008A4
:102F800010B50446FFF7E5F81B2805DD1E280AD01A
:102F90002046FFF7B7FF10BD0C4B0D4A40F2C2416F
:102FA0000C4808F043FF01212046FFF79DFE6268B0
:102FB000A3689A42EFDA2046FFF7C0F800F00F034B
:102FC0000F2BE8D000110F28F1D1E4E758ED0008ED
:102FD00020F20008E4EC00082DE9F04180460C46A0
:102FE000164600212046FFF769FE10E02046FFF755
:102FF000C7FF2046FFF7ADF81B28F7D867682046C3
:10300000FFF79CF803460C280ED0B34212D0656837
:10301000A3689D42EDDB00231A4621464046FFF798
:103020007FFE4046BDE8F0812046FFF787F840F478
:103030008073EAE77B1B2A4621464046FFF770FE75
:10304000EFE770B584B015461E460A46014601A852
:10305000FFF7C2FF002405E001A8FFF753FF46F881
:1030600024000134AC4203DA029803998842F3DB6E
:1030700004B070BD30B58FB0044605A880E80E00DE
:1030800000230D930B930C930BAB0222122112A879
:10309000FFF7D7FF0C9A0AB10B9B3BB900221146F0
:1030A0002046FFF727FE20460FB030BD6D4605A92C
:1030B0002846FFF735FE0DF1200C95E807008CE857
:1030C00007000DAB012213216046FFF7BAFF0D9BED
:1030D0004BB10C99194405A8FFF7F0FD05A920464E
:1030E000FFF7DAFEDFE7002211462046FFF702FE77
:1030F000D9E72DE9F0478EB081460D46174608AC5A
:1031000001F1740393E8070084E8070000212046DA
:10311000FFF7D4FD2046FFF711F8F0B1032825D0C2
:103120004FF0FF340022114604A8FFF7E3FD0BAE79
:10313000009405F168030ECB3046FFF735FE96E8A4
:1031400007008DE80700383595E80E004846FFF780
:1031500091FF48460EB0BDE8F08739462046FFF79C
:10316000C3FD2046FEF7EAFF0446E0E7022108A877
:10317000FFF7F0FD8246022108A8FFF7EBFD80462D
:10318000002601E00136804656450CDA08A8FEF715
:10319000D5FF0446022108A8FFF7DCFDB845F1DCA5
:1031A000B842EFDD01E04FF0FF34B4F1FF3FBED194
:1031B000B8E700002DE9F04F2DED088BE1B0814616
:1031C0000F46039116460CAB00F15C0207CA83E878
:1031D000070009AD04AC009709F144030ECB20466B
:1031E000FFF7E2FD94E8070085E807004FF0000ACA
:1031F0005446D046D346012302930A9A0B9B9A4227
:1032000080F2888309A8FEF799FF0546431E1E2B0E
:1032100000F25683DFE813F03100540331004B0015
:103220006D009700840009015403FC0150026B02F9
:103230005403620254035403540331001F001F005F
:1032400037005C00310035017201AD01AD0154035E
:103250000502D400AA00029B1BB104EBD4740BEB53
:10326000640B1BF1070106D4C91009A8FFF73CFD48
:1032700000240294C1E70731F6E704EBD4740BEBAA
:10328000640B0024B9E7012C40F34683A31E013CE4
:1032900060AA02EB840402EB830354ED330A13EDBE
:1032A000330A3046FFF70DF900240294A5E7002CFD
:1032B00040F33483013C60AB03EB840454ED330AE8
:1032C0009FEDD10A3046FFF7FCF80024029494E702
:1032D000002C40F32583013C60AB03EB8404DFED5D
:1032E000CA0A14ED330A3046FFF7EBF800240294C3
:1032F00083E7012C40F3168300250CE060AA02EB63
:10330000830302EB850253ED330A12ED330A304694
:10331000FFF707F902356B1CA342EFDB0123B7E18E
:10332000002C40F30183002560AB03EB850353EDD4
:10333000330A9FEDB50A3046FFF7F3F80135AC428A
:1033400005DC002459E7002C40F3F082002560AB37
:1033500003EB8503DFEDAC0A13ED330A3046FFF7CC
:10336000E0F80135AC42DFDC002446E7032C40F3F3
:10337000DF82002560AB03EB850313ED330A6B1C82
:1033800060AA02EB830313ED331AAB1C02EB830339
:1033900053ED331A631B052B41D09FED9B2AEB1C89
:1033A00060AA02EB830353ED332ADFED970A304620
:1033B000FFF7D8F82F1D0735A54205DB00241CE7D1
:1033C000032C40F3B782002760AB03EB870353ED78
:1033D000330A7B1C60AA02EB830313ED331ABB1C78
:1033E00002EB830353ED331AFB1C02EB830313ED53
:1033F000332AE31B052B0CD0DFED832A9FED820AD5
:103400003046FFF7AFF83D1D0737A742B2DB002477
:10341000F3E63B1D02EB830353ED332AEEE72B1D4E
:1034200002EB830313ED332AB9E7052C40F38482C2
:10343000002521E06A1CA91CE81C2F1D0DF5C07C8D
:103440000CEB83030CEB87070CEB80000CEB81018A
:103450000CEB82020CEB850C53ED332A17ED332A6B
:1034600050ED331A11ED331A52ED330A1CED330AC5
:103470003046FFF777F806356B1DA342DADB0123F0
:1034800006E1072C40F35A82002521E06A1CA91CA2
:10349000E81C2F1D0DF5C07C0CEB83030CEB87079C
:1034A0000CEB80000CEB81010CEB82020CEB850C29
:1034B00053ED332A17ED332A50ED331A11ED331A39
:1034C00052ED330A1CED330A3046FFF74BF8063550
:1034D0006B1DA21E9342D9DB6B1CA34280F230828B
:1034E00060AA02EB830302EB850553ED330A15ED69
:1034F000330A3046FFF715F800247EE6072C40F328
:10350000218200250CE060AA02EB830302EB850216
:1035100053ED330A12ED330A3046FFF702F8023555
:103520006B1CA21F9342EEDB6A1DA24280F20C824A
:10353000A91CE81C2C1D60AF07EB820207EB84047A
:1035400007EB800007EB810107EB830307EB8505A1
:1035500052ED332A14ED332A50ED331A11ED331A9C
:1035600053ED330A15ED330A3046FEF7FBFF002416
:1035700043E6032C40F3EA8114F001073ED09DEDB1
:103580002D0A01271CE07A1CB91C60A800EB8303FC
:1035900000EB810100EB8202DFED1B2A13ED332AE1
:1035A00051ED331A12ED331AF0EE400A00EB8703A7
:1035B00013ED330A3046FEF7D5FF04379FED120AAC
:1035C000FB1CA3421DDA1B2DDDD07A1CB91C60A8A0
:1035D00000EB830300EB810100EB820253ED332A01
:1035E0009FED092A51ED331A12ED331A00EB8703D0
:1035F00053ED330A3046FEF7B5FFDEE79FED020AD2
:10360000DEE7012344E000BF000000000000803737
:10361000BAF1000F05D1D9F87C30002B3DD14FF025
:10362000010A002C40F39481013C60AB03EB84035E
:1036300053ED337AFDEEE77AB8F1090F00F38A8192
:1036400008F1010708EB48080FAB03EB880309AA50
:1036500007CA83E807000A2D27D009F1500393E831
:10366000070060AB03E907000DF1240804ADCDEDC0
:10367000007A60AB13E90E002846FFF7E1FB95E8FE
:10368000070088E80700104662B300230A93B84693
:10369000002B3FF4B2AD0024AFE5039A49460CA8D5
:1036A000FFF727FD4FF0010ABBE70CAB93E80700DB
:1036B00060AB03E90700D7E7B8F1000F40F34C8196
:1036C00008F1FF3809AD08EB48030FAA02EB8303AA
:1036D00093E8070085E807000023D9E73046FEF7A6
:1036E000C6FE012061B0BDEC088BBDE8F08F09A8D3
:1036F000FEF724FD2238032800F23081DFE800F0D5
:10370000022F5E93062C40F32B81DDED2F8A9DED79
:10371000319ADDED329A9DED33AA1FED458AF0EE28
:10372000482A9DED302AF0EE681A9DED2E1AF0EE33
:10373000480A9DED2D0A3046FEF714FFF0EE482AA8
:10374000B0EE4A2AF1EE681AB0EE691AF0EE480AB5
:10375000B0EE490A3046FEF705FF00244DE50C2C7B
:1037600040F300819DED338ADDED348A9DED359A7D
:10377000DDED369A9DED37AADDED38AADDED322A72
:103780009DED312ADDED301A9DED2F1ADDED2E0A6B
:103790009DED2D0A3046FEF7E5FEF0EE6A2AB0EE0A
:1037A0004A2AF0EE691AB0EE491AF0EE680AB0EE55
:1037B000480A3046FEF7D6FE00241EE5082C40F3EA
:1037C000D3809DED2E8ADDED309A9DED32AADDEDA0
:1037D00033AA9DED349A9DED35BA5FED758AF0EE12
:1037E000682A9DED312AF0EE691A9DED2F1AF0EE50
:1037F000480A9DED2D0A3046FEF7B4FE78EE292AE0
:1038000072EE892AF1EE622AB0EE4B2AF0EE491AE6
:10381000B0EE6A1AF0EE680AB0EE4A0A3046FEF7D9
:10382000A1FE0024E9E40A2C40F3A0809DED2D0ABE
:10383000DDED2E0A9DED2F1ADDED301A9DED312ABA
:10384000DDED322ADDED338A9DED349ADDED359ADA
:103850009DED36AADDED37AA30EE017A37EE027A19
:1038600037EE287A37EE297A70EEA17A77EEA27ACF
:1038700077EE897A77EE8A7AB0EEC76AF0EEE76A79
:10388000B4EEE66AF1EE10FA15DDB1EE678A304665
:10389000FEF768FEF0EE482AB0EE6A2AF0EE4A1A09
:1038A000B0EE691AF0EE490AB0EE680A3046FEF74B
:1038B00059FE0024A1E4B0EE6A8AF1EE47AAE6E7D9
:1038C000FF281AD01C2801D01F2851DD4FF0FF31EE
:1038D00009A8FFF709FA09A8FFF714FB00B207EEE1
:1038E000900AF8EEE77A2F2C44DC60AB03EB8403FC
:1038F00043ED337A01340023CAE6042109A8FFF717
:1039000029FA07EE900AF8EEE77A1FEDC07A67EE23
:10391000877AE8E70020E5E60020E3E60020E1E61C
:103920000020DFE60020DDE60020DBE60020D9E60F
:103930000020D7E60020D5E60020D3E60020D1E61F
:103940000020CFE60020CDE60020CBE60020C9E62F
:103950000020C7E60020C5E60020C3E60020C1E63F
:103960000020BFE60020BDE60020BBE60020B9E64F
:103970000020B7E60020B5E62DE9F0438DB00646FD
:103980000F4615461C46DDF85090DDF85480302275
:103990000021684608F061FC012300936A4639461D
:1039A0003046FFF707FC25B108B1069B00E003464F
:1039B0002B6024B108B1089B00E003462360B9F1F5
:1039C000000F05D008B1079B00E00346C9F800309E
:1039D000B8F1000F09D028B90023C8F800300DB0A5
:1039E000BDE8F083099BC8F800300028F7D00B9899
:1039F000F5E700002DE9F04F99B004460D46164654
:103A00004160826006AF002211463846FFF772F926
:103A100004F1380397E8070083E80700B44A314609
:103A20002846FEF70AFC8046B24A31462846FEF791
:103A300004FC05902061B04A31462846FEF7FDFBA4
:103A400007466061AD4A31462846FEF7F6FB8346DD
:103A5000A061AB4A31462846FEF7EFFB8146E061A4
:103A6000A84A31462846FEF7E8FB82462062A64A6D
:103A700031462846FEF7E1FB6062A44A31462846FB
:103A8000FEF7DBFBA062B8F1000F00F02581002FEC
:103A900000F02381B9F1000F00F02381BAF1000F8B
:103AA00000F02181BBF1000F1CD0059B002B00F022
:103AB0001C81974A31462846FEF7BFFB002800F0DC
:103AC000DA8004302844FEF74DFBE0604FF0FF330E
:103AD000E36208F102002844FEF744FB8146002619
:103AE0002663D3E002230B9300230C930D930E93D4
:103AF000884A31462846FEF7A0FB814608B95F4652
:103B0000EBE006AF002211463846FFF7F3F804F168
:103B1000680397E8070083E807000022114638464B
:103B2000FFF7E8F804F1740397E8070083E807005B
:103B30004FF0005205EB09013846FFF7DBF804F1BE
:103B4000380397E8070083E807000DF13C0989E88E
:103B5000070002214846FFF7C7F84846FEF7EEFA8D
:103B600001464846FFF7AAF849463846FFF794F958
:103B70000DF1540A49465046FFF78EF90023009391
:103B80009AE80E003846FFF70FF90DF1480A97E85A
:103B900007008AE8070049463846FFF77DF949469D
:103BA0003846FFF779F904F1500397E8070083E8F6
:103BB00007000CAB012211215046FFF742FA0BAB74
:103BC00001224FF483715046FFF73BFA0DAB0122FF
:103BD0004FF492715046FFF734FA0EAB012240F2D7
:103BE00025115046FFF72DFA9AE807008DE80700E7
:103BF00099E80E003846FFF73DFA04F15C0397E8B8
:103C0000070083E807000B9B022B7FF478AF0C9B27
:103C1000002B3FF474AF0D99E9B10E9B002B3FF4DC
:103C20006EAF4846FFF74AF849463846FFF734F981
:103C300004F1680397E8070083E807000E9A119BD8
:103C40009B1A49463846FFF76BF804F1740397E86E
:103C5000070083E807000C990FA8FFF72FF806AFBD
:103C60000FA93846FFF718F904F1440397E8070055
:103C700083E807001DE74FF6FF73E36026E7083788
:103C8000E819FEF77BFA4044206301364E4519DA05
:103C900008EBC607381D2844FEF764FA0028EED06A
:103CA0000328F2D1B81D2844FEF75CFA012801D0A0
:103CB0000A28EAD107F108002844FEF75FFA4044D9
:103CC0002063E2E7276B47B1606932302844FEF792
:103CD00049FA6063012700E00027384619B0BDE8C3
:103CE000F08F4F46F9E75746F7E7059FF5E700BF26
:103CF00064ED00086CED000874ED00087CED000830
:103D000084ED00088CED000894ED00089CED00089F
:103D1000ACED0008A4ED0008F8B5036CD3B9C36896
:103D20008B422DDD436B012B2DDCD3B985694768B0
:103D3000066906EB4106B819FEF714FA05EB4004D4
:103D4000B01C3844FEF70EFA05EB400084421DD04B
:103D50002046F8BD0F4B104A40F247610F4808F06B
:103D600065F885694768066906EB8106B819FEF7AC
:103D700005FA2C18301D3844FEF700FA2844E5E710
:103D80004FF0FF34E4E74FF0FF34E1E74FF0FF344A
:103D9000DEE700BFB4ED0008D0F10008E4EC000855
:103DA00008B5F5EEC00AF1EE10FA0DDBB5EEC01A5B
:103DB000F1EE10FA0FDB70EE810AF6EE007A60EE9B
:103DC000A70A20EE800A08BD064B074A40F6FB31E1
:103DD000064808F02BF8064B034A40F6FC3103482E
:103DE00008F024F8C4ED000830F10008E4EC000805
:103DF000D4ED000808B5F0EE417A32EE611A77EEA4
:103E0000E00AFFF7CDFF08BDF4EE610AF1EE10FA0B
:103E100000F0148108B5F4EEE10AF1EE10FA66D56F
:103E200092ED057AD2ED067AB4EEE77AF1EE10FA69
:103E300064D8F4EEE07AF1EE10FA00F1F780B4EE17
:103E4000E17AF1EE10FA00F3F180B4EEE07AF1EEEF
:103E500010FA0DDD71EE406A37EE606A66EE866A32
:103E600071EEE00A86EEA06A30EE060AF0EE470A2E
:103E7000F4EEE17AF1EE10FA0DD531EE407A77EEFC
:103E8000E16A27EE267A71EEE01AC7EE216A31EE7A
:103E9000261AF0EE671A07EE901AF8EEE77AF4EEBB
:103EA000407AF1EE10FA37D14B1C07EE103AB8EE1B
:103EB000C77AB4EEC17AF1EE10FA26DBF4EEC07ADE
:103EC000F1EE10FA71DBF4EEC17AF1EE10FA6CDB70
:103ED00000EB8100D0ED007A92ED047A71EEE01AE9
:103EE00027EE217A77EE877AC0ED007A9EE0544B78
:103EF000544A40F6D731544807F098FF534B514A83
:103F000040F6D831504807F091FF514B4D4A40F6EA
:103F1000E5314D4807F08AFF4B1C07EE103AB8EE2A
:103F2000C77AB4EE407AF1EE10FA0BD1F4EEC17A12
:103F3000F1EE10FAC2D9474B424A40F6E731424807
:103F400007F074FFF4EEC07AF1EE10FA0BDBF4EE3A
:103F5000C17AF1EE10FAB1DA3F4B3A4A40F6E93154
:103F6000394807F063FFB4EEC07AF1EE10FA0BD8CF
:103F7000B4EEC17AF1EE10FAA0D9384B314A40F6CE
:103F8000EB31314807F052FFF4EEC17AF1EE10FA4E
:103F900004D8B4EEC17AF1EE10FA8FDA304B294A28
:103FA00040F6ED31284807F041FF4B1C07EE103A70
:103FB000B8EEC77AB4EEC07AF1EE10FA04D8B4EED7
:103FC000C17AF1EE10FA31D9F4EEC07AF1EE10FABE
:103FD0002DD8B4EEC07AF1EE10FA28DBF4EEC17AF7
:103FE000F1EE10FA23D8B4EEC17AF1EE10FA1EDB2E
:103FF00000EB8100D0ED006A92ED047A71EEE01AD8
:1040000027EE217A30EE670A31EE671A30EE010AA8
:10401000F6EE007A20EE270AF7EE007A77EEC07A05
:1040200067EE277A76EEA77AC0ED007A08BD0D4BD1
:10403000044A40F6F431044807F0F8FE704700BF28
:10404000E8ED000814F10008E4EC0008F0ED0008C9
:1040500000EE00080CEE000814EE00081CEE00084C
:1040600040EE000828EE00082DE9F0472DED0C8BFE
:104070000746894690461D46B0EE40AAB7EE00CAF4
:1040800030EE0CCA15E0D94BD94A40F61241D94856
:1040900007F0CCFEF0EE4C1AB0EE481AF0EE4A0AE9
:1040A000B0EE480A2A460021A9F10400FFF7ACFE51
:1040B0002D68002D00F0DE82D5ED068AF4EECA8A66
:1040C000F1EE10FADFDBD5ED02BAF5EE40BAF1EE13
:1040D00010FA2FD195ED018A07EE908AF8EEE77A73
:1040E000F4EEC87AF1EE10FAE2DDB5EEC08AF1EE38
:1040F00010FACFDBFDEEC87A17EE904AF0EE4C1ABC
:10410000B0EE481AF0EE4A0AB0EE480A2A462146B6
:104110003846FFF779FEF0EE4C1AB0EE481AF0EE92
:104120004A0AB0EE480A2A46611CA9F10400FFF7CA
:104130006BFEBDE795ED018A7BEE889AD5ED03CA4B
:1041400095ED059AB4EECC9AF1EE10FA0BD8B4EED8
:10415000CA9AF1EE10FA0DDD79EE4A0A6BEEA00A6A
:1041600070EE880A0AE0A44BA14A40F62541A14816
:1041700007F05CFEB0EE4A9AF0EE480AF4EECC8A04
:10418000F1EE10FA06D578EECAAA6BEEAAAA7AEE7C
:1041900088AA03E0F0EE4C8AF0EE69AAF5EEC00AB8
:1041A000F1EE10FAC0F25E82F5EEC0AAF1EE10FA5E
:1041B000C0F25A8207EE908AF8EEE77AF4EEE07ADF
:1041C000F1EE10FA40F35282F4EEEA7AF1EE10FAD0
:1041D00040F34E82FDEEE07A17EE904AFDEEEA7A69
:1041E00017EE903A9C4231D138EEC99AD5ED047A57
:1041F00029EE279A002C22DB444520DA07EE904A6C
:10420000B8EEE71AF7EE007A31EE271AB0EE412A3F
:10421000F0EE6A1AB0EE490AFFF7ECFD07EB8403F3
:10422000D3ED007A77EE807AC3ED007A09EB84044F
:10423000D4ED007A77EE897AC4ED007A38E76F4BD7
:104240006B4A40F641416B4807F0F0FDF4EEEA0A94
:10425000F1EE10FA13DD79EE4A7A38EECA9A3CEEA6
:10426000499AF1EE6BBAF1EE6CCA7CEE678A10EEF9
:10427000903AF0EE6A0A0AEE903AB0EE698AF5EEEC
:10428000C0CAF1EE10FA50DBF5EEC0BAF1EE10FA4A
:1042900052DBFDEEE07A17EE90AAFDEEEA7A17EE19
:1042A000906A0AF1010407EE904AF8EEE77A37EED9
:1042B000C8DA2DEE2CDA3DEE0ADA07EE106AB8EE17
:1042C000C7BA7BEE48BA6BEEACBA7BEE8ABAB4EEF4
:1042D000CDCAF1EE10FA01D5B0EE4CDAD5ED049A64
:1042E0003DEE498A28EE298A77EEE00AB0EE480AC8
:1042F000FEF756FB07EB8A03D3ED007A77EE807A60
:10430000C3ED007AB4EEEBCAF1EE10FA0AD53CEE3A
:104310004DDA331B07EE903AF8EEE77ACDEE27CA76
:10432000F0EE4CBA6CEEA96A1EE0354B304A40F60E
:104330005341304807F07AFD324B2D4A40F6544144
:104340002C4807F073FD07EB840393ED007AF6EE3B
:10435000007A66EEA77A77EE887A77EE277AC3ED51
:10436000007A38EE268A0134B442ECDBF0EEC87AEB
:104370009FED257AF4EEC77AF1EE10FA2FD8DFED33
:10438000237A7BEEE77AF4EEE87AF1EE10FA41D583
:10439000B7EE001A3BEE011AB0EE412AF0EE6A1AAF
:1043A000F0EE4B0A38EEEB0AFFF724FD60EE297AB7
:1043B00077EE887A07EB860393ED007A77EE277A1B
:1043C000C3ED007A09EB8603D3ED007A78EEC98A53
:1043D00068EEA98A77EEA87AC3ED007A68E60C4BFE
:1043E000034A40F69441034807F020FD58EE0008C8
:1043F0004CF10008E4EC000868EE00088CEE0008C0
:10440000A0EE0008A8EE0008AE47813F0AD7233C83
:10441000B0EE0008994B9A4A40F69541994807F04A
:1044200005FDF0EE6A1AB0EE681AF0EE4A0AB0EE38
:10443000480A2A4621463846FFF7E6FCF0EE4B1ABA
:10444000B0EE491AF0EE6A0AB0EE680A2A46214632
:104450003846FFF7D9FCF0EE4C1AB0EE691AF0EED0
:104460004B0AB0EE490A2A4621463846FFF7CCFCF3
:1044700074E0F0EE4B1AB0EE491AF0EE4A0AB0EED4
:10448000480A2A4621463846FFF7BEFCF0EE6A1A73
:10449000B0EE681AF0EE4B0AB0EE490A2A46214601
:1044A0003846FFF7B1FCF0EE4C1AB0EE691AF0EEA8
:1044B0006A0AB0EE680A2A4621463846FFF7A4FC8D
:1044C0004CE0F0EE6A1AB0EE681AF0EE4A0AB0EE6E
:1044D000480A2A4621463846FFF796FCF0EE4C1A69
:1044E000B0EE691AF0EE6A0AB0EE680A2A46214672
:1044F0003846FFF789FC31E0F0EE6A1AB0EE681A30
:10450000F0EE4A0AB0EE480A2A4621463846FFF73E
:104510007BFCF0EE4C1AB0EE691AF0EE6A0AB0EECF
:10452000680A2A4621463846FFF76EFC16E0F4EE8C
:10453000C99AF1EE10FA04D5B4EEC98AF1EE10FA78
:1045400075DCF0EE4C1AB0EE691AF0EE4A0AB0EEE5
:10455000480A2A4621463846FFF756FC3446444569
:10456000BFF6A6AD07EE904AF8EEE78A661C07EEA6
:10457000906AB8EEE79A78EEC87AC7EEABAA7AEE00
:104580008AAA79EE487AC7EEAB0A30EE8ABAB4EE60
:10459000E88AF1EE10FA05D5F4EEC99AF1EE10FAB8
:1045A0003FF73FAFF4EEE89AF1EE10FA05D5B4EE1E
:1045B000C98AF1EE10FA3FF75CAFB4EEE88AF1EE8B
:1045C00010FA05D5F4EEE89AF1EE10FA3FF779AF5C
:1045D000F4EEE89AF1EE10FA04D5B4EEE88AF1EEC2
:1045E00010FA89DCB4EEC98AF1EE10FA9FD5F4EE28
:1045F000C99AF1EE10FA9ADDF0EE4B1AB0EE491AB4
:10460000F0EE4A0AB0EE480A2A4621463846FFF73D
:10461000FBFBF0EE4C1AB0EE691AF0EE4B0AB0EE6E
:10462000490A2A4621463846FFF7EEFB96E7F0EEA8
:104630004B1AB0EE491AF0EE4A0AB0EE480A2A4682
:1046400021463846FFF7E0FBF0EE4C1AB0EE691A4F
:10465000F0EE4B0AB0EE490A2A4621463846FFF7EB
:10466000D3FB7BE700247AE7002478E7002476E791
:10467000002474E7BDEC0C8BBDE8F087C4EE0008A5
:104680004CF10008E4EC0008F0B599B004460D4682
:10469000164630273A4600210DEB070007F0DDFDF6
:1046A00001230C933A460021684607F0D6FD0DEB36
:1046B000070229462046FEF77DFD18B9002030602C
:1046C00019B0F0BD1798C0EBC000400007F0CCFB5C
:1046D00030600A906A4629462046FEF76BFD0028A6
:1046E000ECD00B98179B9842EAD0034B034A40F654
:1046F000E601034807F09AFBD8EE0008A0F1000895
:10470000E4EC000870B50446406810B103686360CB
:1047100070BD0D46A3689BB91F2904D97F2918D8FD
:104720004FF4487601E04FF4FA6605FB06F00430DA
:1047300007F09AFB0028EBD0236803602060A66096
:10474000A368013BA360206805FB03F3043318440E
:10475000DEE76426E9E7000010B52DED028B0C467C
:1047600008EE902AB0EE408A1A461C21FFF7CAFFD5
:10477000D4ED026AD4ED007A76EEE76AD4ED037ADE
:1047800094ED017A77EEC77A86EEA77A60B1034698
:1047900080ED027AB5EE407AF1EE10FA0BD0F7EE2A
:1047A000006AC6EE877A08E0164B174A40F62D31AC
:1047B000164807F03BFBDFED167AC3ED037AD4ED24
:1047C000007AD4ED016A38EE660A20EE070A77EE29
:1047D000807AC3ED017AB8EEE87A77EEC77AC3ED56
:1047E000017A226962B14FF07E521A6162685A61A1
:1047F000E2689A6100221A601846BDEC028B10BD77
:10480000044AF2E70CEF00086CF10008E4EC000841
:1048100000000000000080BF2DE9F0412DED108B5D
:1048200080460D46B0EE40AAF0EE60AAB0EE418A96
:10483000F0EE61BAB0EE42CAF0EE62CAB0EE439A50
:10484000F0EE639AB0EE44BA144631EE407A71EE5F
:10485000E07A32EE41FA72EEE1EA33EE42EA73EECA
:10486000E28A73EE40DA33EEE0DA27EE077A67EE9B
:10487000A77A77EE277A17EE900AFBF7B5FE41ECA0
:10488000100B09F0BFFF57EC106B2FEE0FFA6EEE16
:10489000AEEA7FEE2E7A17EE900AFBF7A5FE41EC0A
:1048A000100B09F0AFFF53EC102B30463946FBF7E5
:1048B0003DFD06460F462EEE0EEA68EEA88A7EEE15
:1048C000287A17EE900AFBF78FFE41EC100B09F0E7
:1048D00099FF53EC102B30463946FBF727FDFCF7C8
:1048E000B3F908EE900A6DEEADDA2DEE0DDA7DEE3D
:1048F0008D7A17EE900AFBF777FE41EC100B09F06A
:1049000081FF51EC100BFCF79FF907EE900A68EE5F
:10491000A88A67EEA77A78EEE78A102C5DDCF4EEC1
:10492000CB8AF1EE10FA5CDD38EE0A1AF6EE007A68
:1049300021EE271A7BEEAA1A61EEA71A38EE0C8A2E
:1049400028EE278A7BEEAC8A68EEA78A3CEE09CA7D
:104950002CEE27CA7CEEA9CA6CEEA7CA31EE082A53
:1049600022EE272A71EEA82A62EEA72A38EE0C8AD8
:1049700028EE278A78EEAC8A68EEA78A72EE08BA2B
:104980006BEEA7BA32EEA8DA2DEE27DA0134224612
:10499000B0EE4B4AF0EE4D3AB0EE6B3AF0EE6A0AEA
:1049A000B0EE4A0A29464046FFF736FF2246B0EEEF
:1049B0004B4AF0EE693AB0EE493AF0EE6C2AB0EEAE
:1049C0004C2AF0EE681AB0EE481AF0EE4D0AB0EE3E
:1049D0006B0A29464046FFF71FFFBDEC108BBDE870
:1049E000F081F0EE690AB0EE490A29684046FEF708
:1049F000E8F82B6801332B60EFE700002DE9F04F5A
:104A00002DED048B87B00646884601921D46002393
:104A1000059320EE009A184600E00133434508DA7A
:104A2000C3EBC30206EB4202127B012AF5D101302F
:104A3000F3E72860002800F0F580800007F014FA02
:104A40008246019B186020B10027B946BA460395FB
:104A5000D9E000232B60E7E00598C00007F004FAD6
:104A60008246002840F0D480039D07F005FA019C9F
:104A7000206807F001FA002323602B60D4E0BBF12B
:104A8000000F06DB019B1A68059BA3EB090342F8A4
:104A90002B300BF1010BDDF81490F35F08EE903A28
:104AA000F8EEE88AB4F9023008EE103AB8EEC88A97
:104AB00009F101030593F0EE480AB0EE680A494691
:104AC0005046FEF77EF80135454580F29380C5EBF0
:104AD000C504670006EB4404237B013B032BF2D89B
:104AE00001A252F823F000BF7F4A0008F94A0008EB
:104AF000254B0008814B0008F35F08EE903AF8EE72
:104B0000E88AB4F9023008EE103AB8EEC88A05997E
:104B10004B1C0593F0EE480AB0EE680A5046FEF7CB
:104B200050F8D0E7B4F9043001EE103AB4F9063089
:104B300001EE903AF35F02EE103AB4F9023002EE61
:104B4000903A0022B0EE493AF8EEE22AB8EEC22AD4
:104B5000F8EEE11AB8EEC11AF0EE480AB0EE680AB3
:104B600005A95046FEF735F8F35F08EE903AF8EEE7
:104B7000E88AB4F9023008EE103AB8EEC88AA2E723
:104B8000B4F9043001EE103AB4F9063001EE903A6F
:104B9000B4F9083002EE103AB4F90A3002EE903A55
:104BA000F35F03EE103AB4F9023003EE903A0022BC
:104BB000B0EE494AF8EEE33AB8EEC33AF8EEE22A2C
:104BC000B8EEC22AF8EEE11AB8EEC11AF0EE480AC1
:104BD000B0EE680A05A95046FFF71EFEF35F08EE27
:104BE000903AF8EEE88AB4F9023008EE103AB8EEDE
:104BF000C88A68E7029F019B1A68059BA3EB09031B
:104C000042F82B300137012F0EDC012F3FF424AF87
:104C1000002505959FED078AF0EE488A4FF0FF3B8F
:104C2000029751E74FF0000A504607B0BDEC048BE5
:104C3000BDE8F08F00000000006838B110B50468CE
:104C400007F01AF92046002CF9D110BD704700007A
:104C50002DE9F04F2DED028BADF5097D06460C4692
:104C60001546DDF850B2DDF858A2002385938693EF
:104C7000879384930768402F17DC0DF10C0808EB2D
:104C800087097368959A134407EE903AF8EEE77A2D
:104C900005EB850504EB8503B7EE007A77EE877A9E
:104CA000C3ED017A01920027A8E07800013080006E
:104CB00007F0DAF88046E2E7654B664A40F60351B2
:104CC000654807F0B3F80D462968A9B1D1ED067A19
:104CD000F4EEC87AF1EE10FAF5D80B682B60D1ED3E
:104CE000047AF5EE407AF1EE10FAE5D000230B617C
:104CF00085A8FDF751FEE7E7959D0AE0D3ED067A1A
:104D0000F4EEC87AF1EE10FA2ADB849A1A608493E2
:104D10001434D4ED017AF4EEE87AF1EE10FA26D8E4
:104D200094ED037AB4EE677AF1EE10FAF0D05346C0
:104D3000B0EE480A5A46214685A8FFF70DFD034606
:104D40000028E5D0002FD9D1002DD7D0D0ED067A9C
:104D5000F4EEC87AF1EE10FAD0D580ED068ACDE7F0
:104D60003E4B3C4A40F616513B4807F05FF8849BA7
:104D70003BB1B0EE480A326809F104014046FFF742
:104D800073F99FED377A002305E0F068B16807FBFF
:104D900001314254013332689A421DDD09EB83022E
:104DA000D2ED007A37EE277A08EB8302D2ED007A53
:104DB00077EE877AF0EEE77ADFED2A6A67EEA67A79
:104DC000F6EE006A77EEA67AFDEEE77A17EE902A05
:104DD000FF2ADADDFF22D8E784AA08E0D3ED017AC2
:104DE00093ED027A77EE877AC3ED017A1268136841
:104DF000002BF3D1019B0133019301377368BB4250
:104E000016DDDDED017AB8EEE78AF7EE008A78EE7E
:104E1000288A326892000021404607F01EFA326864
:104E2000013292000021484607F017FA84AD4BE7A3
:104E3000514685A8FFF700FF03AB984502D04046D6
:104E400007F01AF80DF5097DBDEC028BBDE8F08F77
:104E500020EF000880F10008E4EC000830EF0008C3
:104E60000000000000007F432DE9F04F2DED048B82
:104E700089B080468B4617469A46F0EE408AB0EEDF
:104E8000608AB0EE419AF0EE619A189E0EB1B1EED2
:104E9000608A00231A46534504DA57F823100A445F
:104EA0000133F8E7013202EB8202900006F0DCFFEA
:104EB0000546002800F09A804FF00009CE464C4687
:104EC000CDF81C80D0466CE09EED017ADCED017AD5
:104ED000B4EEE77AF1EE10FA4CBF4FF0010C4FF050
:104EE000000C4EE09C4600EBCC0CDCED007A67EE4B
:104EF000A87A77EE897AC1ED007ADCED017A67EE67
:104F0000887A77EEA97AC1ED017A00EBC202D2ED80
:104F1000007A67EEA87A77EE897AC1ED027AD2ED4F
:104F2000017A67EE887A77EEA97AC1ED037A0134C7
:104F30001A460133DAF8001099422CDD00EBC20E5C
:104F40009EED017A00EBC30CDCED017AB4EE677ADA
:104F5000F1EE10FAECD004EB840105EB81014FF087
:104F60000009C1F81090002EAED09EED017ADCED64
:104F7000017AB4EEE77AF1EE10FACCBF4FF0010CF3
:104F8000CC46BCF1000FADD04FF0010CC1F810C001
:104F900094461A46A7E7DDF814E0DDF818900EF104
:104FA000010EC6450DDA0BEBC90007EB8E0A57F868
:104FB0002E209144013A0023CDF814E0CDF818904A
:104FC000B8E7DDF81C8021462846FDF7F0FD199B67
:104FD0000293179B0193169B0093012322462946B7
:104FE0004046FFF735FE284606F046FF09B0BDEC07
:104FF000048BBDE8F08F00002DE9F0418CB0002457
:105000000794089409940A940B940194534B1A6BD7
:1050100042F010021A631A6B02F010020192019A18
:1050200002941A6B42F004021A631A6B02F0040233
:105030000292029A03941A6B42F080021A631A6B6E
:1050400002F080020392039A04941A6B42F0010268
:105050001A631A6B02F001020492049A05941A6B07
:1050600042F002021A631A6B02F002020592059ADC
:1050700006941A6B42F008021A631B6B03F00803D4
:105080000693069B364F012241F20101384604F097
:1050900090FC77230793032608960994DFF8CC80C9
:1050A00007A9404604F088FB0823079308940125CC
:1050B000099507A9404604F07FFB43F6DF73079389
:1050C00008960994A8F5006807A9404604F074FB07
:1050D00049F6FF7307930896099407A9214804F03D
:1050E0006BFB202307934FF404130893099507A93A
:1050F000404604F061FB0795089509954FF00208BA
:10510000CDF8288007A9384604F056FB40F6C47352
:1051100007930896099407A9384604F04DFB4FF40D
:105120008053079308950994CDF8288007A938463D
:1051300004F042FB41F64C0307930896099407A933
:10514000094804F039FB22462146172004F00CFBE5
:10515000172004F019FB0CB0BDE8F08100380240C4
:105160000004024000000240000C02400010024017
:105170002DE9F04F83B08A464768D0F830B007EB8E
:105180000B00FCF7EFFF01900D2800F2E480DFE850
:1051900000F007E231E238E216E2E2E2E2E2ACAC31
:1051A0000BF102003844FCF7DDFF0638504540F3B0
:1051B000D980DA440AF1060A17F80A00C8E00BF1B0
:1051C00006003844FCF7CEFF04460BF108003844D3
:1051D000FCF7C8FFA245C0F0C7802044824580F09C
:1051E000C580AAEB04000BEB40000A303844FCF702
:1051F000B9FFADE0614B624A40F2EA51614806F006
:1052000015FE0BF106003844FCF7ACFFC0F34F036A
:1052100001930BF108003844FCF7A4FFC0F34F06DC
:105220000BF10A003844FCF79DFF04460BF10C001B
:105230003844FCF797FFC0F34F050BF10E09BAF5A0
:10524000803F80F2958009EB45057819FCF78AFFCD
:10525000504500DD4D46023D01E0013CA4B254B191
:10526000760805EB460807EB0800FCF77BFF504586
:10527000F3DA4546F1E7AC1CA4EB0904C4F34F0490
:105280006400019E04EB4600584410303844FCF79B
:1052900069FF0546A14407EB0900FCF763FF55458C
:1052A00068DC504568DB06EB460604EB460606EB79
:1052B0000B0010303844FCF755FF58B9019E04EB41
:1052C0008600584410303844FCF752FF1AFA80F038
:1052D00080B23DE0AAEB050500EB45035B44F01806
:1052E00010303844FCF73EFF32E00BF10C0038443C
:1052F000FCF744FF80464FF00009C14527DAA8EBD0
:10530000090409EB640404EB44050BEB850505F186
:1053100010003844FCF732FF064605F1140038440B
:10532000FCF72CFFB24501D2A046E6E7824502D940
:1053300004F10109E1E705F118003844FCF71EFF0C
:10534000019B0C2B04D18244AAEB060000E0002054
:1053500003B0BDE8F08F094B094A40F231610948BA
:1053600006F064FD0020F3E70020F1E70020EFE7FE
:105370000020EDE70020EBE70020E9E7E4ED00087E
:1053800070F20008E4EC00082DE9F04583B0044613
:1053900090461D460A9F066C56B10B9B01930097E1
:1053A0002B46FEF7E9FA0126304603B0BDE8F0854A
:1053B000FEF7B2FCB0F1000AF6DBB8F1000F07D03F
:1053C00060680AF102031844FCF7D2FEC8F8000036
:1053D00035B160680AF104031844FCF7C9FE28607F
:1053E00037B160680AF106031844FCF7C1FE386063
:1053F0000B9B4BB160680AF1080A5044FCF7B8FEF9
:105400000B9B18600126CFE70126CDE708B5036C9A
:1054100013B900F005F808BDFFF736F9FBE7000007
:105420002DE9F04F2DED068B9BB0804691464568E7
:10543000FEF772FC0023C9F80030041EC0F20D8391
:105440002819FCF795FE002806DC0028C0F27B81B5
:105450004FF0000A54466EE104F10A03EE1810966C
:105460004FEA400804EB400404F10A002844FCF72A
:1054700079FE03190C331D44A8F102003044FCF7F7
:1054800071FE461C08EB0600C0EBC000400006F0B1
:10549000EBFC0446002800F0E3820022114610468F
:1054A00009E00139C9B208EB0203C3EBC30304EB03
:1054B000430318730132B2420CDA0029F1D12B46B2
:1054C00013F8010B10F0080F02D069780235EAE7F3
:1054D0001D46E8E70020024603E0794208441880B0
:1054E0000132B2421BDA08EB0203C3EBC30304EB45
:1054F0004303197B11F0020F06D015F8017B11F060
:10550000100FEAD03946E9E711F0100FE7D12F78F4
:10551000697801EB072100FA81F00235DFE700200E
:10552000024603E07942084458800132B2421BDA55
:1055300008EB0203C3EBC30304EB4303197B11F035
:10554000040F06D015F8017B11F0200FEAD0394680
:10555000E9E711F0200FE7D12F78697801EB0721F7
:1055600000FA81F00235DFE74FF0000CCDF838C0CB
:10557000CDF834C0CDF830C0CDF828C0CDF824C067
:10558000CDF82CC0CDF818C0E346CDF81CC0654658
:10559000CDF820806046CDF83CC0CDF844903EE088
:1055A000002D58D118F0010888F001030B9316D193
:1055B0000137C7EBC7077A0004EB47073B7B13F0C3
:1055C000010F5BD1A35E4B44B7F902205244CDF8E2
:1055D0003CA0CDF838904FEA620A4FEA630900F127
:1055E0000108C0EBC00000270197009753464A46C8
:1055F000012104EB4000FCF791FE109A079B02EB9F
:105600004300FCF7AFFD00F1010B079B013307934B
:10561000CDF834A0CDF83090404606970135B5421C
:1056200072DA089B5F19C7EBC70204EB420393F8D9
:105630000C8034F91290B3F902A05D45B0D018F097
:10564000010F3ED1069B1BBBCDF828A0CDF82490BE
:1056500001230693E2E70A9B0593099B04930F9BA2
:1056600003930E9B02930D9B01930C9B00930B9B4A
:10567000069A01462046FCF75BFE93E70135CDF81C
:105680003CA0CDF83890B7F902A034F90290A6E713
:10569000471CC0EBC000099901EB09020A9B03EB10
:1056A0000A0C019300914FEA6C035210032104EBA2
:1056B0004000FCF733FECDF828A0CDF82490384602
:1056C000ACE7069B8BB1471CC0EBC0000A9B019363
:1056D000099B009353464A46032104EB4000FCF724
:1056E0001DFE38460023069398E7471CC0EBC00018
:1056F00000230193009353464A46022104EB4000E5
:10570000FCF70CFE384689E70146DDF83CC0DDF8C1
:1057100044900A9B0593099B0493CDF80CC00E9B03
:1057200002930D9B01930C9B00930B9B069A2046C2
:10573000FCF7FEFD8246C9F8004050461BB0BDECA8
:10574000068BBDE8F08F04F10A00054401264FF0F6
:10575000000A5446CDF818906FE095F9043007EE32
:10576000903AF8EEE77ACDED187A95F9053007EE24
:10577000903AF8EEE77ACDED197A06358CE0BA4B1F
:10578000BA4A40F22E71BA4806F050FB16F0400FAC
:1057900000F097802846FCF7EBFC07EE900AF8EE45
:1057A000E77A9FEDB48A67EE887ACDED147AA81C6B
:1057B000FCF7DEFC07EE900AF8EEE77A67EE887AEF
:1057C000CDED177A04359DED148A28EE087ADDEDCB
:1057D000158A68EEA87A77EE277A17EE900AFAF71C
:1057E00003FF41EC100B09F00DF851EC100BFBF727
:1057F0002BFA0AEE100A9DED169A29EE097ADDEDD4
:10580000179A69EEA97A77EE277A17EE900AFAF7D7
:10581000EBFE41EC100B08F0F5FF51EC100BFBF721
:1058200013FA0AEE900A13AA39464046FFF7EEFD36
:10583000071E00F3028106F02006002E00F00A8108
:105840000023139314AE8C4F0FCF0FC697E80300BD
:1058500086E803002846FCF78BFC0646A81CFCF7EC
:1058600087FC87B2281D16F0020F88D016F0010FB2
:105870003FF473AFFCF77CFC07EE900AF8EEE77A92
:10588000CDED187AA81DFCF773FC07EE900AF8EE30
:10589000E77ACDED197A083516F0080F3FF476AFA8
:1058A0002846FCF765FC07EE900AF8EEE77A9FEDD4
:1058B000717A67EE877ACDED177ACDED147A0235DD
:1058C00081E716F0800F3FF47EAF2846FCF750FCCE
:1058D00007EE900AF8EEE77A9FED668A67EE887A1F
:1058E000CDED147AA81CFCF743FC07EE900AF8EE05
:1058F000E77A67EE887ACDED157A281DFCF738FC3B
:1059000007EE900AF8EEE77A67EE887ACDED167A20
:10591000A81DFCF72DFC07EE900AF8EEE77A67EE7B
:10592000887ACDED177A08354DE71399C2EBC2009E
:1059300001EB400331F910C007EE90CAB3F902C081
:1059400006EE10CAF8EEE77A28EE277AB8EEC66AB5
:1059500069EE066A37EE267ADDED186A37EE267AAA
:1059600027EE0A7ABDEEC77A17EE10CA21F810C0EA
:1059700068EEA77A29EE866A77EE867A9DED197A27
:1059800077EE877A67EEAA7AFDEEE77A17EE901A3D
:105990005980B3F9041007EE901AB3F9061006EE19
:1059A000101AF8EEE77A68EE275AB8EEC66A29EEC2
:1059B000065A75EE855A76EEA56A66EE8A6AFDEE9F
:1059C000E66A16EE901A998068EEA77A29EE866A42
:1059D00077EE867A37EE277A27EE2A7ABDEEC77AF7
:1059E00017EE101AD9800132BA429EDB0AEB070982
:1059F000C9EBC900400006F037FA8346F8B1BAF1A6
:105A0000000F06DD2CB1CAEBCA025200214607F096
:105A1000FAFACAEBCA0AC7EBC7077A0013990BEB6D
:105A20004A0007F0F0FA14B1204606F025FA139860
:105A300006F022FACA465C46FDE60022D4E714B11D
:105A4000204606F019FA139808B106F015FA4FF03F
:105A5000000A72E6DDF818906DE64FF0000A6CE679
:105A60004FF0000A69E600BFE4ED0008B8F1000855
:105A7000E4EC00080000803810EC00082DE9F84341
:105A800005460E4690461F46D0F80490C069223065
:105A90004844FCF767FBB04216DDB8F1000F07D0B1
:105AA000286A00EB86004844FCF762FBC8F8000057
:105AB00047B168682B6A03EB860302331844FCF78E
:105AC00057FB3860BDE8F8830446B8F1000F08D0F2
:105AD000286A631E00EB83004844FCF749FBC8F8C2
