:020000040800F2
:1000000000000220791A000841190008431900086D
:1000100045190008471900084919000800000000A8
:100020000000000000000000000000004B19000864
:100030004D190008000000004F1900085119000870
:10004000C91A0008C91A0008C91A0008C91A000804
:10005000C91A0008C91A0008C91A0008C91A0008F4
:10006000C91A0008C91A0008C91A0008C91A0008E4
:10007000C91A0008C91A0008C91A0008C91A0008D4
:10008000C91A0008C91A0008C91A0008C91A0008C4
:10009000C91A0008C91A0008C91A00085919000825
:1000A000C91A0008C91A0008C91A0008C91A0008A4
:1000B000C91A0008C91A000865190008C91A0008F9
:1000C000C91A0008C91A0008C91A0008C91A000884
:1000D000C91A0008C91A0008C91A0008C91A000874
:1000E000C91A0008C91A0008C91A0008C91A000864
:1000F000C91A0008C91A0008C91A0008C91A000854
:10010000C91A0008C91A0008C91A0008C91A000843
:10011000C91A0008C91A0008C91A0008C91A000833
:10012000C91A0008C91A0008C91A0008C91A000823
:10013000C91A0008C91A0008C91A0008C91A000813
:10014000C91A0008C91A0008C91A0008C91A000803
:10015000C91A0008C91A0008C91A0008C91A0008F3
:10016000C91A0008C91A0008C91A0008C91A0008E3
:10017000C91A0008C91A0008C91A000800000000BE
:08018000C91A0008C91A0008A1
:1001900010B5054C237833B9044B13B10448AFF3C1
:1001A00000800123237010BD280100200000000002
:1001B000E0F2000808B5034B1BB103490348AFF355
:1001C000008008BD000000002C010020E0F20008C3
:1001D00047F63003038002230A0F090130323A2A1E
:1001E00000D30732C25201330A2BF5D170470029E0
:1001F00009DA00B52D2202700130C1F1000100F0D2
:1002000002F8013000BD30B54FF0000505604560D3
:1002100085600E4BA3FB0143DC0822000A2304FB8C
:1002200003F40C1B44F030044453013511460029FB
:10023000EFD120B4013D445D425C4255445401314C
:10024000013D8D4200D0F6DC31BD0000CDCCCCCCE0
:1002500010F8012B11F8013B012A28BF9A42F7D070
:10026000D01A7047034613F8012B002AFBD1181A45
:10027000013870470000000000000000000000008E
:1002800001F0FF01102A2BDB10F0070F08D010F847
:10029000013B013A8B422DD010F0070F42B3F6D14B
:1002A000F0B441EA012141EA014122F007047FF064
:1002B00000070023F0E80256083C85EA010586EABB
:1002C000010685FA47F5A3FA87F586FA47F6A5FAF7
:1002D00087F68EB9EED1F0BC01F0FF0102F0070203
:1002E00032B110F8013B013A83EA010313B1F8D1AE
:1002F0000020704701387047002D06BF354603388F
:10030000073815F0010F07D1013015F4807F02BFC7
:10031000013015F4C03F0130F0BC0138704700BF18
:1003200081F0004102E000BF83F0004330B54FEAA6
:1003300041044FEA430594EA050F08BF90EA020F13
:100340001FBF54EA000C55EA020C7FEA645C7FEAA6
:10035000655C00F0E2804FEA5454D4EB5555B8BFC9
:100360006D420CDD2C4480EA020281EA030382EA3A
:10037000000083EA010180EA020281EA0303362DCC
:1003800088BF30BD11F0004F4FEA01314FF4801C9F
:100390004CEA113102D0404261EB410113F0004FB1
:1003A0004FEA03334CEA133302D0524263EB430368
:1003B00094EA050F00F0A780A4F10104D5F1200E06
:1003C0000DDB02FA0EFC22FA05F2801841F1000161
:1003D00003FA0EF2801843FA05F359410EE0A5F135
:1003E00020050EF1200E012A03FA0EFC28BF4CF066
:1003F000020C43FA05F3C01851EBE37101F000451C
:1004000007D54FF0000EDCF1000C7EEB00006EEB28
:100410000101B1F5801F1BD3B1F5001F0CD34908B2
:100420005FEA30004FEA3C0C04F101044FEA445209
:1004300012F5800F80F09A80BCF1004F08BF5FEA90
:10044000500C50F1000041EB045141EA050130BD70
:100450005FEA4C0C404141EB0101013C28BFB1F582
:10046000801FE9D291F0000F04BF01460020B1FACD
:1004700081F308BF2033A3F10B03B3F120020CDAA0
:100480000C3208DD02F1140CC2F10C0201FA0CF07E
:1004900021FA02F10CE002F11402D8BFC2F1200CE3
:1004A00001FA02F120FA0CFCDCBF41EA0C01904099
:1004B000E41AA2BF01EB0451294330BD6FEA0404E2
:1004C0001F3C1CDA0C340EDC04F11404C4F12002CD
:1004D00020FA04F001FA02F340EA030021FA04F3DF
:1004E00045EA030130BDC4F10C04C4F1200220FA36
:1004F00002F001FA04F340EA0300294630BD21FA74
:1005000004F0294630BD94F0000F83F4801306BF39
:1005100081F480110134013D4EE77FEA645C18BF2D
:100520007FEA655C29D094EA050F08BF90EA020FC4
:1005300005D054EA000C04BF1946104630BD91EABC
:10054000030F1EBF0021002030BD5FEA545C05D1BF
:100550004000494128BF41F0004130BD14F58004FE
:100560003CBF01F5801130BD01F0004545F0FE4172
:1005700041F470014FF0000030BD7FEA645C1ABFA7
:10058000194610467FEA655C1CBF0B46024650EADE
:10059000013406BF52EA033591EA030F41F400210A
:1005A00030BD00BF90F0000F04BF0021704730B590
:1005B0004FF4806404F132044FF000054FF0000165
:1005C00050E700BF90F0000F04BF0021704730B526
:1005D0004FF4806404F1320410F0004548BF4042FB
:1005E0004FF000013EE700BF42004FEAE2014FEA50
:1005F00031014FEA02701FBF12F07F4393F07F4F2B
:1006000081F06051704732F07F4208BF704793F02D
:100610007F4F04BF41F40021704730B54FF4607440
:1006200001F0004521F000411CE700BF50EA010243
:1006300008BF704730B54FF000050AE050EA0102EC
:1006400008BF704730B511F0004502D5404261EB5C
:1006500041014FF4806404F132045FEA915C3FF49D
:10066000D8AE4FF003025FEADC0C18BF03325FEA3A
:10067000DC0C18BF033202EBDC02C2F1200300FAEB
:1006800003FC20FA02F001FA03FE40EA0E0021FA10
:1006900002F11444BDE600BF70B54FF0FF0C4CF4FE
:1006A000E06C1CEA11541DBF1CEA135594EA0C0FB0
:1006B00095EA0C0F00F0DEF82C4481EA030621EAEB
:1006C0004C5123EA4C5350EA013518BF52EA033526
:1006D00041F4801143F4801338D0A0FB02CE4FF0D8
:1006E0000005E1FB02E506F00042E0FB03E54FF008
:1006F0000006E1FB03569CF0000F18BF4EF0010E00
:10070000A4F1FF04B6F5007F64F5407404D25FEAFB
:100710004E0E6D4146EB060642EAC62141EA5551AE
:100720004FEAC52040EA5E504FEACE2EB4F1FD0CF0
:1007300088BFBCF5E06F1ED8BEF1004F08BF5FEA6E
:10074000500E50F1000041EB045170BD06F0004620
:1007500046EA010140EA020081EA0301B4EB5C04CD
:10076000C2BFD4EB0C0541EA045170BD41F48011C5
:100770004FF0000E013C00F3AB8014F1360FDEBFEA
:10078000002001F0004170BDC4F10004203C35DAC6
:100790000C341BDC04F11404C4F1200500FA05F349
:1007A00020FA04F001FA05F240EA020001F00042EA
:1007B00021F0004110EBD37021FA04F642EB060160
:1007C0005EEA430E08BF20EAD37070BDC4F10C048A
:1007D000C4F1200500FA04F320FA05F001FA04F24E
:1007E00040EA020001F0004110EBD37041F100013A
:1007F0005EEA430E08BF20EAD37070BDC4F1200545
:1008000000FA05F24EEA020E20FA04F301FA05F2AC
:1008100043EA020321FA04F001F0004121FA04F254
:1008200020EA020000EBD3705EEA430E08BF20EA24
:10083000D37070BD94F0000F0FD101F0004640005E
:1008400041EB010111F4801F08BF013CF7D041EAE0
:10085000060195F0000F18BF704703F000465200E4
:1008600043EB030313F4801F08BF013DF7D043EAB5
:100870000603704794EA0C0F0CEA135518BF95EA6B
:100880000C0F0CD050EA410618BF52EA4306D1D1F2
:1008900081EA030101F000414FF0000070BD50EA11
:1008A000410606BF1046194652EA430619D094EA9B
:1008B0000C0F02D150EA013613D195EA0C0F05D185
:1008C00052EA03361CBF104619460AD181EA0301D9
:1008D00001F0004141F0FE4141F470014FF0000091
:1008E00070BD41F0FE4141F4780170BD70B54FF02C
:1008F000FF0C4CF4E06C1CEA11541DBF1CEA1355AC
:1009000094EA0C0F95EA0C0F00F0A7F8A4EB05048D
:1009100081EA030E52EA03354FEA013100F0888084
:100920004FEA03334FF0805545EA131343EA12634D
:100930004FEA022245EA111545EA10654FEA002602
:100940000EF000419D4208BF964244F1FD0404F5BB
:10095000407402D25B084FEA3202B61A65EB030517
:100960005B084FEA32024FF480104FF4002CB6EBD4
:10097000020E75EB030E22BFB61A754640EA0C0054
:100980005B084FEA3202B6EB020E75EB030E22BF94
:10099000B61A754640EA5C005B084FEA3202B6EBD5
:1009A000020E75EB030E22BFB61A754640EA9C0094
:1009B0005B084FEA3202B6EB020E75EB030E22BF64
:1009C000B61A754640EADC0055EA060E18D04FEA22
:1009D000051545EA16754FEA06164FEAC30343EAC2
:1009E00052734FEAC2025FEA1C1CC0D111F4801F8F
:1009F0000BD141EA00014FF000004FF0004CB6E788
:100A000011F4801F04BF01430020B4F1FD0C88BF26
:100A1000BCF5E06F3FF6AFAEB5EB030C04BFB6EB31
:100A2000020C5FEA500C50F1000041EB045170BD24
:100A30000EF0004E4EEA113114EB5C04C2BFD4EB51
:100A40000C0541EA045170BD41F480114FF0000ED5
:100A5000013C90E645EA060E8DE60CEA135594EA51
:100A60000C0F08BF95EA0C0F3FF43BAF94EA0C0F54
:100A70000AD150EA01347FF434AF95EA0C0F7FF4C9
:100A800025AF104619462CE795EA0C0F06D152EA1D
:100A900003353FF4FDAE1046194622E750EA410601
:100AA00018BF52EA43067FF4C5AE50EA41047FF412
:100AB0000DAF52EA43057FF4EBAE12E74FF0FF3C77
:100AC00006E000BF4FF0010C02E000BF4FF0010C48
:100AD0004DF804CD4FEA410C7FEA6C5C4FEA430CC1
:100AE00018BF7FEA6C5C1BD001B050EA410C0CBF10
:100AF00052EA430C91EA030F02BF90EA020F002072
:100B0000704710F1000F91EA030F58BF994208BFD8
:100B100090422CBFD8176FEAE37040F00100704795
:100B20004FEA410C7FEA6C5C02D150EA013C07D1EC
:100B30004FEA430C7FEA6C5CD6D152EA033CD3D037
:100B40005DF8040B704700BF8446104662468C4631
:100B50001946634600E000BF01B5FFF7B7FF002864
:100B600048BF10F1000F01BD4DF808EDFFF7F4FF8D
:100B70000CBF012000205DF808FB00BF4DF808ED18
:100B8000FFF7EAFF34BF012000205DF808FB00BF3B
:100B90004DF808EDFFF7E0FF94BF012000205DF85D
:100BA00008FB00BF4DF808EDFFF7CEFF94BF012012
:100BB00000205DF808FB00BF4DF808EDFFF7C4FF0B
:100BC00034BF012000205DF808FB00BF4FEA410C54
:100BD0007FEA6C5C02D150EA013C0AD14FEA430C37
:100BE0007FEA6C5C02D152EA033C02D14FF0000074
:100BF00070474FF0010070474FEA410212F50012B2
:100C000015D211D56FF47873B3EB625212D94FEA53
:100C1000C12343F0004343EA505311F0004F23FA3D
:100C200002F018BF404270474FF00000704750EA92
:100C3000013005D111F0004008BF6FF0004070474F
:100C40004FF00000704700BF4FEA4102B2F1E043AD
:100C500024BFB3F5001CDCF1FE5C0DD901F0004CA3
:100C60004FEAC0024CEA5070B2F1004F40EB8300F3
:100C700008BF20F00100704711F0804F21D113F11F
:100C80003872BCBF01F00040704741F480114FEA58
:100C90005252C2F11802C2F1200C10FA0CF320FAE1
:100CA00002F018BF40F001004FEAC1234FEAD323FE
:100CB00003FA0CFC40EA0C0023FA02F34FEA430368
:100CC000CCE77FEA625307D150EA01331EBF4FF0F1
:100CD000FE4040F44000704701F0004040F0FE400C
:100CE00040F40000704700BF7BB972B90029BEBF55
:100CF00000204FF0004106E008BF00281CBF6FF045
:100D000000414FF0FF3000F0D3B9ADF1080C6DE9B0
:100D100004CE002909DB002B1ADB00F04DF8DDF8CA
:100D200004E0DDE9022304B07047404261EB410179
:100D3000002B1BDB00F040F8DDF804E0DDE90223C6
:100D400004B0404261EB4101524263EB4303704700
:100D5000524263EB430300F02FF8DDF804E0DDE9D5
:100D6000022304B0404261EB41017047524263EB01
:100D7000430300F021F8DDF804E0DDE9022304B0CC
:100D8000524263EB4303704753B94AB9002908BF85
:100D900000281CBF4FF0FF314FF0FF3000F088B942
:100DA000ADF1080C6DE904CE00F006F8DDF804E0C2
:100DB000DDE9022304B070472DE9F047089D8E4617
:100DC00004468846002B4AD18A42174662D9B2FAB5
:100DD00082F64EB1C6F1200301FA06F820FA03F3B9
:100DE000B74043EA0808B4404FEA174E1FFA87FCA1
:100DF000B8FBFEF1230C0EFB118843EA084301FB0C
:100E00000CF29A4209D9FB1801F1FF3080F0EA8018
:100E10009A4240F2E78002393B449A1AA3B2B2FBED
:100E2000FEF00EFB102243EA024300FB0CFC9C4543
:100E300009D9FB1800F1FF3280F0D6809C4540F2C2
:100E4000D3803B44023840EA0140A3EB0C0300216D
:100E50001DB1F3400022C5E90032BDE8F0878B42A6
:100E600005D90DB1C5E9000100210846F5E7B3FA3F
:100E700083F1002946D1734502D3824200F20581F5
:100E8000841A6EEB030201209046002DE5D0C5E9DF
:100E90000048E2E7002A00F09080B2FA82F6002EC5
:100EA00040F0A4808A1A030C4FEA174E80B2BCB2FD
:100EB0000121B2FBFEFC0EFB1C2243EA024304FBB1
:100EC0000CF29A4207D9FB180CF1FF3802D29A4271
:100ED00000F2E080C4469B1AB3FBFEF20EFB123315
:100EE00040EA034302FB04F49C4207D9FB1802F1D9
:100EF000FF3002D29C4200F2CA8002461B1B42EA2B
:100F00000C40A5E7C1F120068B4022FA06F71F43EB
:100F10000EFA01F420FA06F32EFA06FE4FEA1749FC
:100F2000234300FA01F81FFA87FCBEFBF9F01C0C02
:100F300009FB10EE44EA0E4400FB0CFEA64502FA43
:100F400001F209D93C1900F1FF3A80F09C80A645D6
:100F500040F2998002383C44A4EB0E041FFA83FE51
:100F6000B4FBF9F309FB13444EEA044403FB0CFC05
:100F7000A44508D93C1903F1FF3E80F08280A445C6
:100F80007FD9023B3C4443EA0040A4EB0C04A0FBA5
:100F900002EC64457346E14662D35FD05DB1B8EBC5
:100FA000030264EB090404FA06F622FA01F31E4375
:100FB000CC40C5E9006400214FE7B1FBF2FC010C15
:100FC00041EA0E4180B240EA01423B4638463C4687
:100FD000B846BE462026B1FBF7F1A2EB080241EA73
:100FE0000C4166E7014618E710462CE7C6F12002DF
:100FF0002EFA02F3B740B14020FA02F24FEA174E40
:101000000A43B3FBFEF8BCB20EFB1833110C41EAE5
:10101000034108FB04F9B04089454FEA104380B210
:101020003ED9791808F1FF3C01D289451FD8A1EBC0
:101030000901B1FBFEF909FB04F80EFB191192B28C
:1010400042EA0142424529D2BA1809F1FF31C4D21D
:101050004245C2D2A9F102013A44BEE7F0459DD211
:10106000BEEB02036CEB070C0138E14696E7A7EBF9
:1010700009094944A8F1020CB1FBFEF909FB04F887
:10108000DBE773467FE7504666E70846FDE63B44EC
:10109000023A33E7ACF1020C3B441CE749469CE7BB
:1010A000A1EB0901C446B1FBFEF909FB04F8C4E752
:1010B000704700BF2DE9F0418CB0002407940894DC
:1010C00009940A940B940194534B1A6B42F010024A
:1010D0001A631A6B02F010020192019A02941A6BC1
:1010E00042F004021A631A6B02F004020292029A9E
:1010F00003941A6B42F080021A631A6B02F08002AA
:101100000392039A04941A6B42F001021A631A6B59
:1011100002F001020492049A05941A6B42F0020252
:101120001A631A6B02F002020592059A06941A6B72
:1011300042F008021A631B6B03F008030693069B38
:10114000364F012241F20101384600F09EFE77231E
:101150000793032608960994DFF8CC8007A9404638
:1011600000F096FD0823079308940125099507A927
:10117000404600F08DFD43F6DF730793089609940F
:10118000A8F5006807A9404600F082FD49F6FF7304
:1011900007930896099407A9214800F079FD2023B8
:1011A00007934FF404130893099507A9404600F0EC
:1011B0006FFD0795089509954FF00208CDF8288036
:1011C00007A9384600F064FD40F6C47307930896FB
:1011D000099407A9384600F05BFD4FF4805307934C
:1011E00008950994CDF8288007A9384600F050FDED
:1011F00041F64C0307930896099407A9094800F0A3
:1012000047FD22462146172000F01AFD172000F066
:1012100027FD0CB0BDE8F081003802400004024018
:1012200000000240000C02400010024072B6FEE7CF
:1012300010B58EB000230793089309930A930B937C
:101240000C930D93009301930293039304930593DE
:10125000069319484FF02042026002F58272426004
:101260008360C3600361102242618361C3610362D2
:1012700043624FF480518162C3624FF48041016345
:101280004363836343640F23079308933C210991CD
:101290000B9211210C9104240094019305230293D5
:1012A000049205916A4607A901F0EBFF08B90EB058
:1012B00010BDFFF7BBFF00BF6401002008B5044864
:1012C000044B036001F0BAF900B908BDFFF7AEFFA7
:1012D0005C0300200008065008B50948094B03606C
:1012E000002343607F228260FF22C260036143616A
:1012F000836101F04FFA00B908BDFFF797FF00BF07
:101300003C0300200028004008B50D480D4B036049
:101310004FF48273436000238360C36003614361C1
:101320004FF400728261C3610362436283620A23E5
:10133000C36201F079FC00B908BDFFF777FF00BF79
:10134000E40200200030014000B583B00023009388
:1013500001930E480E4A026042F2CF02426083605F
:101360004FF6FF72C260836102F0FAF950B90023B0
:10137000009301936946054802F00EFC20B903B0C2
:101380005DF804FBFFF752FFFFF750FFB4010020A8
:101390000010004008B50D480D4B03604FF48273F8
:1013A000436000238360C360036143614FF40072B4
:1013B00082612022C2610362436283620A23C362A4
:1013C00001F032FC00B908BDFFF730FF8C020020AD
:1013D0000038004000B58FB000230A930B930C93A4
:1013E0000D93089309930193029303930493059338
:1013F000069307931F48204A0260022242608360DE
:101400004FF6FF72C26003618023836102F0A8F986
:1014100028BB4FF480530A930AA9164802F0ABFA8E
:10142000F8B9144802F0C8F9E8B900230893099301
:1014300008A9104802F0B0FBB8B96023019300235B
:101440000293039305930C2201A90A4802F018FAAB
:1014500068B9084800F046FA0FB05DF804FBFFF7E2
:10146000E5FEFFF7E3FEFFF7E1FEFFF7DFFEFFF724
:10147000DDFE00BF440200200004004000B587B03C
:10148000002302930393049305930093019314485C
:10149000144A026042F2CF024260836041F2873216
:1014A000C2600361836102F05BF990B94FF480532D
:1014B000029302A90A4802F05EFA60B90023009381
:1014C00001936946064802F067FB30B907B05DF842
:1014D00004FBFFF7ABFEFFF7A9FEFFF7A7FE00BF77
:1014E000FC0100200008004000B595B0302200212A
:1014F00008A80BF024FA00230393049305930693A2
:1015000007930193214A116C41F080511164126CD0
:1015100002F080520192019A02931D4B1A6842F424
:1015200080421A601B6803F480430293029B0523E8
:1015300008934FF48033099301230A9302230E93F7
:101540004FF480020F9204221092A822119212935B
:101550000723139308A800F0ADFC98B90F23039359
:1015600002230493002305934FF4A05306934FF4F2
:1015700080530793052103A800F006FF20B915B09A
:101580005DF804FBFFF752FEFFF750FE0038024003
:101590000070004038B500F0BFFAFFF7A5FFFFF775
:1015A00089FDFFF745FEFFF789FEFFF795FEFFF780
:1015B000ABFEFFF7C9FEFFF7EDFEFFF70BFFFFF7EE
:1015C0005DFF07F02DFA07F01DFA214801F092FFA8
:1015D000204C0C21204602F05DFA1F4D02212846C6
:1015E00001F032FA1D4B18700321284601F02CFA45
:1015F0001B4B187007F046F923684FF6FF741C6404
:1016000007F0D6FA0AF0CAFA07F00AFA154B18786A
:101610000AF07CFA072007F07DFA06E0012000F0CE
:10162000A7FA0C4B1B681C64203C002CF6DC002045
:101630000AF04CFA4FF4FA7000F09AFA07F0EAFA5E
:1016400007F048FB07F0E6FB08F0EEFFFAE700BF03
:10165000FC010020440200203C030020FF03002086
:10166000FD0300207F030020F0B587B00023019325
:101670000293039304930593164B1B680BB107B0B9
:10168000F0BD144B01221A6000260096124B9A6B93
:1016900042F001029A639B6B03F001030093009BED
:1016A0004FF68073019302270297032504950C24BB
:1016B000059401A9094800F0EBFA4EF2B3730193C7
:1016C000029703960495059401A9054800F0E0FAF5
:1016D000D5E700BF6C030020003802400010024034
:1016E000000C024082B0002100910B4B5A6C42F476
:1016F00080425A645A6C02F480420092009A01912E
:101700001A6C42F080521A641B6C03F080530193F0
:10171000019B02B0704700BF003802400268094BCD
:101720009A4200D0704782B000230193064B5A6B57
:1017300042F040025A635B6B03F040030193019B4C
:1017400002B07047000806500038024000B585B06E
:101750000023009301930293039302680B4B9A4278
:1017600002D005B05DF804FB022300934FF48073B0
:101770000393684600F0B8FE20B9054B0122C3F878
:101780003C2EEEE7FFF752FDF7E700BF00280040D0
:101790000000474200B58BB00023059306930793E2
:1017A000089309930368284A934205D0274A934235
:1017B00025D00BB05DF804FB00210191244B5A6C3D
:1017C00042F480525A645A6C02F480520192019A97
:1017D00002911A6B42F002021A631B6B03F00203C0
:1017E0000293029B38230593022306930323089355
:1017F0000523099305A9174800F04AFAD9E7002103
:101800000391134B1A6C42F480421A641A6C02F46E
:1018100080420392039A04911A6B42F002021A6307
:101820001B6B03F002030493049B4FF46043059386
:1018300002230693032308930523099305A905486A
:1018400000F026FAB5E700BF003001400038004044
:10185000003802400004024000B585B003681D4A0C
:10186000934208D01C4A934212D01C4A934223D080
:1018700005B05DF804FB00230193194B1A6C42F08C
:1018800002021A641B6C03F002030193019BEFE751
:1018900000210291124B1A6C42F004021A641B6C74
:1018A00003F004030293029B0A461E2000F0C8F9CD
:1018B0001E2000F0D5F9DBE700230393084B1A6CD8
:1018C00042F010021A641B6C03F010030393039B95
:1018D000CEE700BF000400400008004000100040B8
:1018E0000038024000B587B00023019302930393B0
:1018F0000493059302680D4B9A4202D007B05DF83D
:1019000004FB002300930A4B1A6B42F002021A6395
:101910001B6B03F002030093009B022301930293CD
:10192000059301A9034800F0B3F9E7E7000400407C
:10193000003802400004024008B5FFF795FE08BDDC
:10194000FEE7FEE7FEE7FEE7FEE7704770477047F9
:1019500008B500F0FBF808BD08B5202000F09CFA9F
:1019600008BD000010B50D4C204601F0E2FD2046F8
:1019700001F0C0FD0A4A136823F001031360094C0B
:1019800023880C2224219E2002F03AFA23880C227C
:101990004E219E2002F034FA10BD00BFFC01002051
:1019A00000080040220400200120704708B50BF019
:1019B00065FE162303604FF0FF3008BD08B54FF0F9
:1019C000FF31FFF7F3FFFEE770B50C461646002522
:1019D00006E0AFF30080214601F8010B01350C460B
:1019E000B542F6DB304670BD70B50C461646002594
:1019F00004E014F8010BAFF300800135B542F8DBC9
:101A0000304670BD4FF0FF3070474FF400534B60CD
:101A100000207047012070470020704710B5034632
:101A20000C4A0D490D48006840B10C480068034459
:101A3000521A934206D8094A136010BD0748084C51
:101A40000460F2E70BF01AFE0C2303604FF0FF3046
:101A5000F3E700BF0000022000080000740300202C
:101A6000781A0020034AD2F8883043F47003C2F891
:101A70008830704700ED00E0DFF834D0FFF7F2FF68
:101A80000C480D490D4A002302E0D458C4500433D9
:101A9000C4188C42F9D30A4A0A4C002301E01360AF
:101AA0000432A242FBD30BF0EFFDFFF773FD70474A
:101AB0000000022000000020280100204818030830
:101AC00028010020741A0020FEE7000010B504462B
:101AD0000E4B1A784FF47A73B3FBF2F30C4A10688A
:101AE000B0FBF3F000F0C0F868B90F2C01D9012069
:101AF0000AE0002221464FF0FF3000F0A1F8054B2C
:101B00001C60002000E0012010BD00BF0800002084
:101B1000040000200C00002008B50B4B1A6842F4AA
:101B200000721A601A6842F480621A601A6842F4FD
:101B300080721A60032000F071F80020FFF7C6FFE2
:101B4000FFF7D0FD002008BD003C0240034A1168A9
:101B5000034B1B780B441360704700BF78030020D1
:101B600008000020014B1868704700BF7803002070
:101B700038B50446FFF7F6FF0546B4F1FF3F02D043
:101B8000044B1B781C44FFF7EDFF401BA042FAD327
:101B900038BD00BF08000020002807DB00F01F024E
:101BA000400901239340024A42F82030704700BFA9
:101BB00000E100E0002808DB0901C9B200F1604043
:101BC00000F5614080F80013704700F00F00090134
:101BD000C9B2014B1954704714ED00E000B500F094
:101BE0000700C0F1070CBCF1040F28BF4FF0040C34
:101BF000031D062B0FD9C31E4FF0FF3E0EFA0CF04B
:101C000021EA000199400EFA03FE22EA0E0241EA9F
:101C100002005DF804FB0023EEE70000074AD368EA
:101C200023F4E0631B041B0C000200F4E060034398
:101C300043F0BF6343F40033D360704700ED00E02E
:101C400010B50446054BD868C0F30220FFF7C6FF65
:101C500001462046FFF7AEFF10BD00BF00ED00E0DB
:101C600008B5FFF799FF08BD0138B0F1807F0BD2AE
:101C70004FF0E0235861054AF02182F8231000203C
:101C8000986107221A6170470120704700ED00E05B
:101C900000230F2B00F2E98070B582B065E0856803
:101CA0004FEA430E032404FA0EF425EA0405CC6837
:101CB00004FA0EF42C438460446824EA02044A685F
:101CC000C2F300129A40224342605CE0DC08083410
:101CD00050F8242003F00705AD004FF00F0E0EFA68
:101CE00005FE22EA0E0E0A69AA4042EA0E0240F8F8
:101CF00024205CE0072200E0002202FA0EF22A43D0
:101D000002345A4D45F82420594A94686FEA0C026F
:101D100024EA0C054E6816F4801F01D04CEA040535
:101D2000534CA560E46802EA04054E6816F4001FEF
:101D300001D04CEA04054E4CE560646802EA0405F3
:101D40004E6816F4003F01D04CEA0405484C65602B
:101D5000246822404D6815F4803F01D04CEA04020B
:101D6000434C226001330F2B7DD801229A400C682E
:101D700004EA020C32EA0404F4D14C6804F00304CF
:101D8000013C012C8BD94A6802F00302032A09D0D6
:101D9000C4685D000322AA4024EA02048A68AA40BB
:101DA0002243C2604A6802F00302022A8ED004680D
:101DB0004FEA430E032202FA0EF224EA02044A68B2
:101DC00002F0030202FA0EF2224302604A6812F4A1
:101DD000403FC7D000220192264A546C44F480440C
:101DE0005464526C02F480420192019A9C08A51C32
:101DF0001E4A52F8255003F0030E4FEA8E0E0F22B2
:101E000002FA0EF225EA02051B4A90423FF474AF33
:101E100002F5806290421AD002F58062904218D09A
:101E200002F58062904216D002F58062904214D092
:101E300002F58062904212D002F58062904210D08A
:101E400002F5806290423FF455AF082255E7012227
:101E500053E7022251E703224FE704224DE7052210
:101E60004BE7062249E702B070BD704700380140D9
:101E7000003C014000380240000002400369194262
:101E800001D001207047002070470AB1816170477E
:101E9000090481617047704708B5054B5B690342CF
:101EA00000D108BD024B5861FFF7F5FFF9E700BF0D
:101EB000003C0140002800F0E08170B582B004468B
:101EC000036813F0010F3BD09F4B9B6803F00C039A
:101ED000042B2CD09C4B9B6803F00C03082B21D0C7
:101EE0006368B3F5803F4FD0B3F5A02F52D0964B27
:101EF0001A6822F480321A601A6822F480221A606A
:101F00006368002B50D0FFF72DFE05468E4B1B68F3
:101F100013F4003F14D1FFF725FE401B6428F5D9C8
:101F20000320B1E1884B5B6813F4800FD8D0864B57
:101F30001B6813F4003F03D06368002B00F09F81FF
:101F4000236813F0020F54D07F4B9B6813F00C0FE3
:101F50003ED07D4B9B6803F00C03082B33D0E36825
:101F6000002B68D0794B01221A60FFF7FBFD054674
:101F7000754B1B6813F0020F54D1FFF7F3FD401BA4
:101F80000228F5D903207FE16F4A136843F48033B8
:101F90001360B5E76C4B1A6842F480221A601A6825
:101FA00042F480321A60ABE7FFF7DCFD0546664B72
:101FB0001B6813F4003FC3D0FFF7D4FD401B642817
:101FC000F5D9032060E1604B5B6813F4800FC6D144
:101FD0005D4B1B6813F0020F03D0E368012B40F048
:101FE0005081594A136823F0F803216943EAC10379
:101FF0001360236813F0080F42D063696BB3534B2F
:102000000122C3F8802EFFF7ADFD05464E4B5B6FF6
:1020100013F0020F34D1FFF7A5FD401B0228F5D9BC
:10202000032031E1484A136823F0F803216943EAA9
:10203000C1031360DDE7454B00221A60FFF792FDF4
:102040000546414B1B6813F0020FD2D0FFF78AFD03
:10205000401B0228F5D9032016E13C4B0022C3F8AF
:10206000802EFFF77FFD0546374B5B6F13F0020FA5
:1020700006D0FFF777FD401B0228F5D9032003E1C6
:10208000236813F0040F77D02F4B1B6C13F0805F85
:1020900033D1002301932C4B1A6C42F080521A6406
:1020A0001B6C03F080530193019B0125284B1B6897
:1020B00013F4807F23D0A368012B34D0052B38D0B4
:1020C000214B1A6F22F001021A671A6F22F00402E4
:1020D0001A67A368002B3DD0FFF744FD06461A4B54
:1020E0001B6F13F0020F46D1FFF73CFD801B41F23E
:1020F00088339842F3D90320C6E00025D6E7144A76
:10210000136843F480731360FFF72CFD0646104BF1
:102110001B6813F4807FCED1FFF724FD801B0228BB
:10212000F5D90320B0E0084A136F43F001031367A9
:10213000CFE7054B1A6F42F004021A671A6F42F09C
:1021400001021A67C5E700BF00380240000047429D
:1021500000700040FFF706FD0646524B1B6F13F060
:10216000020F08D0FFF7FEFC801B41F28833984233
:10217000F3D9032088E0EDB9A369002B00F0838038
:10218000484A926802F00C02082A51D0022B17D05C
:10219000454B00221A66FFF7E5FC0446414B1B68DD
:1021A00013F0007F42D0FFF7DDFC001B0228F5D9B9
:1021B000032069E03B4A136C23F080531364DBE790
:1021C000394B00221A66FFF7CDFC0546354B1B68DC
:1021D00013F0007F06D0FFF7C5FC401B0228F5D99D
:1021E000032051E0E369226A1343626A43EA8213DF
:1021F000A26A5208013A43EA0243E26A43EA0263EE
:10220000284A5360284B01221A66FFF7ABFC0446AC
:10221000244B1B6813F0007F06D1FFF7A3FC001BC3
:102220000228F5D903202FE000202DE000202BE02C
:10223000012B2BD01B4B5B6803F48001E2699142B8
:1022400026D103F03F02216A8A4223D1616A47F610
:10225000C0721A40B2EB811F1ED103F44031A26A52
:102260005208013AB1EB024F18D103F07063E26AF1
:10227000B3EB026F14D1002006E00120704701206B
:1022800002E0012000E0002002B070BD0120FBE769
:102290000120F9E70120F7E70120F5E70120F3E746
:1022A0000120F1E7003802400000474208B5334BF7
:1022B0009B6803F00C03042B5BD0082B5BD12F4BE6
:1022C0005A6802F03F025B6813F4800F2CD02B4B4E
:1022D0005868C0F388104FEA401CBCEB000C6EEB52
:1022E0000E0E4FEA8E1343EA9C634FEA8C11B1EB5A
:1022F0000C0163EB0E03DB0043EA5173C90011EBE1
:10230000000C43F10003590200234FEA4C2041EA3C
:10231000DC51FEF739FD194B5B68C3F30143013310
:102320005B00B0FBF3F008BD144B5868C0F3881095
:102330004FEA401CBCEB000C6EEB0E0E4FEA8E1306
:1023400043EA9C634FEA8C11B1EB0C0163EB0E0383
:10235000DB0043EA5173C90011EB000C43F10003A9
:10236000990200234FEA8C2041EA9C51FEF70CFDB4
:10237000D1E70348D7E70348D5E700BF003802405C
:1023800000127A000024F400002800F09B8070B551
:102390000D4604464F4B1B6803F007038B4208D2DF
:1023A000CBB24C4A1370136803F007038B4240F022
:1023B0008B80236813F0020F17D013F0040F04D0A2
:1023C000454A936843F4E0539360236813F0080F81
:1023D00004D0414A936843F4604393603E4A936853
:1023E00023F0F003A1680B439360236813F0010FFF
:1023F00032D06368012B21D09A1E012A25D9364A92
:10240000126812F0020F61D033498A6822F0030289
:1024100013438B60FFF7A6FB06462F4B9B6803F028
:102420000C036268B3EB820F16D0FFF79BFB801B97
:1024300041F288339842F0D9032042E0264A1268DC
:1024400012F4003FE0D101203BE0234A126812F071
:10245000007FD9D1012034E01E4B1B6803F0070335
:10246000AB4207D9EAB21B4B1A701B6803F0070393
:10247000AB422DD1236813F0040F06D0164A93689F
:1024800023F4E053E1680B439360236813F0080FD3
:1024900007D0114A936823F46043216943EAC103DA
:1024A0009360FFF703FF0C4B9B68C3F303130B4AC6
:1024B000D35CD8400A4B18600A4B1868FFF706FB3C
:1024C000002070BD012070470120FAE70120F8E7E5
:1024D0000120F6E7003C02400038024050F30008BB
:1024E000040000200C00002030B583B004460368CF
:1024F00013F0050F06D1236813F0020F2ED1002030
:1025000003B030BD4A4B00229A66FFF72BFB05460D
:10251000484B1B6813F0006F06D0FFF723FB431BEB
:10252000022BF5D90320EBE76268A3681B0743EA97
:102530008213404AC2F884303D4B01229A66FFF76D
:1025400011FB05463B4B1B6813F0006FD3D1FFF71F
:1025500009FB431B022BF5D90320D1E7002301938C
:10256000344B1A6C42F080521A641B6C03F0805397
:102570000193019B304A136843F480731360FFF7A3
:10258000F1FA05462C4B1B6813F4807F06D1FFF748
:10259000E9FA431B022BF5D90320B1E7254B1B6F4A
:1025A00013F4407314D0E26802F440729A420FD0E0
:1025B000204B1A6F22F440721D490120C1F8400ED1
:1025C0000020C1F8400E1A671B6F13F0010F13D1E2
:1025D000E36803F44072B2F5407F1ED0154A936859
:1025E00023F4F813936013490B6FE268C2F30B02F4
:1025F00013430B67002083E7FFF7B4FA05460D4B42
:102600001B6F13F0020FE3D1FFF7ACFA401B41F24E
:1026100088339842F3D9032072E706498A6822F486
:10262000F81223F0704323F4407313438B60DAE70E
:1026300000004742003802400070004098B110B5D9
:10264000044643795BB1022363712268136843F047
:1026500004031360012363710020A06010BD0371A7
:10266000FFF75CF8EFE701207047F8B50379012B1D
:1026700030D004460E46012303714579EDB29D42E8
:1026800006D0042383600125002323712846F8BD6A
:1026900002234371FFF766FA074623685A6812F06F
:1026A000010F10D1FFF75EFAC01B0228F5D923688D
:1026B0005B6813F0010FF0D1012363710223A36063
:1026C00000232371E2E79B68E360336001236371B9
:1026D0000025D9E70225D9E710B5044600F10C0121
:1026E000FFF7C3FF08B9E06810BD0020FCE7000059
:1026F00038B5044603680A4ADA60FFF733FA05463C
:102700002368DB6813F0200F07D1FFF72BFA401B7B
:10271000B0F57A7FF4D9032000E0002038BD00BF77
:102720005F7F010070B50368DA6812F0400F02D0D5
:102730000025284670BD0446DA6842F08002DA605F
:10274000FFF710FA064600252368DB6813F0400FF8
:10275000EFD1002DEDD1FFF705FA831BB3F57A7F9A
:10276000F2D9042363770125EEE70268D36823F0EA
:102770008003D36003689B6813F0200F01D0002012
:10278000704710B50446FFF7B3FF10B10423637719
:10279000012010BD00284AD010B50446437F53B134
:1027A000022363772368DA6812F0100F07D0002045
:1027B0000123637710BD0377FEF7C8FFF0E7CA2255
:1027C0005A62236853225A622046FFF7ABFF28B1B2
:1027D0002368FF225A620028ECD1E9E72268936857
:1027E00023F4E00323F04003936021688A68636860
:1027F000206903436069034313438B602368E268E5
:102800001A6122681369A16843EA014313612046F3
:10281000FFF7ABFF0028DBD12268136C23F4802381
:1028200013642268136CA1690B431364D0E7012081
:102830007047002302E001330A38C0B20928FAD8F1
:102840001B01DBB218437047037F012B5AD070B5D0
:1028500004460E46012303770223437732BB036805
:102860009B6813F0400F01D10023CB703078FFF745
:10287000E0FF05047078FFF7DCFF45EA0025B0783B
:10288000FFF7D7FF0543F37845EA83552368CA224B
:102890005A62236853225A622046FFF743FFB8B1B9
:1028A0002368FF225A620023237770BD03689B6868
:1028B00013F0400F01D10023CB70337875782D02CF
:1028C00045EA0345B3781D43F37845EA8355DDE7D0
:1028D000236805F07F3525F0FE451D60226893686A
:1028E00023F48023936021688B68F2683069024387
:1028F00013438B602046FFF738FF0028D0D1012317
:102900006377CDE702207047037F012B48D070B575
:1029100004460E460123037702234377CAB1CB78DE
:102920004D782D0245EA03458B781D430B7845EA27
:1029300043352368CA225A62236853225A622046CA
:10294000FFF7F0FEF0B12368FF225A6200232377DD
:1029500070BD4B7813F0100F03D003F0EF030A3370
:102960004B70F078FFF765FF05047078FFF761FFA3
:1029700045EA0025B078FFF75CFF0543337845EA68
:102980004335D6E7236825F07F4525F0C0055D6017
:102990002046FFF7EAFE0028D5D101236377D2E76E
:1029A00002207047030903EB830300F00F0000EBE4
:1029B0004300C0B2704770B503689B6A4B60036800
:1029C0001B69C3F30E038B6003681B68C3F30540E8
:1029D0000870C3F306264E7003F07F058D70C3F3B5
:1029E0008053CB705AB90C46FFF7DCFF207030469D
:1029F000FFF7D8FF60702846FFF7D4FFA0700020D3
:102A000070BD70B503685B68C3F30740C870C3F35B
:102A100004264E7003F03F058D70C3F342330B70F4
:102A20005AB90C46FFF7BEFFE0703046FFF7BAFF19
:102A300060702846FFF7B6FFA070002070BD0368E5
:102A4000503343F8212070470368503353F8210076
:102A5000704700002DE9F04782B0054688461746CA
:102A60001E46FFF77FF80A9B1B1A03EB0609FFF7C8
:102A700079F88246284B1B68C3F3CB3309FB03F379
:102A800001932B689C6838EA04040CBF01230023DF
:102A9000BB423DD0B6F1FF3FF3D0FFF763F8A0EBA8
:102AA0000A00484503D2019B73BB9946E9E72A68AF
:102AB000536823F0E00353606B68B3F5827F0BD05B
:102AC000AB6AB3F5005F14D0012385F851300023C1
:102AD00085F8503003201CE0AB68B3F5004F02D0FE
:102AE000B3F5806FECD12A68136823F040031360BC
:102AF000E6E72A68136823F4005313602A68136812
:102B000043F400531360DFE7019B013B0193B8E7F7
:102B1000002002B0BDE8F0870400002070B584B04A
:102B200004460D46164600920B4601220221FFF78D
:102B300091FFD0B9174B1B68174AA2FB03235B0D0B
:102B40004FF47A7202FB03F303936368B3F5827F59
:102B500011D0039B3BB1039B013B039323689B680C
:102B600013F0800FF5D104B070BD636D43F0200306
:102B700063650320F7E700962B460022802120465C
:102B8000FFF768FF0028EED0636D43F02003636514
:102B90000320E8E704000020819F5E1610B582B094
:102BA00004460B464168B1F5827F14D06168B1F5E7
:102BB000827F2AD1A168B1F5806F19D000920022DE
:102BC00080212046FFF746FF30B3636D43F02003BA
:102BD0006365032020E08168B1F5004F02D0B1F5B4
:102BE000806FE3D12068016821F040010160DDE7DA
:102BF0000092002201212046FFF72CFF60B1636D97
:102C000043F020036365032006E0009200220121C7
:102C10002046FFF71FFF08B902B010BD636D43F0F7
:102C2000200363650320F7E700285AD010B5044657
:102C3000436A33B94368B3F5827F05D00023C3618B
:102C400002E00023036143610023A36294F8513042
:102C5000002B40D0022384F851302268136823F0FF
:102C600040031360636803F48273A26802F40442B1
:102C70001343E26802F400621343226902F0020285
:102C80001343626902F001021343A26902F4007265
:102C90001343E26902F038021343226A02F0800211
:102CA0001343A26A02F40052216813430B60638B42
:102CB00003F00403626A02F01002216813434B60C0
:102CC0002268D36923F40063D36100206065012387
:102CD00084F8513010BD84F850302046FEF75AFD7C
:102CE000B8E7012070472DE9F04383B004468946D8
:102CF00090461D46FEF736FF94F85160F6B2012E5D
:102D000040F0CC800746B9F1000F00F0C880B8F160
:102D1000000F00F0C48094F85030012B00F0C38005
:102D2000012384F85030032384F851300023636575
:102D3000C4F83090A4F83480A4F83680A363A38745
:102D4000E38763642364A368B3F5004F1ED0236850
:102D50001A6812F0400F03D11A6842F040021A605C
:102D6000E368B3F5006F1CD0636813B1B8F1010FCD
:102D70005FD1226B236812781A73236B01332363AC
:102D8000E38E9BB2013B9BB2E38652E0226813685C
:102D900023F0400313602268136843F480431360F8
:102DA000D5E7636813B1B8F1010F15D1226B236821
:102DB0001288DA60236B02332363E38E9BB2013BFC
:102DC0009BB2E38608E0FEF7CDFEC01BA84202D30B
:102DD000B5F1FF3F15D1A5B1E38E9BB2002B42D0D8
:102DE00023689A6812F0020FEDD0226B1288DA6025
:102DF000236B02332363E38E9BB2013B9BB2E386DA
:102E0000EAE7012384F85130002384F85030032688
:102E100045E0226B12781A73236B01332363B4F8F5
:102E200036C01FFA8CFC0CF1FF3C1FFA8CFCA4F896
:102E300036C0E38E9BB2B3B123689A6812F0020FDA
:102E4000E7D1FEF78FFEC01BA84202D3B5F1FF3FCA
:102E500001D1002DEDD1012384F85130002384F8F5
:102E6000503003261BE03A4629462046FFF756FE1F
:102E700008B120236365A36833B901932368DA6836
:102E800001929B680193019B012384F85130002338
:102E900084F85030636D13B9002600E002263046F6
:102EA00003B0BDE8F0830226F9E72DE9F04383B0D3
:102EB0000446884691461F460A9DFEF753FE064685
:102EC00094F85130DBB26268012B0AD0B2F5827FF0
:102ED00040F00581A268002A40F00581042B40F0F3
:102EE0000481B8F1000F00F00281B9F1000F00F089
:102EF0000081002F00F0FF8094F85030012B00F08B
:102F0000FC80012384F8503094F85130DBB2042B5C
:102F100002D0052384F8513000236365C4F838904B
:102F2000E787A787C4F83080E786A78623646364B1
:102F300023681A6812F0400F03D11A6842F0400269
:102F40001A60E368B3F5006F11D063680BB1012F0D
:102F50000BD1226B236812781A73236B013323631E
:102F6000E38E9BB2013B9BB2E386012771E063686D
:102F70000BB1012F0BD1226B23681288DA60236B0F
:102F800002332363E38E9BB2013B9BB2E3860127AE
:102F90001BE023689A6812F0010F0ED0E28F92B204
:102FA0005AB1DA68A36B1A80A36B0233A363E38F71
:102FB0009BB2013B9BB2E3870127FEF7D3FD801B49
:102FC000A84202D3B5F1FF3F1ED1E38E9BB21BB9DD
:102FD000E38F9BB2002B62D023689A6812F0020F35
:102FE000D7D0E28E92B2002AD3D0002FD1D0226B5C
:102FF0001288DA60236B02332363E38E9BB2013BBA
:103000009BB2E3860027C4E7012384F851300023F4
:1030100084F85030032063E023689A6812F0010FAF
:103020000ED0E28F92B25AB1DA68A36B1A70A36B1A
:103030000133A363E38F9BB2013B9BB2E38701277C
:10304000FEF790FD831BAB4202D3B5F1FF3F1ED1CB
:10305000EDB1E38E9BB213B9E38F9BB2FBB1236852
:103060009A6812F0020FD7D0E28E92B2002AD3D023
:10307000002FD1D0226B12781A73236B0133236394
:10308000E38E9BB2013B9BB2E3860027C4E701239A
:1030900084F85130002384F85030032020E0324679
:1030A00029462046FFF73AFD90B9A36833B901934A
:1030B0002368DA6801929B680193019B012384F8DD
:1030C0005130002384F85030636D4BB1012007E08C
:1030D00020236365002384F85030012000E00220A3
:1030E00003B0BDE8F0830220FAE70220F8E70120F0
:1030F000F6E70120F4E70120F2E70220F0E72DE9EE
:10310000F04383B090F85160F6B2012E40F0B280E7
:103110000446894690461D46002900F0AC80002AEE
:1031200000F0A9804368B3F5827F01D1836853B36F
:10313000FEF718FD074694F85030012B00F09F80F1
:10314000012384F85030042384F851300023636550
:10315000C4F83890A4F83C80A4F83E802363A3868A
:10316000E38623646364A368B3F5004F15D0236836
:103170001A6812F0400F03D11A6842F040021A6038
:10318000E368F3B143E0042380F85130009513461F
:103190000A46FFF78AFE06466DE02268136823F0B0
:1031A000400313602268136823F480431360DEE752
:1031B000FEF7D8FCC01BA84202D3B5F1FF3F15D1E2
:1031C000A5B1E38F9BB2002B42D023689A6812F01E
:1031D000010FEDD0A26B1B7B1370A36B0133A363B4
:1031E000E38F9BB2013B9BB2E387EAE7012384F8BC
:1031F0005130002384F8503003263CE0FEF7B2FC47
:10320000C01BA84202D3B5F1FF3F19D1C5B1E38F6E
:103210009BB2EBB123689A6812F0010FEED0DA6826
:10322000A36B1A80A36B0233A363B4F83EC01FFAEA
:103230008CFC0CF1FF3C1FFA8CFCA4F83EC0E6E7C6
:10324000012384F85130002384F85030032612E023
:103250003A4629462046FFF7A1FC08B120236365C2
:10326000012384F85130002384F85030636D13B982
:10327000002600E00226304603B0BDE8F0830226B7
:10328000F9E740B370B50E461546044690F849304C
:10329000E3B1214651F8080B00F0C6FCA2683146A4
:1032A000206800F0F7FC236BA2682946606800F0F4
:1032B0000FFD2268A16852F8213043F0010342F863
:1032C0002130012384F84930002070BD80F8483057
:1032D000FEF732FBDDE701207047000030B4036ADF
:1032E000026A22F0010202624268846924F0730CCF
:1032F0000C6844EA0C0423F0020C8B6843EA0C03CC
:10330000114DA84203D005F58065A84205D123F0F0
:103310000803CD682B4323F004030B4DA84203D0D0
:1033200005F58065A84207D122F440724D6945EA4F
:10333000020C8A6942EA0C02426084614A68426374
:10334000036230BC704700BF0000014030B4036A24
:10335000026A22F4807202624268C46924F0730C2B
:103360000C6844EA0C0523F400738C6843EA0423D8
:10337000114CA04203D004F58064A04206D123F48E
:103380000063CC6843EA042323F480630A4CA04220
:1033900003D004F58064A04207D122F440524C6966
:1033A00042EA04128C6942EA04124260C5614A682A
:1033B000C263036230BC70470000014030B4036A4E
:1033C000026A22F4805202624468C26922F4E64230
:1033D0000D6842EA052223F400538D6843EA053361
:1033E000094DA84203D005F58065A84204D124F414
:1033F00080444D6944EA85144460C2614A680264AD
:10340000036230BC704700BF0000014010B4036A83
:10341000046A24F001040462846924F0F00C4CEA8C
:10342000021223F00A030B43826103625DF8044B2E
:10343000704710B4036A046A24F0100404628469BB
:1034400024F4704C4CEA023223F0A00343EA011347
:10345000826103625DF8044B7047836823F0700358
:103460000B4343F0070383607047000090F83D3042
:10347000DBB2012B37D1022380F83D300268D368DC
:1034800043F00103D3600368194A934220D0B3F19B
:10349000804F1DD0A2F57C42934219D002F5806284
:1034A000934215D002F58062934211D002F5784222
:1034B00093420DD002F57052934209D0A2F5943296
:1034C000934205D01A6842F001021A60002070474A
:1034D0009A6802F00702062A07D01A6842F0010231
:1034E0001A6000207047012070470020704700BF1D
:1034F000000001400268D36823F00103D360036831
:10350000196A41F21112114208D1196A40F244427B
:10351000114203D11A6822F001021A60012380F8D7
:103520003D300020704770477047704770477047C4
:10353000704770B504460368DE681D6915F0020F18
:1035400010D016F0020F0DD06FF002021A610123A5
:10355000037703689B6913F0030F5ED0FFF7E6FF64
:103560000023237715F0040F12D016F0040F0FD0AC
:1035700023686FF004021A610223237723689B6992
:1035800013F4407F4FD02046FFF7D0FF002323776E
:1035900015F0080F12D016F0080F0FD023686FF047
:1035A00008021A61042323772368DB6913F0030FF1
:1035B00040D02046FFF7BAFF0023237715F0100F05
:1035C00012D016F0100F0FD023686FF010021A619E
:1035D000082323772368DB6913F4407F31D020462A
:1035E000FFF7A4FF0023237715F0010F02D016F098
:1035F000010F2DD115F0800F02D016F0800F2FD1C2
:1036000015F0400F02D016F0400F31D115F0200F09
:1036100002D016F0200F33D170BDFFF786FF204691
:10362000FFF785FF9CE72046FFF77FFF2046FFF767
:103630007EFFABE72046FFF778FF2046FFF777FFD6
:10364000BAE72046FFF771FF2046FFF770FFC9E792
:1036500023686FF001021A612046FFF765FFC9E792
:1036600023686FF080021A61204600F0DCFAC7E799
:1036700023686FF040021A612046FFF759FFC5E743
:1036800023686FF020021A61204600F0CBFAC3E7EE
:103690000368324A904212D0B0F1804F0FD0A2F5A9
:1036A0007C4290420BD002F58062904207D002F536
:1036B0008062904203D002F57842904203D123F019
:1036C00070034A681343254A90422AD0B0F1804FD4
:1036D00027D0A2F57C42904223D002F5806290422E
:1036E0001FD002F5806290421BD002F578429042D2
:1036F00017D002F57052904213D002F580629042CA
:103700000FD002F5806290420BD0A2F59832904221
:1037100007D002F58062904203D002F580629042A9
:1037200003D123F44073CA68134323F080034A692A
:1037300013438A68C2620A688262084A904203D0D0
:1037400002F58062904201D10A690263026842F088
:1037500004020260012242610360704700000140E0
:1037600040B310B5044690F83D30F3B1022384F81D
:103770003D30214651F8040BFFF78AFF012384F8FE
:10378000463084F83E3084F83F3084F8403084F886
:10379000413084F8423084F8433084F8443084F86F
:1037A000453084F83D30002010BD80F83C30FEF7F5
:1037B00053F8DBE70120704740B310B5044690F89A
:1037C0003D30F3B1022384F83D30214651F8040B1B
:1037D000FFF75EFF012384F8463084F83E3084F81A
:1037E0003F3084F8403084F8413084F8423084F827
:1037F000433084F8443084F8453084F83D3000206C
:1038000010BD80F83C30FFF78EFEDBE701207047EB
:1038100030B4036A026A22F01002026244688269CC
:1038200022F4E6420D6842EA052223F020038D6867
:1038300043EA0513114DA84203D005F58065A8425F
:1038400006D123F08003CD6843EA051323F040033B
:103850000A4DA84203D005F58065A84207D124F49B
:1038600040644D6944EA85048D6944EA85044460F6
:1038700082614A688263036230BC70470000014085
:1038800038B590F83C30012B66D004460D46012334
:1038900080F83C300C2A5AD8DFE802F00759595911
:1038A0001B5959593059595944000068FFF716FD02
:1038B0002268936943F0080393612268936923F0B7
:1038C000040393612268936929690B439361002083
:1038D0003EE00068FFF79CFF2268936943F40063B1
:1038E00093612268936923F48063936122689369EA
:1038F000296943EA01239361002029E00068FFF76A
:1039000025FD2268D36943F00803D3612268D36997
:1039100023F00403D3612268D36929690B43D3617F
:10392000002015E00068FFF749FD2268D36943F4E1
:103930000063D3612268D36923F48063D361226872
:10394000D369296943EA0123D361002000E0012003
:10395000002384F83C3038BD0220FCE710B48468B2
:1039600024F47F4C42EA03220A4342EA0C028260BA
:103970005DF8044B704790F83C30012B78D010B5BF
:103980000446012380F83C30022380F83D30026871
:10399000936823F47F4323F0770393600B68602BD5
:1039A0004CD023D8402B54D011D8202B03D00AD888
:1039B0000BB1102B05D119462068FFF74EFD0020F2
:1039C00028E0012026E0302BF5D0012022E0502B0A
:1039D0000AD1CA6849680068FFF718FD50212068BD
:1039E000FFF73BFD002015E0012013E0B3F5805FF9
:1039F0003AD0B3F5005F14D0702B37D1CB684A684A
:103A000089680068FFF7AAFF2268936843F077038C
:103A100093600020012384F83D30002384F83C307B
:103A200010BDCB684A6889680068FFF797FF226875
:103A3000936843F4804393600020EBE7CA684968C9
:103A40000068FFF7F6FC60212068FFF706FD002004
:103A5000E0E7CA6849680068FFF7D8FC40212068A1
:103A6000FFF7FBFC0020D5E70020D3E70120D1E7DA
:103A70000220704701F01F014FF0010C0CFA01FC0D
:103A8000036A23EA0C030362036A8A401343036256
:103A90007047000010B504460846002942D194F84A
:103AA0003E30DBB2013B18BF0123002B6ED1002852
:103AB00051D1022384F83E30012201462068FFF7ED
:103AC000D9FF2368334A934203D002F580629342C0
:103AD00003D15A6C42F400425A6423682D4A93423F
:103AE00049D0B3F1804F46D0A2F57C42934242D0F8
:103AF00002F5806293423ED002F5806293423AD052
:103B000002F57842934236D002F57052934232D099
:103B1000A2F5943293422ED01A6842F001021A6044
:103B2000002032E0042908D008290DD094F8413053
:103B3000DBB2013B18BF0123B7E794F83F30DBB29B
:103B4000013B18BF0123B0E794F84030DBB2013BE2
:103B500018BF0123A9E7042805D0082807D00223AD
:103B600084F84130A8E7022384F83F30A4E7022319
:103B700084F84030A0E79A6802F00702062A07D0CE
:103B80001A6842F001021A60002010BD0120FCE713
:103B90000020FAE70000014090F83C20012A3DD0C7
:103BA00010B40346012280F83C20022280F83D2018
:103BB00002685068946820F0700C086840EA0C00B5
:103BC00050601A68164882421AD0B2F1804F17D05E
:103BD000A0F57C40824213D000F5806082420FD075
:103BE00000F5806082420BD000F57840824207D019
:103BF00000F57050824203D0A0F59430824204D187
:103C000024F08004496821439160012283F83D201B
:103C1000002083F83C005DF8044B70470220704799
:103C2000000001407047704710B40A6850F8223015
:103C300023F0010340F822308B68082B25D00024A4
:103C40004A6822431343CA6813430A6913434A6903
:103C50001343CA6913430A6A13434A6A13438A6ABD
:103C60001343CA6A13430A6B13438A691A43CB6B23
:103C70001A43096850F82140054B2340134340F88C
:103C8000213000205DF8044B70474024D8E700BF86
:103C90008000F0FF10B40B684C6843EA04138C6892
:103CA00043EA0423CC6843EA04430C6904F1FF3C73
:103CB00043EA0C534C69A4F1020C43EA0C63896992
:103CC00001320B4340F8223000205DF8044B70476E
:103CD000B3F5804F05D06FF0704340F822300020DC
:103CE000704730B450F82230094C1C400B684D68C6
:103CF00043EA05138D6843EA05238D692B43C968A0
:103D000043EA01431C4340F82240002030BC704786
:103D10000000F0CF2DE9F04F85B0824688461D4661
:103D200013B200935200C2F10303019300240AE08E
:103D3000009BE31A019A02EB83030A331BB201933F
:103D4000013E33B20093009B9C4255DCA4B204EBCD
:103D50000A091FFA89F9BDF80060A8EB06039BB2B7
:103D60002A4602931946484607F090FE06EB0A07DA
:103D7000BFB2A8EB04039AB210462A46039001464C
:103D8000384607F083FE04EB080B1FFA8BFB2A462C
:103D90005946384607F07AFE06EB0807BFB22A46B6
:103DA0003946484607F072FEAAEB04091FFA89F962
:103DB0002A463946484607F069FEAAEB0607BFB215
:103DC0002A465946384607F061FE2A460299484677
:103DD00007F05CFE2A460399384607F057FE013487
:103DE000A3B224B2019A002AA2DA9B009BB2134428
:103DF00006331BB20193A6E705B0BDE8F08F0000C3
:103E000038B514461D46821892B263189BB2013B26
:103E1000013A9BB292B207F01BFE002102E0044A75
:103E20001580013104FB04F28A42F8D838BD00BF86
:103E3000000008602DE9F04106460F4614461D4675
:103E4000BDF81880904201D204461646AF4202D215
:103E50002B463D461F463B4632462946204607F044
:103E6000F7FD002203E0084BA3F80080013206F1C1
:103E7000010CACEB040C7B1C5B1B03FB0CFC9445A2
:103E8000F1D2BDE8F08100BF0000086008B502482B
:103E9000FEF722FC80B208BD5C0300202DE9F04F44
:103EA00085B08046084692461D46BDF83840A2427D
:103EB0002ED0994236D0A4EB0209B9F1000FB8BF59
:103EC000C9F10009A3EB010BBBF1000FB8BFCBF1A7
:103ED000000BD94504DC23462C461D468A46104675
:103EE000A24505D82B4605461846234654469A4611
:103EF000AAEB0403471B002FB8BF7F4203EBD37626
:103F0000761085422FD34FF0FF32029203931AE0CE
:103F1000CDF8008023462A465146FFF78BFF05B0B7
:103F2000BDE8F08FCDF8008023462A465146FFF7C2
:103F300081FFF4E742462946204607F0A7FDF61B1D
:103F40000BD40134A4B25445E9D8D945F2DD424638
:103F50002146284607F09AFDF1E7029B1D44ADB2C9
:103F6000039B1E44EDE7012202920393EBE72DE948
:103F7000F04182B004460F4616461D46BDF820802B
:103F80000092FFF78BFFCDF800802B464246394662
:103F90002046FFF783FFCDF800803B463246394686
:103FA0002046FFF77BFFCDF800802B46324629469E
:103FB0002046FFF773FF02B0BDE8F08110B582B074
:103FC00014469E4683B28AB21444A4B2013CA4B201
:103FD000009419467046FFF761FF02B010BD2DE94D
:103FE000F04F87B00390049116469846BDF84430D0
:103FF000059393B2C3F1010424B2C3EBC3335B0056
:104000001BB20193BDF9403001339BB2029391463C
:1040100000254FF0010A19E0039B0BEB0300B3B23C
:10402000049AD11A5A0092B2029B1A44059B12B20A
:1040300009B200B2FFF7C2FF26E04E4506D018F0E5
:10404000010F35D118F0020F42D1B146B54250DA16
:10405000002C08DB013E36B2019B02331AB20192FA
:1040600014FA83F31CB2AFB27D1C1FFA85FB2DB28C
:104070000AF102030FFA83FA14FA83F31CB2AE4278
:10408000DBDB18F0010FC7D118F0020FD5D0039B6E
:10409000A3EB0B00B3B2049AD11A5A0092B2029B5E
:1040A0001A44059B12B209B200B2FFF787FFC4E7BA
:1040B000039B03EB0900049BD91B7A0092B2029B7D
:1040C0001A44059B12B209B200B2FFF777FFB9E7B5
:1040D000039BA3EB0900049BD91B7A0092B2029BBD
:1040E0001A44059B12B209B200B2FFF767FFB1464E
:1040F000ACE707B0BDE8F08FF0B583B006460C46DC
:1041000015461F461FFA82FCA1EB0C014FEA4C0C2E
:104110001FFA8CFC0CF1010C0FFA8CF209B2FFF7BC
:104120004DFF01970023009303232A462146304682
:10413000FFF755FF03B0F0BD43688268934204DA8D
:104140000268591C4160D05C70470020704743688A
:104150008268934202DA0268D05C704700207047A0
:104160000378407800EB032080B2704703784078F2
:1041700000EB032000B27047027843781B0403EB86
:104180000263827803EB0223C078184470470278F8
:1041900043781B0403EB0263827803EB0223C078AD
:1041A000184470470378312B0BD0742B14D04F2B4D
:1041B0001DD013B94278012A24D0742B2AD00020B4
:1041C00070474278002AF0D18278002AEDD1C27877
:1041D000002AEAD1012070474278792AE7D1827813
:1041E000702AE4D1C278312AE1D1012070474278A7
:1041F000542ADED18278542ADBD1C2784F2AD8D112
:10420000012070478278002AD7D1C278002AD4D101
:10421000012070474378722B01D0002070478378CB
:10422000752B01D000207047C378652B01D000208A
:1042300070470120704770B504460E461546081DAC
:104240002044FFF78DFF06F10C02002300E001334C
:10425000834220DA02EB031114F801E095F800C064
:10426000E645F4D104EB010C9CF801E095F801C09F
:10427000E645ECD1661896F802C0AE78B445E6D1B2
:10428000661896F803C0EE78B445E0D1083160189E
:10429000FFF772FF00E0002070BD38B505460C4600
:1042A000FFF780FF00BB2B78742B23D16B78742B26
:1042B00023D1AB78632B23D1EB78662B23D1281D38
:1042C000FFF75AFFB0F5803F02D0B0F5003F1DD197
:1042D00005F10800FFF75BFFA0421ADDA4000C34D3
:1042E0002819FFF749FF38BD0CB92046FBE74FF00E
:1042F000FF30F8E74FF0FF30F5E74FF0FF30F2E71F
:104300004FF0FF30EFE74FF0FF30ECE74FF0FF30BA
:10431000E9E74FF0FF30E6E7017302804380BDF923
:1043200000308380BDF90430C380704730B583B05E
:1043300004463BB382B94D1CC1EBC100099B0193FC
:10434000089B0093079B069A032104EB4000FFF7AC
:10435000E3FF284603B030BD4D1CC1EBC1000A9BF2
:10436000089A9A180B9B09990B440B9901910A9989
:1043700000915B105210032104EB4000FFF7CCFFCB
:104380002946D8E772B14D1CC1EBC1000B9B0193CC
:104390000A9B0093079B069A032104EB4000FFF75A
:1043A000BBFFD6E74D1CC1EBC10000230193009376
:1043B000079B069A022104EB4000FFF7ADFFC8E718
:1043C000C3698B4201DB436803B9C161436A93420D
:1043D00001DB436803B9426283698B4201DC4368B5
:1043E00003B98161036A934201DC436803B9026245
:1043F00001234360704730B583B004460D46114633
:1044000002687AB11A46FFF7DBFF042D28D1079A1C
:1044100006992046FFF7D4FF099A08992046FFF72E
:10442000CFFF1DE0C06AC0EBC000079A0192069A58
:1044300000920A462946A56A05EB4000FFF76CFF8B
:10444000A26AE36AC3EBC30302EB4302089B138136
:10445000A26AE36AC3EBC30302EB4302099B5381E5
:10446000E36A0133E36203B030BDD0ED027A90ED30
:10447000047AF4EE477AF1EE10FA08D1D0ED036A2F
:1044800090ED057AF4EE476AF1EE10FA16D000B519
:1044900085B090ED037A0023039302930193009378
:1044A000BDEEC77A17EE103AFDEEE77A17EE902AC6
:1044B0000221FFF7A0FF05B05DF804FB704710B5BF
:1044C0002DED028B84B00446F0EE408AB0EE608A97
:1044D000FFF7CBFFD4ED047A37EEA80A84ED040A87
:1044E00084ED020AD4ED057A77EE880AC4ED050A58
:1044F000C4ED030A00230393029301930093FDEE9E
:10450000E07A17EE903AFDEEC07A17EE902A01217C
:104510002046FFF770FF04B0BDEC028B10BD00B564
:1045200085B0D0ED047A37EE800A80ED040AD0ED34
:10453000057A77EEA00AC0ED050A002303930293E3
:1045400001930093FDEEE07A17EE903AFDEEC07A0B
:1045500017EE902A0221FFF74EFF05B05DF804FB2D
:1045600000B585B0D0ED047A37EE800AD0ED057A3B
:1045700077EEA00A30EE011A70EEA11A31EE022A8F
:1045800080ED042A71EEA22AC0ED052AFDEEE11AA3
:10459000CDED031ABDEEC11A8DED021AFDEEE00A53
:1045A000CDED010ABDEEC00A8DED000AFDEEE27A06
:1045B00017EE903AFDEEC27A17EE902A0421FFF72B
:1045C0001AFF05B05DF804FB2DE9F8434768406A1F
:1045D0000744B8B30C461546B81CFFF7C1FD80B3BD
:1045E00007F10800FFF7BCFD01282DD107F10A00F3
:1045F000FFF7B6FD461E45EA04454FF0000803E00C
:10460000854216D909F10108B04518DC08EB06030C
:104610004FEA630923F0010404EB6304640004F12E
:1046200012003844FFF7A8FD8542E9D209F1FF36B0
:10463000EAE704F116003844FFF798FD02E0002095
:1046400000E00020BDE8F8830020FBE72DE9F047FB
:1046500006460D46FFF784FD012806D0022821D02A
:104660004FF0FF384046BDE8F087B01CFFF778FDFB
:10467000441E002703E08542F4DD08F10107A7424C
:104680000DDC3B194FEA630823F00103181D304489
:10469000FFF766FD8542EEDA08F1FF34EFE74FF0F1
:1046A000FF38DFE7B01CFFF75BFD471E4FF0000847
:1046B00003E085421ADD09F10108B8451EDC08EB6C
:1046C00007034FEA630923F0010404EB6304640069
:1046D000043434442046FFF743FD8246A01CFFF714
:1046E0003FFD5545E5DA09F1FF37E6E7201DFFF705
:1046F00037FD00EB0508A8EB0A08B3E74FF0FF38D9
:10470000B0E72DE9F04780460F46FFF729FD012865
:1047100005D002281AD04FF0FF30BDE8F08708F12D
:104720000200FFF71DFD044608F10400FFF718FD25
:10473000BC4234DC2044B84201DC0020EDE7381BE9
:10474000400006304044FFF70BFDE6E708F10200A9
:10475000FFF706FD451E002603E0874219DD09F13B
:104760000106AE4219DC73194FEA630923F0010414
:1047700004EB63046400043444442046FFF7F0FC77
:104780008246A01CFFF7ECFC5745E6DA09F1FF353D
:10479000E7E7201DFFF7E4FCBFE70020BDE70020AE
:1047A000BBE72DE9F04F87B003460191806A0028EE
:1047B00000F0DB8093465C6804442046FFF7D0FCA1
:1047C000012840F0D180A01CFFF7CAFC002840F06F
:1047D000CF8004F10800FFF7C3FC04442046FFF734
:1047E000BFFC4FF000080746A3E008F10400FFF704
:1047F000B7FC074608F10600FFF7B2FC042F40F0B3
:10480000B980002840F0B88008F10800FFF7A8FC44
:10481000074660000A304044FFF7A2FC804440464F
:10482000FFF79EFCA74240F3A98000F1FF394FF04B
:10483000000A03E0834511DD07F1010ACA454DDC9A
:104840000AEB09077F10BC00023444442046FFF7FE
:1048500087FC8345EEDA07F1FF39EFE7A01CFFF78D
:1048600085FC82E0381DFFF77BFC0446B81DFFF78E
:1048700077FC042C40F0848008B1002075E008F13A
:104880000800FFF76DFC044608F10A00FFF768FC1A
:10489000054601993819FFF734FF0446594678193F
:1048A000FFF72FFF054608F10C00FFF759FC0646FD
:1048B00008F10E00FFF754FC002C63DBA64263DD19
:1048C000002D63DBA84263DD04FB00F35B001033C3
:1048D00003EB45004044FFF749FC46E00135029BED
:1048E000AB4220DD680006303044FFF739FC06EBB0
:1048F00000084046FFF734FC814608F10200FFF74C
:104900002FFC01994044FFF7A1FE0446B0F1FF3FA0
:10491000E4D0B9F1010F3FF468AF4746B9F1020F97
:10492000A0D0002021E0DDF80C80049C059F08F158
:104930000108474516DD4FEA480002302044FFF7E2
:104940000FFC26183046FFF70BFC0546301DFFF71D
:1049500007FC0290022DEAD10025CDF80C800494CA
:104960000597BCE7002000E0002007B0BDE8F08F0D
:104970000020FAE70020F8E70020F6E70020F4E73F
:104980000020F2E70020F0E70020EEE70020ECE74F
:104990000020EAE743680B604160704720EE200A80
:1049A000F6EE007A20EE270A7047F0B587B005468C
:1049B0000F4601262AE0AC44BEE80F00ACE80F0029
:1049C000DEF80030CCF80030013C002C0FDD04EBA9
:1049D000840C4FEA8C0CACF1140EAE44DEED017A7F
:1049E0009DED027AB4EEE77AF1EE10FAE3D4A64236
:1049F0000BD004EB840405EB84040DF1040CBCE83B
:104A00000F000FC4DCF8003023600136BE420DDA1F
:104A100006EB86040DF1040C05EB84040FCCACE826
:104A20000F002368CCF800303446CEE707B0F0BD65
:104A30002DE9F04387B005460E460C2E40F3B280B8
:104A40007410D5ED016A04EB840405EB8404D4ED05
:104A5000017AF4EEE76AF1EE10FA4CBF012200226F
:104A600006EB86039B00143B2B4493ED017AF4EE96
:104A7000C77AF1EE10FA4CBF012300239A4228D0E6
:104A8000F4EEC76AF1EE10FA4CBF01220022934205
:104A900038D0771E07EB870705EB87070DF1040C6D
:104AA000BE46BEE80F00ACE80F00DEF80030CCF8E0
:104AB0000030A446BCE80F000FC7DCF800303B60B4
:104AC00027460DF1040CBCE80F000FC7DCF80030DE
:104AD0003B6001AFAC46BCE80F000FC7DCF800300C
:104AE0003B602F46A446BCE80F000FC7DCF800303F
:104AF0003B6001AF0FCF0FC43B682360741E4FF0C3
:104B000001082FE00027C5E7013C04EB840C05EB0E
:104B10008C0CDCED017AB4EEE77AF1EE10FAF3D406
:104B2000A0452FDA0DF1040EB946B9E80F00AEE842
:104B30000F00D9F80030CEF80030BE4667460FCFE0
:104B4000AEE80F003B68CEF800300DF1040EBEE871
:104B50000F00ACE80F00DEF80030CCF8003008F1B0
:104B60000108013C08EB880E05EB8E07D7ED017AB2
:104B700095ED017AF4EEC77AF1EE10FAC5D508F199
:104B80000108EFE7A6EB0806A64205DD2146284608
:104B9000FFF74EFF3D4650E731463846FFF748FFE6
:104BA00026464AE707B0BDE8F08338B504460D460F
:104BB000FFF73EFF29462046FFF7F7FE38BD28B134
:104BC00000EBC10181ED000AC1ED010A704770B52B
:104BD0002DED088B31EE018A38EE008A38EE028A1C
:104BE000F5EE007A28EE278A71EEA18A78EEA08A87
:104BF00078EEA28A68EEA78A70EE027AF6EE006A74
:104C000067EEA67A77EEC87A30EEA27A27EE267A99
:104C100037EE687A102A3FDC06460D46B0EE419A20
:104C2000F0EE619AB0EE42AAF0EE62AAB0EE43BA9C
:104C300067EEA77A27EE077A77EE877AF4EEC37AE3
:104C4000F1EE10FA2CDD31EE001A71EEA01A541CB0
:104C5000F0EE66BA2246F0EE682AB0EE482A61EE1F
:104C6000A61A21EE261AFFF7B2FF39EE0A1A79EEDC
:104C7000AA1A2246B0EE4B3AF0EE6A2AB0EE4A2A61
:104C800061EEAB1A21EE2B1AF0EE680AB0EE480A7C
:104C900029463046FFF79BFF0120BDEC088B70BD15
:104CA000F0EE620AB0EE420A0968FFF788FF2B684F
:104CB00001332B60F0E7000008B583688B4203DB0B
:104CC000002901DB416008BD034B044A40F27D41ED
:104CD000034807F01DFC00BF60F3000818F9000846
:104CE00078F3000808B543681944FFF7E5FF08BDED
:104CF00008B5B2F1804F04D20160826000234360A6
:104D000008BD034B034A40F29341034807F000FCFF
:104D100090F3000808F9000878F30008F8B5054694
:104D20000F4614461E4600221146FFF7E1FF002CF5
:104D30000BDB002E09DBBB68A34206DB1B1BB34267
:104D400003DB3B6823442B60AE602846F8BD0000BF
:104D5000F8B54B1E032B04D807460E4600252846FF
:104D60000CE0084B084A40F28A41084807F0D0FBA3
:104D700004023846FFF7E0F920430135B542F7DB7E
:104D8000F8BD00BFA4F30008C8F8000878F30008D5
:104D900010B504460021FFF78FFF02212046FFF7E0
:104DA000D7FF10BDF0B585B0064601AC84E80E0013
:104DB0000A9F00212046FFF77FFF02212046FFF7D0
:104DC000C7FF05462046FFF7B7F9002F1FDB044653
:104DD000BD421CDD431E032B20D807FB00F101A8B8
:104DE000FFF780FF214601A8FFF7B2FF07462146E3
:104DF00001A8FFF7ADFF05FB0444A21CC31B3A4406
:104E000001A93046FFF78AFF304605B0F0BD074BD9
:104E1000074A40F2F241074807F07AFB064B044A82
:104E200040F2F341034807F073FB00BFB8F30008FA
:104E300028F9000878F30008CCF3000810B586B014
:104E4000044603A880E80E00FFF7A2FF48F26B4378
:104E5000984204DCB0F59B6F10DA6B2301E04FF44D
:104E60000043089A9B1801D498420ADC002211469C
:104E70002046FFF73DFF204606B010BD40F26B43D1
:104E8000EFE7009306AB13E90E002046FFF78AFF19
:104E9000F1E700002DE9F04106460C464F6802217B
:104EA0002046FFF755FFA0B180462046FFF744F9A2
:104EB0000546431E032B16D800FB08F12046FFF7DA
:104EC00011FF29462046FFF743FF411E2046FFF70A
:104ED00009FF6368DB1B3A4621463046FFF71EFF99
:104EE0003046BDE8F081034B034A40F2AD41034830
:104EF00007F00EFBCCF30008D8F8000878F30008A0
:104F000038B50546FFF718F9A0F12003D62B10D9C4
:104F1000A0F1F703032B0ED9A0F1FB03032B11D94A
:104F20001C2818D01D281BD104212846FFF710FF8C
:104F300038BD8B38FCE71C022846FFF7FDF82044FB
:104F40006C30F5E7C0F1FB0424022846FFF7F4F8C3
:104F5000201A6C38ECE702212846FFF7F9FEE7E754
:104F6000034B044A40F2BC41034807F0D1FA00BFAA
:104F700078F40008B8F8000878F3000810B5044683
:104F8000FFF7E5F81B2805DD1E280AD02046FFF7AD
:104F9000B7FF10BD0C4B0D4A40F2C2410C4807F060
:104FA000B7FA01212046FFF79DFE6268A3689A4286
:104FB000EFDA2046FFF7C0F800F00F030F2BE8D020
:104FC00000110F28F1D1E4E7ECF30008F0F8000835
:104FD00078F300082DE9F04180460C461646002182
:104FE0002046FFF769FE10E02046FFF7C7FF204686
:104FF000FFF7ADF81B28F7D867682046FFF79CF845
:1050000003460C280ED0B34212D06568A3689D42B7
:10501000EDDB00231A4621464046FFF77FFE40465F
:10502000BDE8F0812046FFF787F840F48073EAE797
:105030007B1B2A4621464046FFF770FEEFE770B51E
:1050400084B015461E460A46014601A8FFF7C2FF76
:10505000002405E001A8FFF753FF46F824000134BF
:10506000AC4203DA029803998842F3DB04B070BDC6
:1050700030B58FB0044605A880E80E0000230D93DC
:105080000B930C930BAB0222122112A8FFF7D7FF50
:105090000C9A0AB10B9B3BB9002211462046FFF740
:1050A00027FE20460FB030BD6D4605A92846FFF704
:1050B00035FE0DF1200C95E807008CE807000DABDC
:1050C000012213216046FFF7BAFF0D9B4BB10C99EB
:1050D000194405A8FFF7F0FD05A92046FFF7DAFE01
:1050E000DFE7002211462046FFF702FED9E72DE94F
:1050F000F0478EB081460D46174608AC01F17403A7
:1051000093E8070084E8070000212046FFF7D4FD5C
:105110002046FFF711F8F0B1032825D04FF0FF34F7
:105120000022114604A8FFF7E3FD0BAE009405F141
:1051300068030ECB3046FFF735FE96E807008DE892
:105140000700383595E80E004846FFF791FF4846BE
:105150000EB0BDE8F08739462046FFF7C3FD204674
:10516000FEF7EAFF0446E0E7022108A8FFF7F0FD9A
:105170008246022108A8FFF7EBFD8046002601E0E9
:105180000136804656450CDA08A8FEF7D5FF0446DE
:10519000022108A8FFF7DCFDB845F1DCB842EFDDDD
:1051A00001E04FF0FF34B4F1FF3FBED1B8E700009B
:1051B0002DE9F04F2DED088BE1B081460F460391AC
:1051C00016460CAB00F15C0207CA83E8070009AD84
:1051D00004AC009709F144030ECB2046FFF7E2FD33
:1051E00094E8070085E807004FF0000A5446D046CF
:1051F000D346012302930A9A0B9B9A4280F288833A
:1052000009A8FEF799FF0546431E1E2B00F25683A0
:10521000DFE813F03100540331004B006D009700BC
:10522000840009015403FC0150026B025403620222
:1052300054035403540331001F001F0037005C0067
:10524000310035017201AD01AD0154030502D400F6
:10525000AA00029B1BB104EBD4740BEB640B1BF193
:10526000070106D4C91009A8FFF73CFD00240294E9
:10527000C1E70731F6E704EBD4740BEB640B0024B1
:10528000B9E7012C40F34683A31E013C60AA02EB60
:10529000840402EB830354ED330A13ED330A3046E2
:1052A000FFF70DF900240294A5E7002C40F33483A6
:1052B000013C60AB03EB840454ED330A9FEDD10A4B
:1052C0003046FFF7FCF80024029494E7002C40F3EA
:1052D0002583013C60AB03EB8404DFEDCA0A14EDC7
:1052E000330A3046FFF7EBF80024029483E7012CE1
:1052F00040F3168300250CE060AA02EB830302EB67
:10530000850253ED330A12ED330A3046FFF707F9F1
:1053100002356B1CA342EFDB0123B7E1002C40F305
:105320000183002560AB03EB850353ED330A9FED4A
:10533000B50A3046FFF7F3F80135AC4205DC00242E
:1053400059E7002C40F3F082002560AB03EB8503A6
:10535000DFEDAC0A13ED330A3046FFF7E0F8013514
:10536000AC42DFDC002446E7032C40F3DF8200255B
:1053700060AB03EB850313ED330A6B1C60AA02EBF1
:10538000830313ED331AAB1C02EB830353ED331A83
:10539000631B052B41D09FED9B2AEB1C60AA02EBFF
:1053A000830353ED332ADFED970A3046FFF7D8F831
:1053B0002F1D0735A54205DB00241CE7032C40F315
:1053C000B782002760AB03EB870353ED330A7B1CE6
:1053D00060AA02EB830313ED331ABB1C02EB8303B9
:1053E00053ED331AFB1C02EB830313ED332AE31B4B
:1053F000052B0CD0DFED832A9FED820A3046FFF7A4
:10540000AFF83D1D0737A742B2DB0024F3E63B1D92
:1054100002EB830353ED332AEEE72B1D02EB8303EC
:1054200013ED332AB9E7052C40F38482002521E0EF
:105430006A1CA91CE81C2F1D0DF5C07C0CEB830316
:105440000CEB87070CEB80000CEB81010CEB82026C
:105450000CEB850C53ED332A17ED332A50ED331A3C
:1054600011ED331A52ED330A1CED330A3046FFF7C3
:1054700077F806356B1DA342DADB012306E1072C22
:1054800040F35A82002521E06A1CA91CE81C2F1D4C
:105490000DF5C07C0CEB83030CEB87070CEB800055
:1054A0000CEB81010CEB82020CEB850C53ED332AE3
:1054B00017ED332A50ED331A11ED331A52ED330A3A
:1054C0001CED330A3046FFF74BF806356B1DA21E64
:1054D0009342D9DB6B1CA34280F2308260AA02EBBC
:1054E000830302EB850553ED330A15ED330A30468D
:1054F000FFF715F800247EE6072C40F321820025F3
:105500000CE060AA02EB830302EB850253ED330A41
:1055100012ED330A3046FFF702F802356B1CA21F6A
:105520009342EEDB6A1DA24280F20C82A91CE81CA9
:105530002C1D60AF07EB820207EB840407EB8000B1
:1055400007EB810107EB830307EB850552ED332A57
:1055500014ED332A50ED331A11ED331A53ED330A9B
:1055600015ED330A3046FEF7FBFF002443E6032C1B
:1055700040F3EA8114F001073ED09DED2D0A01278A
:105580001CE07A1CB91C60A800EB830300EB8101CE
:1055900000EB8202DFED1B2A13ED332A51ED331AA3
:1055A00012ED331AF0EE400A00EB870313ED330AD5
:1055B0003046FEF7D5FF04379FED120AFB1CA342CD
:1055C0001DDA1B2DDDD07A1CB91C60A800EB83030B
:1055D00000EB810100EB820253ED332A9FED092A93
:1055E00051ED331A12ED331A00EB870353ED330AF2
:1055F0003046FEF7B5FFDEE79FED020ADEE7012346
:1056000044E000BF0000000000008037BAF1000F46
:1056100005D1D9F87C30002B3DD14FF0010A002C88
:1056200040F39481013C60AB03EB840353ED337A88
:10563000FDEEE77AB8F1090F00F38A8108F101075E
:1056400008EB48080FAB03EB880309AA07CA83E8F5
:1056500007000A2D27D009F1500393E8070060AB3B
:1056600003E907000DF1240804ADCDED007A60AB2D
:1056700013E90E002846FFF7E1FB95E8070088E8EC
:105680000700104662B300230A93B846002B3FF48C
:10569000B2AD0024AFE5039A49460CA8FFF727FDF9
:1056A0004FF0010ABBE70CAB93E8070060AB03E9DE
:1056B0000700D7E7B8F1000F40F34C8108F1FF383D
:1056C00009AD08EB48030FAA02EB830393E8070038
:1056D00085E807000023D9E73046FEF7C6FE012023
:1056E00061B0BDEC088BBDE8F08F09A8FEF724FD82
:1056F0002238032800F23081DFE800F0022F5E93A9
:10570000062C40F32B81DDED2F8A9DED319ADDEDE6
:10571000329A9DED33AA1FED458AF0EE482A9DEDA1
:10572000302AF0EE681A9DED2E1AF0EE480A9DED33
:105730002D0A3046FEF714FFF0EE482AB0EE4A2A52
:10574000F1EE681AB0EE691AF0EE480AB0EE490AB6
:105750003046FEF705FF00244DE50C2C40F3008198
:105760009DED338ADDED348A9DED359ADDED369A77
:105770009DED37AADDED38AADDED322A9DED312A07
:10578000DDED301A9DED2F1ADDED2E0A9DED2D0A6F
:105790003046FEF7E5FEF0EE6A2AB0EE4A2AF0EE59
:1057A000691AB0EE491AF0EE680AB0EE480A3046BF
:1057B000FEF7D6FE00241EE5082C40F3D3809DEDB5
:1057C0002E8ADDED309A9DED32AADDED33AA9DEDF6
:1057D000349A9DED35BA5FED758AF0EE682A9DED3D
:1057E000312AF0EE691A9DED2F1AF0EE480A9DED70
:1057F0002D0A3046FEF7B4FE78EE292A72EE892A89
:10580000F1EE622AB0EE4B2AF0EE491AB0EE6A1AB7
:10581000F0EE680AB0EE4A0A3046FEF7A1FE002418
:10582000E9E40A2C40F3A0809DED2D0ADDED2E0A5F
:105830009DED2F1ADDED301A9DED312ADDED322A76
:10584000DDED338A9DED349ADDED359A9DED36AA76
:10585000DDED37AA30EE017A37EE027A37EE287A9C
:1058600037EE297A70EEA17A77EEA27A77EE897A0E
:1058700077EE8A7AB0EEC76AF0EEE76AB4EEE66ACF
:10588000F1EE10FA15DDB1EE678A3046FEF768FEDC
:10589000F0EE482AB0EE6A2AF0EE4A1AB0EE691A23
:1058A000F0EE490AB0EE680A3046FEF759FE0024D1
:1058B000A1E4B0EE6A8AF1EE47AAE6E7FF281AD023
:1058C0001C2801D01F2851DD4FF0FF3109A8FFF738
:1058D00009FA09A8FFF714FB00B207EE900AF8EEE8
:1058E000E77A2F2C44DC60AB03EB840343ED337A7F
:1058F00001340023CAE6042109A8FFF729FA07EEBC
:10590000900AF8EEE77A1FEDC07A67EE877AE8E74B
:105910000020E5E60020E3E60020E1E60020DFE6E7
:105920000020DDE60020DBE60020D9E60020D7E6F7
:105930000020D5E60020D3E60020D1E60020CFE607
:105940000020CDE60020CBE60020C9E60020C7E617
:105950000020C5E60020C3E60020C1E60020BFE627
:105960000020BDE60020BBE60020B9E60020B7E637
:105970000020B5E62DE9F0438DB006460F461546EA
:105980001C46DDF85090DDF8548030220021684636
:1059900006F0D5FF012300936A4639463046FFF7EB
:1059A00007FC25B108B1069B00E003462B6024B13B
:1059B00008B1089B00E003462360B9F1000F05D051
:1059C00008B1079B00E00346C9F80030B8F1000FAA
:1059D00009D028B90023C8F800300DB0BDE8F08325
:1059E000099BC8F800300028F7D00B98F5E70000B5
:1059F0002DE9F04F99B004460D461646416082608D
:105A000006AF002211463846FFF772F904F1380359
:105A100097E8070083E80700B44A31462846FEF7B6
:105A20000AFC8046B24A31462846FEF704FC05903F
:105A30002061B04A31462846FEF7FDFB074660610B
:105A4000AD4A31462846FEF7F6FB8346A061AB4AD5
:105A500031462846FEF7EFFB8146E061A84A314611
:105A60002846FEF7E8FB82462062A64A31462846D1
:105A7000FEF7E1FB6062A44A31462846FEF7DBFBF5
:105A8000A062B8F1000F00F02581002F00F0238103
:105A9000B9F1000F00F02381BAF1000F00F021816D
:105AA000BBF1000F1CD0059B002B00F01C81974A16
:105AB00031462846FEF7BFFB002800F0DA800430AC
:105AC0002844FEF74DFBE0604FF0FF33E36208F13E
:105AD00002002844FEF744FB814600262663D3E0FB
