:020000040800F2
:100000000000022015190008F9170008FB17000866
:10001000FD170008FF170008011800080000000085
:1000200000000000000000000000000003180008AD
:10003000051800080000000007180008091800084B
:100040006519000865190008651900086519000898
:100050006519000865190008651900086519000888
:100060006519000865190008651900086519000878
:100070006519000865190008651900086519000868
:100080006519000865190008651900086519000858
:100090006519000865190008651900086519000848
:1000A0006519000865190008651900086519000838
:1000B00065190008651900080D1800086519000881
:1000C0006519000865190008651900086519000818
:1000D0006519000865190008651900086519000808
:1000E00065190008651900086519000865190008F8
:1000F00065190008651900086519000865190008E8
:1001000065190008651900086519000865190008D7
:1001100065190008651900086519000865190008C7
:1001200065190008651900086519000865190008B7
:1001300065190008651900086519000865190008A7
:100140006519000865190008651900086519000897
:100150006519000865190008651900086519000887
:100160006519000865190008651900086519000877
:1001700065190008651900086519000800000000ED
:0801800065190008651900086B
:1001900010B5054C237833B9044B13B10448AFF3C1
:1001A00000800123237010BD4001002000000000EA
:1001B00070E3000808B5034B1BB103490348AFF3D4
:1001C000008008BD000000004401002070E300082A
:1001D00047F63003038002230A0F090130323A2A1E
:1001E00000D30732C25201330A2BF5D170470029E0
:1001F00009DA00B52D2202700130C1F1000100F0D2
:1002000002F8013000BD30B54FF0000505604560D3
:1002100085600E4BA3FB0143DC0822000A2304FB8C
:1002200003F40C1B44F030044453013511460029FB
:10023000EFD120B4013D445D425C4255445401314C
:10024000013D8D4200D0F6DC31BD0000CDCCCCCCE0
:1002500010F8012B11F8013B012A28BF9A42F7D070
:10026000D01A7047034613F8012B002AFBD1181A45
:10027000013870470000000000000000000000008E
:1002800001F0FF01102A2BDB10F0070F08D010F847
:10029000013B013A8B422DD010F0070F42B3F6D14B
:1002A000F0B441EA012141EA014122F007047FF064
:1002B00000070023F0E80256083C85EA010586EABB
:1002C000010685FA47F5A3FA87F586FA47F6A5FAF7
:1002D00087F68EB9EED1F0BC01F0FF0102F0070203
:1002E00032B110F8013B013A83EA010313B1F8D1AE
:1002F0000020704701387047002D06BF354603388F
:10030000073815F0010F07D1013015F4807F02BFC7
:10031000013015F4C03F0130F0BC0138704700BF18
:1003200081F0004102E000BF83F0004330B54FEAA6
:1003300041044FEA430594EA050F08BF90EA020F13
:100340001FBF54EA000C55EA020C7FEA645C7FEAA6
:10035000655C00F0E2804FEA5454D4EB5555B8BFC9
:100360006D420CDD2C4480EA020281EA030382EA3A
:10037000000083EA010180EA020281EA0303362DCC
:1003800088BF30BD11F0004F4FEA01314FF4801C9F
:100390004CEA113102D0404261EB410113F0004FB1
:1003A0004FEA03334CEA133302D0524263EB430368
:1003B00094EA050F00F0A780A4F10104D5F1200E06
:1003C0000DDB02FA0EFC22FA05F2801841F1000161
:1003D00003FA0EF2801843FA05F359410EE0A5F135
:1003E00020050EF1200E012A03FA0EFC28BF4CF066
:1003F000020C43FA05F3C01851EBE37101F000451C
:1004000007D54FF0000EDCF1000C7EEB00006EEB28
:100410000101B1F5801F1BD3B1F5001F0CD34908B2
:100420005FEA30004FEA3C0C04F101044FEA445209
:1004300012F5800F80F09A80BCF1004F08BF5FEA90
:10044000500C50F1000041EB045141EA050130BD70
:100450005FEA4C0C404141EB0101013C28BFB1F582
:10046000801FE9D291F0000F04BF01460020B1FACD
:1004700081F308BF2033A3F10B03B3F120020CDAA0
:100480000C3208DD02F1140CC2F10C0201FA0CF07E
:1004900021FA02F10CE002F11402D8BFC2F1200CE3
:1004A00001FA02F120FA0CFCDCBF41EA0C01904099
:1004B000E41AA2BF01EB0451294330BD6FEA0404E2
:1004C0001F3C1CDA0C340EDC04F11404C4F12002CD
:1004D00020FA04F001FA02F340EA030021FA04F3DF
:1004E00045EA030130BDC4F10C04C4F1200220FA36
:1004F00002F001FA04F340EA0300294630BD21FA74
:1005000004F0294630BD94F0000F83F4801306BF39
:1005100081F480110134013D4EE77FEA645C18BF2D
:100520007FEA655C29D094EA050F08BF90EA020FC4
:1005300005D054EA000C04BF1946104630BD91EABC
:10054000030F1EBF0021002030BD5FEA545C05D1BF
:100550004000494128BF41F0004130BD14F58004FE
:100560003CBF01F5801130BD01F0004545F0FE4172
:1005700041F470014FF0000030BD7FEA645C1ABFA7
:10058000194610467FEA655C1CBF0B46024650EADE
:10059000013406BF52EA033591EA030F41F400210A
:1005A00030BD00BF90F0000F04BF0021704730B590
:1005B0004FF4806404F132044FF000054FF0000165
:1005C00050E700BF90F0000F04BF0021704730B526
:1005D0004FF4806404F1320410F0004548BF4042FB
:1005E0004FF000013EE700BF42004FEAE2014FEA50
:1005F00031014FEA02701FBF12F07F4393F07F4F2B
:1006000081F06051704732F07F4208BF704793F02D
:100610007F4F04BF41F40021704730B54FF4607440
:1006200001F0004521F000411CE700BF50EA010243
:1006300008BF704730B54FF000050AE050EA0102EC
:1006400008BF704730B511F0004502D5404261EB5C
:1006500041014FF4806404F132045FEA915C3FF49D
:10066000D8AE4FF003025FEADC0C18BF03325FEA3A
:10067000DC0C18BF033202EBDC02C2F1200300FAEB
:1006800003FC20FA02F001FA03FE40EA0E0021FA10
:1006900002F11444BDE600BF70B54FF0FF0C4CF4FE
:1006A000E06C1CEA11541DBF1CEA135594EA0C0FB0
:1006B00095EA0C0F00F0DEF82C4481EA030621EAEB
:1006C0004C5123EA4C5350EA013518BF52EA033526
:1006D00041F4801143F4801338D0A0FB02CE4FF0D8
:1006E0000005E1FB02E506F00042E0FB03E54FF008
:1006F0000006E1FB03569CF0000F18BF4EF0010E00
:10070000A4F1FF04B6F5007F64F5407404D25FEAFB
:100710004E0E6D4146EB060642EAC62141EA5551AE
:100720004FEAC52040EA5E504FEACE2EB4F1FD0CF0
:1007300088BFBCF5E06F1ED8BEF1004F08BF5FEA6E
:10074000500E50F1000041EB045170BD06F0004620
:1007500046EA010140EA020081EA0301B4EB5C04CD
:10076000C2BFD4EB0C0541EA045170BD41F48011C5
:100770004FF0000E013C00F3AB8014F1360FDEBFEA
:10078000002001F0004170BDC4F10004203C35DAC6
:100790000C341BDC04F11404C4F1200500FA05F349
:1007A00020FA04F001FA05F240EA020001F00042EA
:1007B00021F0004110EBD37021FA04F642EB060160
:1007C0005EEA430E08BF20EAD37070BDC4F10C048A
:1007D000C4F1200500FA04F320FA05F001FA04F24E
:1007E00040EA020001F0004110EBD37041F100013A
:1007F0005EEA430E08BF20EAD37070BDC4F1200545
:1008000000FA05F24EEA020E20FA04F301FA05F2AC
:1008100043EA020321FA04F001F0004121FA04F254
:1008200020EA020000EBD3705EEA430E08BF20EA24
:10083000D37070BD94F0000F0FD101F0004640005E
:1008400041EB010111F4801F08BF013CF7D041EAE0
:10085000060195F0000F18BF704703F000465200E4
:1008600043EB030313F4801F08BF013DF7D043EAB5
:100870000603704794EA0C0F0CEA135518BF95EA6B
:100880000C0F0CD050EA410618BF52EA4306D1D1F2
:1008900081EA030101F000414FF0000070BD50EA11
:1008A000410606BF1046194652EA430619D094EA9B
:1008B0000C0F02D150EA013613D195EA0C0F05D185
:1008C00052EA03361CBF104619460AD181EA0301D9
:1008D00001F0004141F0FE4141F470014FF0000091
:1008E00070BD41F0FE4141F4780170BD70B54FF02C
:1008F000FF0C4CF4E06C1CEA11541DBF1CEA1355AC
:1009000094EA0C0F95EA0C0F00F0A7F8A4EB05048D
:1009100081EA030E52EA03354FEA013100F0888084
:100920004FEA03334FF0805545EA131343EA12634D
:100930004FEA022245EA111545EA10654FEA002602
:100940000EF000419D4208BF964244F1FD0404F5BB
:10095000407402D25B084FEA3202B61A65EB030517
:100960005B084FEA32024FF480104FF4002CB6EBD4
:10097000020E75EB030E22BFB61A754640EA0C0054
:100980005B084FEA3202B6EB020E75EB030E22BF94
:10099000B61A754640EA5C005B084FEA3202B6EBD5
:1009A000020E75EB030E22BFB61A754640EA9C0094
:1009B0005B084FEA3202B6EB020E75EB030E22BF64
:1009C000B61A754640EADC0055EA060E18D04FEA22
:1009D000051545EA16754FEA06164FEAC30343EAC2
:1009E00052734FEAC2025FEA1C1CC0D111F4801F8F
:1009F0000BD141EA00014FF000004FF0004CB6E788
:100A000011F4801F04BF01430020B4F1FD0C88BF26
:100A1000BCF5E06F3FF6AFAEB5EB030C04BFB6EB31
:100A2000020C5FEA500C50F1000041EB045170BD24
:100A30000EF0004E4EEA113114EB5C04C2BFD4EB51
:100A40000C0541EA045170BD41F480114FF0000ED5
:100A5000013C90E645EA060E8DE60CEA135594EA51
:100A60000C0F08BF95EA0C0F3FF43BAF94EA0C0F54
:100A70000AD150EA01347FF434AF95EA0C0F7FF4C9
:100A800025AF104619462CE795EA0C0F06D152EA1D
:100A900003353FF4FDAE1046194622E750EA410601
:100AA00018BF52EA43067FF4C5AE50EA41047FF412
:100AB0000DAF52EA43057FF4EBAE12E74FF0FF3C77
:100AC00006E000BF4FF0010C02E000BF4FF0010C48
:100AD0004DF804CD4FEA410C7FEA6C5C4FEA430CC1
:100AE00018BF7FEA6C5C1BD001B050EA410C0CBF10
:100AF00052EA430C91EA030F02BF90EA020F002072
:100B0000704710F1000F91EA030F58BF994208BFD8
:100B100090422CBFD8176FEAE37040F00100704795
:100B20004FEA410C7FEA6C5C02D150EA013C07D1EC
:100B30004FEA430C7FEA6C5CD6D152EA033CD3D037
:100B40005DF8040B704700BF8446104662468C4631
:100B50001946634600E000BF01B5FFF7B7FF002864
:100B600048BF10F1000F01BD4DF808EDFFF7F4FF8D
:100B70000CBF012000205DF808FB00BF4DF808ED18
:100B8000FFF7EAFF34BF012000205DF808FB00BF3B
:100B90004DF808EDFFF7E0FF94BF012000205DF85D
:100BA00008FB00BF4DF808EDFFF7CEFF94BF012012
:100BB00000205DF808FB00BF4DF808EDFFF7C4FF0B
:100BC00034BF012000205DF808FB00BF4FEA410C54
:100BD0007FEA6C5C02D150EA013C0AD14FEA430C37
:100BE0007FEA6C5C02D152EA033C02D14FF0000074
:100BF00070474FF0010070474FEA410212F50012B2
:100C000015D211D56FF47873B3EB625212D94FEA53
:100C1000C12343F0004343EA505311F0004F23FA3D
:100C200002F018BF404270474FF00000704750EA92
:100C3000013005D111F0004008BF6FF0004070474F
:100C40004FF00000704700BF4FEA4102B2F1E043AD
:100C500024BFB3F5001CDCF1FE5C0DD901F0004CA3
:100C60004FEAC0024CEA5070B2F1004F40EB8300F3
:100C700008BF20F00100704711F0804F21D113F11F
:100C80003872BCBF01F00040704741F480114FEA58
:100C90005252C2F11802C2F1200C10FA0CF320FAE1
:100CA00002F018BF40F001004FEAC1234FEAD323FE
:100CB00003FA0CFC40EA0C0023FA02F34FEA430368
:100CC000CCE77FEA625307D150EA01331EBF4FF0F1
:100CD000FE4040F44000704701F0004040F0FE400C
:100CE00040F40000704700BF7BB972B90029BEBF55
:100CF00000204FF0004106E008BF00281CBF6FF045
:100D000000414FF0FF3000F0D3B9ADF1080C6DE9B0
:100D100004CE002909DB002B1ADB00F04DF8DDF8CA
:100D200004E0DDE9022304B07047404261EB410179
:100D3000002B1BDB00F040F8DDF804E0DDE90223C6
:100D400004B0404261EB4101524263EB4303704700
:100D5000524263EB430300F02FF8DDF804E0DDE9D5
:100D6000022304B0404261EB41017047524263EB01
:100D7000430300F021F8DDF804E0DDE9022304B0CC
:100D8000524263EB4303704753B94AB9002908BF85
:100D900000281CBF4FF0FF314FF0FF3000F088B942
:100DA000ADF1080C6DE904CE00F006F8DDF804E0C2
:100DB000DDE9022304B070472DE9F047089D8E4617
:100DC00004468846002B4AD18A42174662D9B2FAB5
:100DD00082F64EB1C6F1200301FA06F820FA03F3B9
:100DE000B74043EA0808B4404FEA174E1FFA87FCA1
:100DF000B8FBFEF1230C0EFB118843EA084301FB0C
:100E00000CF29A4209D9FB1801F1FF3080F0EA8018
:100E10009A4240F2E78002393B449A1AA3B2B2FBED
:100E2000FEF00EFB102243EA024300FB0CFC9C4543
:100E300009D9FB1800F1FF3280F0D6809C4540F2C2
:100E4000D3803B44023840EA0140A3EB0C0300216D
:100E50001DB1F3400022C5E90032BDE8F0878B42A6
:100E600005D90DB1C5E9000100210846F5E7B3FA3F
:100E700083F1002946D1734502D3824200F20581F5
:100E8000841A6EEB030201209046002DE5D0C5E9DF
:100E90000048E2E7002A00F09080B2FA82F6002EC5
:100EA00040F0A4808A1A030C4FEA174E80B2BCB2FD
:100EB0000121B2FBFEFC0EFB1C2243EA024304FBB1
:100EC0000CF29A4207D9FB180CF1FF3802D29A4271
:100ED00000F2E080C4469B1AB3FBFEF20EFB123315
:100EE00040EA034302FB04F49C4207D9FB1802F1D9
:100EF000FF3002D29C4200F2CA8002461B1B42EA2B
:100F00000C40A5E7C1F120068B4022FA06F71F43EB
:100F10000EFA01F420FA06F32EFA06FE4FEA1749FC
:100F2000234300FA01F81FFA87FCBEFBF9F01C0C02
:100F300009FB10EE44EA0E4400FB0CFEA64502FA43
:100F400001F209D93C1900F1FF3A80F09C80A645D6
:100F500040F2998002383C44A4EB0E041FFA83FE51
:100F6000B4FBF9F309FB13444EEA044403FB0CFC05
:100F7000A44508D93C1903F1FF3E80F08280A445C6
:100F80007FD9023B3C4443EA0040A4EB0C04A0FBA5
:100F900002EC64457346E14662D35FD05DB1B8EBC5
:100FA000030264EB090404FA06F622FA01F31E4375
:100FB000CC40C5E9006400214FE7B1FBF2FC010C15
:100FC00041EA0E4180B240EA01423B4638463C4687
:100FD000B846BE462026B1FBF7F1A2EB080241EA73
:100FE0000C4166E7014618E710462CE7C6F12002DF
:100FF0002EFA02F3B740B14020FA02F24FEA174E40
:101000000A43B3FBFEF8BCB20EFB1833110C41EAE5
:10101000034108FB04F9B04089454FEA104380B210
:101020003ED9791808F1FF3C01D289451FD8A1EBC0
:101030000901B1FBFEF909FB04F80EFB191192B28C
:1010400042EA0142424529D2BA1809F1FF31C4D21D
:101050004245C2D2A9F102013A44BEE7F0459DD211
:10106000BEEB02036CEB070C0138E14696E7A7EBF9
:1010700009094944A8F1020CB1FBFEF909FB04F887
:10108000DBE773467FE7504666E70846FDE63B44EC
:10109000023A33E7ACF1020C3B441CE749469CE7BB
:1010A000A1EB0901C446B1FBFEF909FB04F8C4E752
:1010B000704700BF30B5002495B02146142203A824
:1010C000CDE90B440D940AF081FC214B01941A6C7C
:1010D00042F080521A641B6C03F080530193019B11
:1010E0001C4B02941A6842F480421A601B6803F495
:1010F00080430293029B05254FF48033CDE90853CA
:10110000012302240A934FF48003CDE90E43042106
:10111000A823CDE9101308A807231294139300F015
:10112000D1FD08B172B6FEE70F23CDE90334059077
:101130004FF4A0524FF48053294603A8CDE906236B
:1011400000F09CFF08B172B6FEE715B030BD00BFDD
:1011500000380240007000402DE9F04397B000F0E5
:1011600027FCFFF7A7FF142200210FA80AF02EFC8E
:101170000024B14B00941A6BB04842F010021A637D
:101180001A6B02F010020092009A01941A6B42F05E
:1011900004021A631A6B02F004020192019A02948B
:1011A0001A6B42F080021A631A6B02F080020292FC
:1011B000029A03941A6B42F001021A631A6B02F04E
:1011C00001020392039A04941A6B42F002021A631A
:1011D0001A6B02F002020492049A05941A6B42F010
:1011E00008021A631B6B03F008030593012241F206
:1011F0000101059B00F060FD224690484FF420411C
:1012000000F05AFD032777238D4811940FA901257B
:10121000CDE90F374FF0080800F070FC88481195B1
:101220000FA9CDE90F8400F069FC43F6DF73854810
:1012300011940FA9CDE90F3700F060FC49F6FF7358
:10124000814811940FA9CDE90F3700F057FC2022F7
:101250004FF404137B4811950FA9CDE90F23022603
:1012600000F04CFC754811950FA9CDE90F55129669
:1012700000F044FC40F6C473704811940FA9CDE906
:101280000F3700F03BFC4FF430436C480FA9CDE919
:101290000F354FF48049CDE9114600F02FFC674827
:1012A00011940FA91025CDE90F9400F027FC41F609
:1012B0004C03664811940FA9CDE90F3700F01EFCCE
:1012C0002A4621460BA80AF081FB2A46214612A88D
:1012D0000AF07CFB5E480C954FF020433C220360F3
:1012E00003F582730421C0E901340A920F2311220D
:1012F000CDE90F13CDE90833CDE913524FF48057F0
:101300000D9205230FAA08A9C0E90344C0E90554BA
:10131000C0E90744C0E90A74C0E90C9444628463DC
:101320004464119301F02DFD08B172B6FEE74948FF
:10133000494B036000F0D4FF034608B172B6FEE7E4
:101340004648474A8361C0E900234FF07F09FF22E6
:10135000C0E90433C0E9029201F05BF8034608B12A
:1013600072B6FEE73F48DFF80CE183624FF4827209
:10137000C0E900E2C0E90233C0E90433C0E9083340
:101380004FF400720A23C0E90628C36201F04EFA46
:1013900008B172B6FEE7344CDFF8DCC0A060CDE9DE
:1013A0000F0053234FF6FF79A0612046C4E900C324
:1013B000C4F80C9001F0D2FE08B172B6FEE7CDE998
:1013C0000F000FA9204602F0BBF8804608B172B6A4
:1013D000FEE701462A4608A80AF0F8FA1C22414610
:1013E0000FA8224CCDE906880AF0F0FA204BC4F889
:1013F0001080C4E9003620468023C4E90289A36135
:1014000001F0ACFE08B172B6FEE708A920460897C5
:1014100001F08EFF08B172B6FEE7204601F0CAFE69
:1014200008B172B6FEE7CDE9060006A9204602F033
:1014300087F818B372B6FEE7003802400004024095
:10144000001002400008024000000240000C024070
:10145000780100201803002000080650F802002040
:1014600000280040A0020020C801002058020020EF
:1014700000040040003001400010004000236021C3
:10148000CDE90F133D4811930C220FA9139301F0DE
:10149000EDFE064608B172B6FEE73848384D00F05A
:1014A0004DF9102231460FA80AF090FA354AAE6085
:1014B00042F2CF03C5E90023284641F28733CDE944
:1014C0000866C5E90336AE6101F048FE08B172B6A0
:1014D000FEE74FF480530FA928460F9301F028FF31
:1014E00008B172B6FEE7CDE9080008A9284602F067
:1014F00027F808B172B6FEE706F086FB06F076FB29
:10150000284601F025FD0C211C4802F017F80221A5
:101510001D4801F0C0F81D4B032118701A4801F056
:10152000BAF81B4B187006F0A7FA23684FF6FF7540
:101530001D6406F093FB08F037FE06F065FB154BC3
:10154000187808F0F5FD072005F064FE012000F092
:101550005BFA23681D64203D6B1CF7D1002008F066
:10156000CDFD4FF4FA7000F04FFA06F0A9FB06F03B
:1015700007FC06F091FC08F07DF8FAE7580200201D
:101580001002002000080040F80200205F05002043
:101590005D0500206305002072B6FEE782B00C4BAB
:1015A000002100915A6C42F480425A645A6C02F451
:1015B00080420092009A01911A6C42F080521A64A3
:1015C0001B6C03F080530193019B02B0704700BF76
:1015D000003802400268094B9A4282B00BD10023C6
:1015E0000193074B5A6B42F040025A635B6B03F066
:1015F00040030193019B02B0704700BF00080650F2
:10160000003802401FB504461022002168460AF047
:10161000DDF92268094B9A420ED1022300936846F5
:101620004FF48073039300F0C3FD08B1FFF7B4FFDC
:10163000034B0122C3F83C2E04B010BD002800402B
:101640000000474210B5044688B01422002103A8C8
:101650000AF0BCF92268144B9A4222D103F5843374
:10166000002101915A6C114842F480525A645A6C1C
:1016700002F480520192019A02911A6B42F0020226
:101680001A631B6B03F002030293029B38220223AE
:101690000321CDE903230523CDE9061303A900F0B7
:1016A0002DFA08B010BD00BF003001400004024018
:1016B0001FB503681D4A93420ED1002301931C4BB2
:1016C0001A6C42F002021A641B6C03F002030193CD
:1016D000019B05B05DF804FB164A934215D1002228
:1016E000134B0292196C41F0040119641B6C03F056
:1016F0000403029311461E20029B00F0ABF91E204A
:1017000005B05DF804EB00F0D7B90B4A9342E0D185
:1017100000230393064B1A6C42F010021A641B6CF0
:1017200003F010030393039BD3E700BF00040040C2
:1017300000380240000800400010004010B5044688
:1017400086B01422002101A80AF040F922680C4B4F
:101750009A4213D1002300930A4B0B481A6B42F0B4
:1017600002021A631B6B03F002030093009B01A9A2
:101770000223CDE90133059300F0C0F906B010BD96
:10178000000400400038024000040240F0B587B079
:1017900000230393144B1C6824BB01221A60134BD3
:1017A00000949A6B124842F001029A639B6B03F01B
:1017B00001030093009B02274FF6807303260C253C
:1017C00001A9CDE90137CDE9046500F097F94EF2A2
:1017D000B3730848059501A9CDE90137CDE9034662
:1017E00000F08CF907B0F0BD28030020003802405B
:1017F00000100240000C0240FEE7FEE7FEE7FEE7B5
:10180000FEE770477047704700F0ECB810B50D4C1C
:10181000204601F0BBFB204601F09AFB0A4A0B4C24
:10182000136823F001031360242123880C229E20D7
:1018300005F0B4FD23880C22BDE810404E219E2007
:1018400005F0ACBD10020020000800403803002065
:101850000120704708B50AF059FF162303604FF0C6
:10186000FF3008BD08B50AF051FF16230360FEE7FC
:1018700070B50D4614460E46731B9C4201DC204693
:1018800070BDAFF3008006F8010BF5E770B50D46AB
:1018900014460E46731B9C4201DC204670BD16F8B0
:1018A000010BAFF30080F5E74FF0FF3070474FF4C6
:1018B00000534B60002070470120704700207047A4
:1018C0000B4A116810B5034609B90A49116010683E
:1018D00009490A4C0344091B8B4206D90AF016FF3A
:1018E0000C2303604FF0FF3010BD1360FCE700BF16
:1018F00030030020301B0020000002200008000000
:10190000034AD2F8883043F47003C2F88830704735
:1019100000ED00E0DFF834D0FFF7F2FF0C480D498E
:101920000D4A002302E0D458C4500433C4188C423A
:10193000F9D30A4A0A4C002301E013600432A242A0
:10194000FBD30AF0E9FEFFF707FC70470000022016
:101950000000002040010020002703084001002073
:10196000301B0020FEE7000038B50E4B1A784FF40C
:101970007A73B3FBF2F30C4A05461068B0FBF3F040
:1019800000F0A8F8044658B90F2D09D80246294698
:101990004FF0FF3000F05EF8044B20461D6038BD6C
:1019A0000120FCE708000020040000200C000020BB
:1019B00008B50B4B1A6842F400721A601A6842F4B8
:1019C00080621A601A6842F480721A60032000F084
:1019D0002FF80020FFF7C8FFFFF7E0FD002008BD4B
:1019E000003C0240034A044B11681B780B4413600F
:1019F000704700BF3403002008000020014B186826
:101A0000704700BF3403002038B50446FFF7F6FFE7
:101A1000631C1CBF054B1B78054618BFE418FFF775
:101A2000EDFF431BA342FAD338BD00BF08000020DE
:101A30000749CA6822F4E0620302120403F4E06377
:101A4000120C134343F0BF6343F40033CB60704781
:101A500000ED00E0164B30B5DC68C4F30224C4F19D
:101A60000703251D042B28BF0423062D4FF0FF3547
:101A70008CBF033C002405FA03F321EA0303A540CD
:101A800022EA0502A340002843EA0203ACBF00F1AA
:101A90006040084A4FEA0313B8BF00F00F00DBB202
:101AA000AABF00F56140135480F8003330BD00BF79
:101AB00000ED00E014ED00E0002807DB044A4109D6
:101AC000012300F01F00834042F82130704700BF1F
:101AD00000E100E00138B0F1807F0BD24FF0E0234D
:101AE000054A5861F02182F82310002007229861EE
:101AF0001A6170470120704700ED00E02DE9F74FB3
:101B0000DFF8A491664A00230D6801249C4004EA92
:101B10000506AC4340F0AF804D68032705F0030491
:101B20004FEA430807FA08FC671E012F6FEA0C0C06
:101B300034D8876807EA0C0ECF6807FA08F747EA37
:101B40000E078760476827EA060EC5F300179F4017
:101B500047EA0E074760C76807EA0C0E8F6807FA66
:101B600008F747EA0E07022CC76019D14FEAD30ADB
:101B700000EB8A0A03F0070BDAF820704FEA8B0BB0
:101B80004FF00F0E0EFA0BFE27EA0E0E0F6907FA42
:101B90000BF747EA0E07CAF8207001E0032CDAD1F0
:101BA000076804FA08F407EA0C073C4315F4403FC1
:101BB000046060D000240194D9F8444044F4804487
:101BC000C9F84440D9F8444023F0030707F180479F
:101BD00004F4804407F59C37019403F0030C019C46
:101BE000D7F808E04FEA8C0C0F2404FA0CF42EEA24
:101BF000040E2C4CA04245D004F58064A04243D092
:101C000004F58064A04241D004F58064A0423FD036
:101C100004F58064A0423DD004F58064A0423BD02E
:101C200004F58064A04239D004F58064A04214BF5A
:101C30000824072404FA0CF444EA0E04BC609468F7
:101C4000F74315F4801F0CBF3C4034439460D468C4
:101C500015F4001F0CBF3C403443D460546815F4A5
:101C6000003F0CBF3C40344354601468ED0354BF44
:101C70003C40344314600133102B7FF445AF03B074
:101C8000BDE8F08F0024D5E70124D3E70224D1E793
:101C90000324CFE70424CDE70524CBE70624C9E7D6
:101CA000003C014000000240003802400369194234
:101CB00014BF0120002070470AB1816170470904F8
:101CC000FBE700002DE9F341044640B30368DE075B
:101CD00010D423689D075BD42368190700F19D8009
:101CE00023685A0700F1BD80A369002B40F02481CE
:101CF00000202CE08D4B9A6802F00C02042A07D0D9
:101D00009A6802F00C02082A0BD15B68590208D5C8
:101D1000864B1B689A03DCD56368002BD9D1012060
:101D200015E06368814DB3F5803F13D12B6843F410
:101D300080332B60FFF762FE7C4E054633689B03C1
:101D4000C7D4FFF75BFE401B6428F7D9032002B01D
:101D5000BDE8F081B3F5A02F04D12B6843F48023B4
:101D60002B60E3E72A6822F480322A602A6822F492
:101D700080222A60002BDDD1FFF740FE06462B684B
:101D80009F03A6D5FFF73AFE801B6428F7D9DDE74D
:101D9000664B9A6812F00C0F07D09A6802F00C029A
:101DA000082A11D15B685D020ED4604A1368990756
:101DB00002D5E368012BB2D11368216923F0F8033F
:101DC00043EAC103136087E7E268594BB2B10122CD
:101DD0001A60FFF713FE554D06462B689B0707D583
:101DE0002B68226923F0F80343EAC2032B6073E7F0
:101DF000FFF704FE801B0228EFD9A7E71A60FFF760
:101E0000FDFD4A4E054633689F077FF565AFFFF736
:101E1000F5FD401B0228F6D998E76269444B82B170
:101E20000122C3F8802EFFF7E9FD404E0546736F8F
:101E30009B073FF555AFFFF7E1FD401B0228F6D9A0
:101E400084E7C3F8802EFFF7D9FD384E0546736F3F
:101E50009F077FF545AFFFF7D1FD401B0228F6D95C
:101E600074E7324B1A6C12F0805228D101921A6C2E
:101E700042F080521A641B6C03F080530193019B63
:101E800001272C4D2B68D8051BD5A368274D012BA6
:101E900027D12B6F43F001032B67FFF7AFFD234ED4
:101EA000054641F28838336F9A0739D5002F3FF441
:101EB0001BAF1E4A136C23F08053136414E70027F2
:101EC000DFE72B6843F480732B60FFF797FD06462E
:101ED0002B68D905D9D4FFF791FD801B0228F7D9CB
:101EE00034E7052B04D12B6F43F004032B67D0E7B5
:101EF0002A6F22F001022A672A6F22F004022A6761
:101F0000002BCAD1FFF77AFD41F2883806462B6FC5
:101F10009B07CBD5FFF772FD801B4045F7D915E72E
:101F2000FFF76CFD401B4045BDD90FE7003802406C
:101F30000000474200700040374DAA6802F00C02D2
:101F4000082A3ED0022B354B4FF000021A662BD1E7
:101F5000FFF754FD06462B6899011FD4D4E90732D8
:101F60001343626A43EA8213E26A43EA0263A26AA3
:101F70005208013A43EA02436B60284B264D012286
:101F80001A66FFF73BFD04462B689A013FF5B0AE99
:101F9000FFF734FD001B0228F6D9D7E6FFF72EFD28
:101FA000801B0228D7D9D1E6FFF728FD04462B680D
:101FB0009B017FF59DAEFFF721FD001B0228F6D99E
:101FC000C4E6012B3FF4ABAE6B68E26903F4800119
:101FD00091427FF4A4AE216A03F03F028A427FF46B
:101FE0009EAE616A47F6C0721A40B2EB811F7FF461
:101FF00096AEA26A520803F44031013AB1EB024FA7
:102000007FF48DAEE26A03F07063B3EB026F14BF2E
:10201000012000209BE600BF00380240000047423C
:10202000134908B58B6803F00C03042B1CD0082B54
:102030001CD14A684B68496813F4800314BF0D48EB
:102040000D48C1F3881118BF002302F03F02A1FB25
:102050000001FEF799FE064B5B68C3F301430133B1
:102060005B00B0FBF3F008BD0248FCE70248FAE76A
:102070000038024000127A000024F4002DE9F041FB
:102080000D46044610B90120BDE8F081434B1A68A3
:1020900002F007028A4228D321688F072DD4C8078F
:1020A00040D43E4B1A6802F00702AA4265D8226863
:1020B00051076BD4130707D5394A2169936823F474
:1020C000604343EAC1039360FFF7AAFF344B354AEC
:1020D0009B68C3F30313D35CD840334B1860334B76
:1020E0001868FFF741FC0020CEE7CAB21A701B68DF
:1020F00003F007038B42C6D1CEE7294B11F0040F42
:102100001EBF9A6842F4E0529A600E0742BF9A6876
:1021100042F460429A609A68A06822F0F00202439A
:102120009A60BCE762681E4B012A1CD11B6813F43D
:10213000003FA8D01A4EB36823F003031343B360E3
:10214000FFF75CFC41F288380746B368626803F029
:102150000C03B3EB820FA4D0FFF750FCC01B40452B
:10216000F3D9032090E7911E01291B6802D813F0D0
:10217000007FDEE713F0020FDBE7EAB21A701B689C
:1021800003F00703AB427FF47EAF90E70449E068B9
:102190008B6823F4E05303438B608BE7003C0240E1
:1021A00000380240B0E30008040000200C000020CA
:1021B000036813F0050FF7B5044605D123689B07A4
:1021C0002AD4002003B0F0BD424B434E00229A6651
:1021D000FFF714FC054633681F0116D4D4E9012328
:1021E0001B0743EA8213C6F884303A4B3A4E012269
:1021F0009A66FFF703FC054633681801DED4FFF743
:10220000FDFB401B0228F7D904E0FFF7F7FB401B5A
:102210000228E0D90320D5E7002301932E4B2F4D50
:102220001A6C42F080521A641B6C03F080530193C5
:10223000019B2B6843F480732B60FFF7DFFB06469E
:102240002B68D9051BD5244DE2682B6F13F440731E
:102250001BD1E36803F44072B2F5407F1E4A34D1CB
:10226000916823F0704021F4F81120F4407001438C
:102270009160116FC3F30B030B431367A1E7FFF7E3
:10228000BDFB801B0228DBD9C4E702F440729342F5
:10229000DFD02B6F0F4A0121C2F8401E23F4407398
:1022A0000021C2F8401E2B672B6FDA07D1D5FFF74C
:1022B000A5FB41F2883706462B6F9B07C9D4FFF771
:1022C0009DFB801BB842F7D9A4E7916821F4F8116F
:1022D000CEE700BF000047420038024000700040D7
:1022E00010B5044690B1437903F0FF0213B90271AF
:1022F000FFF770F9226802236371136843F0040347
:102300001360002001236371A06010BD0120FCE771
:10231000F8B50379012B04460E462BD042790123F0
:102320009A420371D5B221D102234371FFF766FBB4
:10233000074623685A68D20707D59B68E360336075
:1023400001236371002500230DE0FFF757FBC01B3D
:102350000228EED923685B6813F00103E9D101225A
:1023600062710222A26023712846F8BD04228260B5
:102370001D46E8E70225F7E738B50368094ADA6041
:102380000446FFF73BFB05462368DB689B0601D547
:10239000002038BDFFF732FB401BB0F57A7FF3D940
:1023A0000320F6E75F7F0100036870B5DC6814F076
:1023B0004004054617D1DA6842F08002DA60FFF780
:1023C0001DFB06462B68DB685B0600D40CB120467B
:1023D00070BDFFF713FB801BB0F57A7F82BF04232B
:1023E0006B770124EEE70024F1E70368DA6822F056
:1023F000800210B5DA609B689B06044601D5002078
:1024000010BDFFF7B9FF0028F9D00423637701203E
:10241000F6E710B50446002841D0437F03F0FF02E1
:1024200013B90277FFF7EEF8022363772368DA68BF
:10243000D20603D501236377002010BDCA225A6259
:1024400053225A622046FFF7AFFF10BB2368206972
:102450009A6822F4E00222F040029A606268996869
:102460000243606902430A439A60E2681A611A698A
:10247000A16842EA01421A612046FFF7B6FF40B95F
:102480002368A1691A6C22F480221A641A6C0A4328
:102490001A642368FF225A620028CBD0CDE70120BE
:1024A000CBE70023092803D840EA0310C0B27047E5
:1024B0000A380133C0B2F5E72DE9F041037F012B63
:1024C00006460F464FF0020041D0012331683377B2
:1024D000707738787D78BC788B68002A39D113F012
:1024E000400308BFFB70FFF7DCFF80462846FFF77C
:1024F000D8FF02462046FFF7D4FFFB7840EA83531B
:1025000043EA084343EA0224CA234B6253234B6243
:102510003046FFF749FFA8B9326804F07F3424F051
:10252000FE441460936823F480239360D7E903305A
:10253000916803430B4393603046FFF756FF08B999
:10254000012373773368FF225A6200233377BDE893
:10255000F08113F0400308BFFB702D02FA7845EAC2
:10256000004545EA040343EA8254CDE7F8B5037F0A
:10257000012B05464FF0020027D001232B77687707
:102580000E78C8784C788F787603FAB146EA004323
:102590003B4343EA04242B68CA225A6253225A62FC
:1025A0002846FFF701FF58B92A6824F07F4424F039
:1025B000C00454602846FFF718FF08B901236B7761
:1025C0002B68FF225A6200232B77F8BDE30642BF37
:1025D00024F010040A344C70FFF763FF0446487877
:1025E000FFF75FFF02463846FFF75BFF40EA06034E
:1025F00043EA044343EA0224CDE7030903EB8303E0
:1026000000F00F0000EB4300C0B2704738B503681C
:10261000986A486018691B68C0F30E00C3F306256A
:1026200003F07F048860C3F30540C3F38053087050
:102630004D708C70CB7052B9FFF7DFFF08702846E1
:10264000FFF7DBFF48702046FFF7D7FF88700020B8
:1026500038BD38B503685B68C3F30740C3F304258E
:1026600003F03F04C3F34233C8704D708C700B709D
:1026700052B9FFF7C2FFC8702846FFF7BEFF487087
:102680002046FFF7BAFF8870002038BD036850333A
:1026900043F8212070470368503353F821007047F6
:1026A0002DE9F3471F46894690460446FFF7A6F9F1
:1026B0000A9D3D442D1AFFF7A1F9264B1E68C6F36B
:1026C000CB366E43824601962268936839EA03034B
:1026D0000CBF01230023434501D100202EE07B1CC9
:1026E000F3D0FFF78BF9A0EB0A00A84229D32368A7
:1026F0005A6822F0E0025A606268B2F5827F0AD11D
:10270000A268B2F5004F02D0B2F5806F03D11A680B
:1027100022F040021A60A26AB2F5005F07D11A687F
:1027200022F400521A601A6842F400521A6001231F
:1027300084F85130002384F85030032002B0BDE803
:10274000F087019B1BB1019B013B0193BCE71D4638
:10275000BAE700BF04000020F0B585B00B46009238
:102760000E461746022101220446FFF799FF05464F
:1027700028B1636D43F020036365032515E0124B18
:102780001868124BB0FBF3F04FF47A735843636848
:102790000390B3F5827F0BD1009733462A46802100
:1027A0002046FFF77DFF0028E3D1284605B0F0BDA5
:1027B000039B002BF9D0039B013B039323689B6889
:1027C0001B06F5D4F1E700BF0400002000366E01BF
:1027D00037B50B464168B1F5827F044608D00092B8
:1027E00001210022FFF75CFFD0B9002003B030BD0B
:1027F0008168B1F5004F02D0B1F5806F07D125682F
:102800002868B1F5806F20F04000286004D0009265
:10281000802100222046E5E7009201210022F9E70D
:10282000636D43F0200363650320DFE710B50446C2
:10283000002855D0436A002B4ED14268B2F5827F02
:1028400000D0C3610023A36294F8513003F0FF026B
:1028500023B984F850202046FEF7F4FE2168A068D2
:10286000A269022384F851300B6823F040030B6007
:10287000636800F4044003F482730343E06800F4E7
:1028800000600343206900F002000343606900F028
:102890000100034302F400700343E06900F03800D4
:1028A0000343206A00F080000343A06A00F4005054
:1028B00003430B60636A120C03F0100302F004027E
:1028C0001A434A60CB6923F40063CB6100200123E3
:1028D000606584F8513010BD0023C0E90433B1E7CE
:1028E0000120F8E72DE9F74304461F460D469046C0
:1028F000FFF784F894F85130012B8146D8B240F0AC
:102900009F80002D74D0B8F1000F71D094F8503032
:10291000012B00F09580032384F851300023636578
:10292000C4E91033A4F83680A363A387E387A368C0
:10293000266884F85000B3F5004F2563A4F834806E
:1029400007D1336823F040033360336843F4804396
:1029500033603368E2685B065EBF336843F0400370
:102960003360B2F5006F636845D113B1B8F1010F60
:1029700007D135F8023BF3602563E38E013B9BB240
:10298000E386E38E9BB2D3B94A4639462046FFF729
:10299000E3FE002851D1A36833B901932368DA68B4
:1029A00001929B680193019B012384F85130606D73
:1029B0000023C01A84F8503018BF012018E02268A4
:1029C0009368980705D5236B33F8021BD160236306
:1029D000D3E7FFF713F8A0EB0900B842D1D3791C75
:1029E000CFD0012384F85130002384F850300320E5
:1029F00003B0BDE8F08313B1B8F1010F08D12B7813
:102A00003373236B01332363E38E013B9BB2E38675
:102A1000E38E9BB2002BB7D023689A68920703D548
:102A2000226B12781A73ECE7FEF7E8FFA0EB0900BF
:102A3000B842EDD37B1CEBD0D3E720236365AAE734
:102A40000220D5E72DE9F74304460D4691461E4680
:102A5000DDF82880FEF7D2FF94F851306268012B30
:102A60000746D9B20AD0B2F5827F40F0E580A3686C
:102A7000002B40F0E180042940F0DE80002D4BD097
:102A8000B9F1000F48D0002E46D094F85030012BF9
:102A900000F0D280012384F8503094F85130C4F80B
:102AA0003890042B1CBF052384F851300023636544
:102AB000C4E910332368E687E6861968A6874906C5
:102AC00058BF1968256358BF41F04001A68658BF1A
:102AD0001960E168B1F5006F55D10AB1012E07D137
:102AE00035F8022BDA60E38E2563013B9BB2E38667
:102AF0000125E38E9BB28BB9E38F9BB273B93A4643
:102B000041462046FFF728FE002800F08180202360
:102B10006365002384F85030012031E021688B6820
:102B20009A070DD5E38E9BB253B145B1236B33F8B1
:102B3000022BCA602363E38E013B9BB2E386002530
:102B40008A6812F001020CD0E38F9BB24BB1A36BE9
:102B5000C96823F8021BA363E38F013B9BB2E387A1
:102B60001546FEF74BFFC01B4045C2D3B8F1FF3FEF
:102B7000BFD0012384F85130002384F85030032063
:102B800003B0BDE8F0830AB1012E08D12A781A7388
:102B9000236B01332363E38E013B9BB2E386012564
:102BA0002DE0226893689B070ED5E38E9BB25BB144
:102BB0004DB1236B1B781373236B01332363E38EB7
:102BC000013B9BB2E38600252268916811F0010168
:102BD0000DD0E38F9BB253B1A36BD2681A70A36B75
:102BE0000133A363E38F013B9BB2E3870D46FEF7FE
:102BF00005FFC01B404502D3B8F1FF3FB9D1E38EBA
:102C00009BB2002BCDD1E38F9BB2002BC9D176E7CD
:102C1000A36833B901932368DA6801929B68019332
:102C2000019B012384F85130606D0023C01A84F8A1
:102C3000503018BF0120A3E70220A1E72DE9F74398
:102C40001E4690F85130012B044689461746DDB2E6
:102C500004D00225284603B0BDE8F0830029F9D04E
:102C6000002AF7D04368B3F5827F0BD183684BB954
:102C7000042380F85130134600960A46FFF7E2FE1F
:102C80000546E7E7FEF7BAFE94F85030012B804680
:102C9000DFD0A268C4F838900123002584F85030B2
:102CA000B2F5004F4FF0040384F85130C4E91055D9
:102CB00065652368E787A7872563A586E58607D12D
:102CC0001A6822F040021A601A6822F480421A60E0
:102CD0001A6855065EBF1A6842F040021A60E3683F
:102CE000F3B1E38F9BB2FBB123689A68D2073CD55E
:102CF000DA68A36B23F8022BA363E38F013B9BB23B
:102D0000E387EEE723689A68D0071ED5A26B1B7B8A
:102D10001370A36B0133A363E38F013B9BB2E38783
:102D2000E38F9BB2002BEDD1424631462046FFF7A0
:102D30004FFD18BB012384F85130656D0023ED1A57
:102D400084F8503018BF012584E7FEF757FEA0EB4A
:102D50000800B042E4D3711CE2D0012384F8513062
:102D6000002384F85030032574E7FEF747FEA0EBFC
:102D70000800B042B5D3731CB3D0EEE720236365DF
:102D8000D8E770B50E461546044628B390F849308A
:102D900003F0FF021BB980F84820FEF7F7FC04F1AE
:102DA0000801206800F00CFCA2682068314600F0A1
:102DB00039FC236BA2686068294600F04DFC22684C
:102DC000A16852F8213043F0010342F82130012379
:102DD00084F84930002070BD0120FCE7036A026AD4
:102DE00022F0010270B50262446882690D6822F027
:102DF00073022A438D6823F002032B430C4DA84233
:102E000003D005F58065A8420BD1CD6823F00803F7
:102E10002B43D1E9055624F44074354323F00403D1
:102E20002C43446082614A684263036270BD00BF04
:102E300000000140036A026A22F4807270B50262E7
:102E40004468C2690D6822F073022A438D6823F436
:102E5000007343EA05230D4DA84203D005F58065B4
:102E6000A8420DD1CD6823F4006343EA0523D1E9DC
:102E7000055624F44054354323F4806344EA051492
:102E80004460C2614A68C263036270BD00000140D1
:102E9000036A026A22F4805230B502624468C26951
:102EA0000D6822F4E64242EA05228D6823F40053BD
:102EB00043EA0533084DA84203D005F58065A842D2
:102EC00004D14D6924F4804444EA85144460C2610D
:102ED0004A680264036230BD0000014090F83D3052
:102EE000012B30D1022380F83D300368DA6842F0CC
:102EF0000102DA60154A93421AD0B3F1804F17D01D
:102F0000A2F57C42934213D002F5806293420FD027
:102F100002F5806293420BD002F57842934207D0CB
:102F200002F57052934203D0A2F59432934204D139
:102F30009A6802F00702062A03D01A6842F00102DA
:102F40001A60002070470120704700BF0000014058
:102F50000368DA6822F00102DA60196A41F211129C
:102F6000114208D1196A40F24442114202BF1A6864
:102F700022F001021A60012380F83D3000207047E2
:102F8000704770477047704770477047036870B567
:102F9000DD681E69B10704460DD5AA070BD56FF091
:102FA00002021A61012202779B699B0769D0FFF731
:102FB000EAFF00232377710710D56A070ED523682F
:102FC0006FF004021A61022222779B6913F4407F9A
:102FD00020465CD0FFF7D7FF0023237733070FD5B8
:102FE00028070DD523686FF008021A6104222277A2
:102FF000DB699907204650D0FFF7C5FF00232377F0
:10300000F20610D5EB060ED523686FF010021A6198
:1030100008222277DB6913F4407F204643D0FFF774
:10302000B2FF00232377F00708D5E90706D5236808
:103030006FF001021A612046FFF7A3FF320608D5A0
:103040002B0606D523686FF080021A61204600F037
:10305000B6FA700608D5690606D523686FF04002F7
:103060001A612046FFF791FFB20622D5AB0620D5A4
:1030700023686FF0200220461A61BDE8704000F01E
:103080009DBAFFF77FFF2046FFF77EFF91E7FFF72E
:1030900079FF2046FFF778FF9EE7FFF773FF204692
:1030A000FFF772FFAAE7FFF76DFF2046FFF76CFFFF
:1030B000B7E770BD274A0368904212D0B0F1804F45
:1030C0000FD0A2F57C4290420BD002F58062904274
:1030D00007D002F58062904203D002F57842904218
:1030E00008D14A6823F070031343CA6823F440737D
:1030F000134316E0184A9042F7D002F580629042DE
:10310000F3D002F580629042EFD0A2F5983290425F
:10311000EBD002F580629042E7D002F580629042E7
:10312000E3D04A6923F0800313438A68C2620A68C5
:103130008262084A904203D002F58062904201D137
:103140000A690263026842F00402026001224261DD
:1031500003607047000001400040014010B5044684
:1031600030B390F83D3003F0FF021BB980F83C20EB
:10317000FEF79EFA0223206884F83D30211DFFF7F8
:1031800099FF012384F84630002084F83E3084F80B
:103190003F3084F8403084F8413084F8423084F87D
:1031A000433084F8443084F8453084F83D3010BD15
:1031B0000120FCE710B5044630B390F83D3003F031
:1031C000FF021BB980F83C20FFF7DAFE02232068DB
:1031D00084F83D30211DFFF76DFF012384F8463050
:1031E000002084F83E3084F83F3084F8403084F882
:1031F000413084F8423084F8433084F8443084F815
:10320000453084F83D3010BD0120FCE7036A026AB6
:1032100022F0100270B50262446882690D6822F4DF
:10322000E64242EA05228D6823F0200343EA0513B3
:103230000D4DA84203D005F58065A8420DD1CD689B
:1032400023F0800343EA0513D1E9055624F44064D2
:10325000354323F0400344EA8504446082614A68B0
:103260008263036270BD00BF0000014038B590F872
:103270003C30012B04464FD00120082A84F83C0042
:103280003AD006D8BAB1042A26D0002384F83C30BC
:1032900038BD0C2AF9D12068FFF7FAFDC3690A6925
:1032A00043F40063C361C36923F48063C361C369EA
:1032B00043EA02232EE02068FFF790FD83690A6944
:1032C00043F008038361836923F004038361836906
:1032D000134383610020D8E72068FFF797FF8369D5
:1032E0000A6943F400638361836923F48063836123
:1032F000836943EA0223ECE72068FFF79BFDC3697B
:103300000A6943F00803C361C36923F00403C3617E
:10331000C3691343C361DDE70220B9E710B58468D0
:103320000A4324F47F4442EA03222243826010BD10
:1033300038B590F83C30012B04464FF0020000F005
:103340008E8084F83D000122206884F83C20836848
:1033500023F47F4323F0770383600B68602B4FD007
:1033600032D8402B64D016D8202B0DD00AD833F099
:10337000100109D0012384F83D30002384F83C304B
:10338000104638BD302BF5D1826822F0700213430D
:1033900043F0070328E0502BECD14A68CD68016A5E
:1033A000036A23F001030362836921F00A0123F019
:1033B000F00343EA05130A4383610262836823F042
:1033C000700343F057030FE0B3F5805F0DD0B3F502
:1033D000005F0CD0702BCDD1CB68D1E90121FFF774
:1033E0009DFF836843F0770383600022C2E7CB68C8
:1033F000D1E90121FFF792FF836843F48043F3E7AB
:10340000036A026A4D68C96822F01002026282698A
:1034100023F0A00322F4704243EA051342EA01328A
:1034200082610362836823F0700343F06703DBE784
:103430004A68CD68016A036A23F001030362836965
:1034400021F00A0123F0F00343EA05130A438361E4
:103450000262836823F0700343F04703C4E7024627
:103460008EE7036A10B501F01F0101248C4023EAA6
:1034700004030362036A8A401A43026210BD00001B
:1034800008B529B990F83E30012B1FD0012035E056
:10349000042907D190F83F30012BF7D1022380F89F
:1034A0003F3016E008290CBF90F8403090F84130CA
:1034B000013B18BF0123002BE8D108294FF002037C
:1034C0000CBF80F8403080F8413002E0022380F8E1
:1034D0003E3000680122FFF7C4FF164B984203D02C
:1034E00003F5806398420AD1436C43F4004343647C
:1034F000836803F00703062B17D1002008BDB0F145
:10350000804FF5D00C4B9842F2D003F5806398427F
:10351000EED003F580639842EAD003F59A339842DF
:10352000E6D0A3F594339842E2D0036843F0010358
:103530000360E2E70000014000040040FFF7A0BF85
:1035400030B590F83C30012B02464FF0020032D0EB
:10355000136882F83D005C680D68986824F0700478
:103560002C435C60144CA3421AD0B3F1804F17D0A7
:10357000A4F57C44A34213D004F58064A3420FD089
:1035800004F58064A3420BD004F57844A34207D02D
:1035900004F57054A34203D0A4F59434A34204D19B
:1035A000496820F08000014399600123002082F8DF
:1035B0003D3082F83C0030BD00000140704770474C
:1035C0000A6850F8223023F0010370B58C6840F887
:1035D00022304B68CE6850F82250234333430E69A3
:1035E00033434E693343CE6933430E6A33434E6AE5
:1035F00033438E6A3343CE6A33430E6B33438E6953
:10360000C96B33430B43064929400B43A4F108011E
:103610004C424C4143EA841340F82230002070BDF4
:103620008000F0FF0B6810B58C6923434C6843EAB7
:1036300004138C6843EA0423CC6843EA04430C690E
:103640004969013C013243EA0453023943EA016308
:1036500040F82230002010BDB3F5804F30B514D1B2
:103660008D690B6850F822402B434D6843EA0513DF
:103670008D68C96843EA052343EA014304492140B0
:103680000B4340F82230002030BD6FF07043F8E764
:103690000000F0CFD0E901329342BFBF0268591C4D
:1036A0004160D05CA8BF0020704710B552EA030407
:1036B0000CD48C68944209DBA41A9C4206DB09688E
:1036C0000A4402600022C0E9012310BD0022134613
:1036D000F7E7006800BA704703460078312809D13F
:1036E0005A78002A2DD19A785ABBD878B0FA80F04F
:1036F0004009704774280BD15A78792A17D19A78E3
:10370000702A1ED1D878312814BF002001207047BC
:103710004F2814D15A78542A13D19A78542A10D1A8
:10372000D8784F28F0E75A78012ADCD07047722AFF
:1037300007D19A78752A04D1D8786528E4E700285B
:10374000F1D00020704730B40B1DC518C45C6B78F5
:1037500003EB042308449BB20021994202DB0020C2
:1037600030BC7047057B1478A5420FD1457B547857
:10377000A5420BD1857B9478A54207D1C57BD4782F
:10378000A54203D130BC1430FFF7A3BF0131103084
:10379000E3E72DE9F0470E254D4306464419DDE9E0
:1037A0000AA9DDE90C8EBDF920C0BDF92470481CC2
:1037B000EBB17AB10323237308EB0A035B10238078
:1037C0000EEB09035B106380A4F80480A4F806E004
:1037D0000E350146731903221A73481C26F805C0DA
:1037E0005F80A3F804A0A3F80690BDE8F0874AB173
:1037F00003232373A4F800C06780A4F80480A4F80E
:1038000006E0F2E702232373A4F800C06780A280D9
:10381000E280EAE7C3698B4201DB436803B9C16117
:10382000436A934201DB436803B9426283698B4276
:1038300001DC436803B98161036A934201DC436898
:1038400003B902620123436070472DE9F8430D4636
:1038500011461A460368DDE90898DDE90A76044650
:1038600083B1FFF7D7FF042D07D142464946FFF742
:10387000D1FF32463946FFF7CDFFE36A0133E362F9
:10388000BDE8F883C36AD4F828C00E2043430CEB8C
:10389000030005732CF803104280A0F80490A0F8F0
:1038A000068007814681E8E7D0ED027AD0ED046A10
:1038B00090ED037AF4EE667AF1EE10FA1FB506D1B8
:1038C000D0ED056AF4EE476AF1EE10FA0FD0BDEEC6
:1038D000C77AFDEEE77A0023CDE90233CDE9003364
:1038E00017EE902A17EE103A0221FFF7AEFF05B04F
:1038F0005DF804FB1FB50446FFF7D6FFD4ED047A4C
:1039000030EE270AD4ED057A84ED040A70EEA70A9A
:103910000023FDEEE07A84ED020AC4ED050AC4ED51
:10392000030ACDE90233CDE9003317EE903AFDEEFC
:10393000C07A012117EE902A2046FFF786FF04B0D7
:1039400010BDD0ED047A30EE270AD0ED057A1FB510
:1039500070EEA70A0023FDEEE07ACDE90233CDE94F
:10396000003317EE903AFDEEC07A80ED040A17EEB0
:10397000902AC0ED050A0221FFF767FF05B05DF848
:1039800004FBD0ED047A30EE270AD0ED057A70EE14
:10399000A70A30EE011A70EEA11A1FB571EEA22A25
:1039A00031EE022AFDEEE27AFDEEE11A17EE903AD0
:1039B000BDEEC11AFDEEE00ABDEEC00AFDEEC27A10
:1039C00080ED042A17EE902AC0ED052ACDED031AEA
:1039D0008DED021ACDED010A8DED000A0421FFF7ED
:1039E00034FF05B05DF804FBF0B50278437803EBD3
:1039F00002239BB2012B04D0022B1BD04FF0FF30CF
:103A0000F0BD8278C37803EB02239BB28B421BDCB0
:103A10000479427902EB042213FA82F28A4213DD1E
:103A2000CB1A5B000633C218C35C507800EB03204E
:103A300080B2E5E78278C37803EB02239BB2013BB7
:103A4000002706269F4201DD0020D9E7FC186410FC
:103A500006FB04F50435421910F805C0557805EB4E
:103A60000C25ADB2A94201DA631EEBE79778D57851
:103A700005EB0725ADB2A94201DD671CE2E713792A
:103A80005079D3E72DE9F04F044689B00D464FF049
:103A900014090C2D02DC09B0BDE8F08F6E1009FB93
:103AA000054309FB064653ED047AD6ED016A94ED11
:103AB000017AF4EEE76AF1EE10FAB4EEE67A4CBF62
:103AC00001230023F1EE10FA4CBF012200229A429A
:103AD00005F1FF372AD0B4EEE77AF1EE10FA4CBFC9
:103AE000012200229A4214BFBC464FF0000C09FB91
:103AF0000C4CE046B8E80F000DF10C0EAEE80F00DC
:103B0000D8F800A0CEF800A0B646BEE80F00ACE89A
:103B10000F00DEF80030C8F800300DF10C08B8E8EE
:103B20000F00B446ACE80F00CEF800A0A646BEE8F1
:103B30000F000DF10C0CACE80F00DEF80080CCF8A3
:103B40000080B446BCE80F00A246AAE80F00DCF8EB
:103B50000030CEF800300DF10C0EBEE80F004FF033
:103B6000020B0FC6CCF800802346D4ED017A93ED0A
:103B7000067AB4EEE77AF1EE10FA03F1140C30D4C1
:103B800009FB074696ED017AF4EEC77AF1EE10FADA
:103B9000A6F1140302D5013F1E46F3E70BF1FF33F4
:103BA000BB4222DAE046B8E80F000DF10C0EAEE899
:103BB0000F00D8F80030CEF80030B6460193BEE8CA
:103BC0000F00E246AAE80F00DEF80030C8F8003027
:103BD0000DF10C08B8E80F000FC6019BCEF80030BD
:103BE000013F0BF1010B6346BFE7ED1ABD4266468C
:103BF00005DD39462046FFF745FF344649E72946AB
:103C00006046FFF73FFF3D462646F6E738B5036CB2
:103C100033B11C4B1C4A1D4840F2476107F09EFC23
:103C2000C3688B422BDD436B012B28DC826944681F
:103C30000069C3B900EB41016318605C5B78023135
:103C4000651803EB0023605C697801EB00219BB2EF
:103C500089B202EB430302EB4102934208BF4FF0EB
:103C6000FF33184638BD00EB81016018FFF731FDC6
:103C7000043113186018FFF72CFD0244EDE74FF0F4
:103C8000FF33EEE7C0E30008E8E90008D0E30008EE
:103C9000F5EEC00AF1EE10FA08B506DA0C4B0D4A43
:103CA00040F6FB310C4807F059FCB5EEC01AF1EEB6
:103CB00010FA04DA094B074A40F6FC31F2E770EEDD
:103CC000810AF6EE007A60EEA70A20EE800A08BDAF
:103CD000E7E3000851E90008D0E30008F6E3000834
:103CE0002DE9704304462DED108B0E46B0EE40AA30
:103CF000F0EE60AAF0EE418AB0EE618AF0EE429AF0
:103D0000B0EE629AF0EE43BAB0EE63BAF0EE44CA97
:103D1000154678EE6A7A38EECA7A67EEA77A79EEB7
:103D200048DAE7EE077A39EEE8FA17EE900AFCF780
:103D30005BFC41EC100B0AF01FF96DEEAD7A59EC0B
:103D4000108BEFEE0F7A3BEE49DA17EE900AFCF794
:103D50004BFC41EC100B0AF00FF9404653EC102BD2
:103D60004946FCF7E3FA7BEEE9EA6DEE0D7A804610
:103D7000EEEEAE7A89463BEE6ACA17EE900AFCF781
:103D800033FC41EC100B0AF0F7F8404653EC102BD3
:103D90004946FCF7CBFAFCF757FF3BEECAEA6CEE5C
:103DA0000C7A0DEE100AEEEE0E7A17EE900AFCF782
:103DB0001BFC41EC100B0AF0DFF851EC100BFCF788
:103DC00043FF07EE900A67EEE77A112DEDEE0D7ACC
:103DD00059D0F4EEEC7AF1EE10FA4ADD38EE8A1A98
:103DE00078EEA98A79EEAB9AF6EE007A69EEA79A98
:103DF00078EE2A1AB0EE697A38EE098AA8EEA77A28
:103E000001352A4639EE0B9A21EE271A61EEA71AE0
:103E100029EE279AB0EE412AA8EEA72A314620467D
:103E200067EE278AF0EE612AB0EE497AE8EE272A9B
:103E3000A8EE277A22EE272A62EEA72A27EE278A03
:103E400032EE28CA32EE88DA2CEE27CA2DEE27DAB7
:103E5000F0EE6A0AB0EE4A0AB0EE6C4AF0EE4D3A65
:103E6000B0EE4C3AFFF73CFFF0EE4DAAB0EE4CAA94
:103E70004FE733682CB104EBC304C4ED00BA84ED02
:103E800001BA01333360BDEC108BBDE870830000D4
:103E900008B583688B4201DB002906DA044B054A2A
:103EA000054840F27D4107F059FB416008BD00BF65
:103EB00008E4000830EA0008D0E300084368194429
:103EC000FFF7E6BFF8B54B1E032B07460E4606D993
:103ED000094B0A4A0A4840F28A4107F03FFB002595
:103EE000284604023846FFF7D5FB0135AE4240EACA
:103EF0000400F6D1F8BD00BF20E400080CEA000879
:103F0000D0E300082DE9FF4101AD85E80E0007462A
:103F1000002128460A9EFFF7BBFF02212846FFF733
:103F2000D1FF80462846FFF7B5FB002E044601DB93
:103F3000B04506DC144B154A40F2F241144807F034
:103F40000DFB431E032B04D9124B104A40F2F341E0
:103F5000F4E706FB00F12846FFF7B0FF21462846AC
:103F6000FFF7B0FF214606462846FFF7ABFF08FBE8
:103F700004440234831BA21938462946FFF795FBF7
:103F800004B0BDE8F08100BF31E4000840EA000859
:103F9000D0E3000845E400082DE9F0410C46D1F8D3
:103FA0000480074602212046FFF78CFF0646D0B169
:103FB0002046FFF76FFB431E032B054606D90F4B28
:103FC0000F4A104840F2AD4107F0C8FA00FB06F175
:103FD0002046FFF773FF29462046FFF773FF411E77
:103FE0002046FFF76BFF63683846A3EB08034246A1
:103FF0002146FFF75AFBBDE8F08100BF45E4000809
:104000001BEA0008D0E3000870B50546FFF742FB45
:10401000A0F12003D62B044601D88B3870BDA0F147
:10402000F706032E06D82846FFF734FB00EB0620E0
:104030006C30F3E7A0F1FB03032B08D82846FFF709
:1040400029FBC4F1FB04C0EB04206C38E6E71C2814
:1040500005D102212846BDE87040FFF733BF1D2877
:1040600001D10421F6E7034B034A044840F2BC4166
:1040700007F074FA06E40008FDE90008D0E3000840
:10408000F4EE610AF1EE10FA08B500F0B780F4EE34
:10409000E10AF1EE10FA06D47E4B7F4A40F6D731A2
:1040A0007E4807F05BFA92ED057AD2ED067AB4EE1F
:1040B000E77AF1EE10FA04D9794B774A40F6D83115
:1040C000EEE7F4EEE70AF1EE10FA00F39780F4EE73
:1040D000C71AF1EE10FA00F19180F4EEC70AF1EE82
:1040E00010FA0DD537EE606A71EE406A71EEE00AA3
:1040F00066EE866A86EEA06AF0EE470A30EE060AA1
:10410000F4EEE71AF1EE10FA0DDD77EEE16A31EE2A
:10411000407A71EEE01A27EE267AC7EE216AF0EEB9
:10412000671A31EE261A07EE901AF8EEE77A4B1C62
:1041300007EE103AB4EE670AF1EE10FAB8EEC77A5D
:1041400009D1B4EEC17AF1EE10FA46DA554B524A73
:1041500040F6E531A4E7B4EE407AF1EE10FA0AD168
:10416000F4EEC17AF1EE10FA40F287804E4B4A4AE3
:1041700040F6E73194E7B4EEE70AF1EE10FA09D819
:10418000F4EEC17AF1EE10FA2CDA484B424A40F6CE
:10419000E93185E7B4EEC07AF1EE10FA09D8B4EE51
:1041A000C17AF1EE10FA6ED9414B3B4A40F6EB3141
:1041B00076E7F4EEC17AF1EE10FA04D8B4EEC17AE3
:1041C000F1EE10FA04DA3B4B334A40F6ED3167E783
:1041D000B4EEE70AF1EE10FA11D8F4EEC17AF1EE7E
:1041E00010FA0CDB00EB810071EEE01A92ED047A1C
:1041F000D0ED007AE7EE217AC0ED007A08BDB4EE8A
:10420000C07AF1EE10FA04D8B4EEC17AF1EE10FAE9
:10421000F4D9B4EEE70AF1EE10FA0EDBB4EEC07A90
:10422000F1EE10FA09DBF4EEC17AF1EE10FA04D8DF
:10423000B4EEC17AF1EE10FA04DA1F4B164A40F6DA
:10424000F4312DE730EE670A31EE671AD2ED046AD9
:1042500071EEE01A30EE010A61EEA61AF6EE007A6F
:10426000F7EE006AE0EE676A00EB810090ED007AFD
:10427000F0EE477AE1EEA67ABEE7B4EEE70AF1EE99
:1042800010FAC1D8A9E7B4EEE70AF1EE10FAB5D8F2
:10429000A3E700BF62E4000836E90008D0E30008A5
:1042A0006AE40008B6E4000879E4000881E4000844
:1042B00089E40008ABE4000893E400082DE9F04F1E
:1042C0002DED108BD0F80080ADF5077D0DEE103A86
:1042D000B8F1400F4FF0000307460E461446049312
:1042E00039DD4FEAC800043007F056F9054605EB02
:1042F00088030293142303FB0464A09A7B689FED58
:10430000B0EADFEDB0EAD31807EE903AF8EEE77ABC
:10431000F7EE00CA77EEAC7A4FF00008C4ED017AF0
:10432000CDF80480C146C246A09B534408EE903AA3
:104330007B689A4511DBB9F1000F40F0418305AB72
:104340009D4202D0284607F02FF90DF5077DBDEC00
:10435000108BBDE8F08F05ADC9E797ED00CA1CEEE4
:10436000103A9C0022460021F8EEE88A284607F021
:104370002DFB221D0298002107F028FB38EEAC9A95
:1043800004AA144613681BBBBFEE00AAF7EE00AAEE
:1043900096ED018AB4EEC89AF1EE10FA37DA246885
:1043A000002C40F0A8800299DFED856A9FED866AB7
:1043B0002C460022F6EE005A3B689A42C0F2DB829D
:1043C00004AB1B68002B40F0F2820AF1010AABE754
:1043D000D3ED067A1968F4EEE78AF1EE10FA14DBF1
:1043E000D3ED047A1160F5EE407AF1EE10FA06D1C1
:1043F000764B774A40F60351764807F0AFF80199BB
:1044000083ED04EA19600193BCE71A46BAE7D6EDDA
:10441000039AF4EE489AF1EE10FA60D0019B93B142
:1044200018461B680193D6ED007AD6ED026A39EE84
:10443000C86A76EEE76A86EE867AC8B9664B674A3E
:1044400040F62D31D8E7B8F1000F0AD14DF6C4205F
:1044500007F0A2F80028E6D0C0F800904FF4FA6800
:10446000814608F1FF381C2000FB08900430DAE791
:10447000B5EE407AF1EE10FA18BFCCEE876A3369D8
:1044800008BFF0EE4E6AC0ED036A78EEC86A80EDB0
:10449000027AE7EE267A002B4FF00003B8EECD7AD1
:1044A00080ED058A77EEC77AC0ED069AC0ED017AF5
:1044B00014BFF0EE6A7AF0EE4A7AC0ED047A036037
:1044C000BAF1000F0DD1A09B5BB1F4EEE98AF1EED9
:1044D00010FA06DDC0ED068A2368036020601436FA
:1044E00056E7F4EEE98AF1EE10FAF5D93C4B384A7A
:1044F00040F6165180E7029B04330393F6EE00DA90
:10450000D4ED06AAF4EEEA8AF1EE10FA04D9354B9E
:10451000354A40F612416FE794ED02FA94ED018AB4
:10452000B5EE40FAF1EE10FA39D1F8EECC7AB4EEED
:10453000E78AF1EE10FA23D5B5EEC08AF1EE10FA53
:1045400022DBFDEEC87AF0EE491A17EE90BAB0EE13
:10455000481AF0EE680AB0EE480A22465946284644
:10456000FFF78EFDF0EE491AB0EE481AF0EE680A39
:10457000B0EE480A22460BF101010298FFF780FDD8
:104580002468002CBCD10EE7F0EE491AB0EE481AB0
:10459000F0EE680AB0EE480A22460021EDE794EDFD
:1045A00005AA94ED037AB4EECA9AF1EE10FA78EE09
:1045B0000F9A1DDA0D4B0C4A40F625411CE700BF4F
:1045C00000000000AE47813F00007F43C0E40008C8
:1045D0009CE90008D0E30008CDE400088AE900085F
:1045E000DEE4000807E500086DE90008F2E40008D1
:1045F000F4EECA8AF1EE10FA42BF7AEE687AF0EE73
:10460000486AEFEE276AB4EEEA9A5CBFF0EE486AB9
:10461000B0EE68AAF1EE10FAC4BF7AEEE87AB0EE16
:10462000481AF5EEC06ACEBFAFEE271AF0EE49AADF
:10463000B0EE691AF1EE10FA04DBB5EEC01AF1EE35
:1046400010FA4ADA4FF0000B1CEE103A5B4597DD8A
:1046500007EE90BA0BF10103B8EEE7AA0FEE903A1D
:104660007AEE487AF8EEEFAA87EE8FBA7AEEC87A39
:10467000B4EECA8AC7EE8FBAF1EE10FA3BEE28BA52
:104680007BEEA8BA40F13481F4EEEA9AF1EE10FA2A
:1046900040F39D81F0EE4B1AB0EE4A1AF0EE680A34
:1046A000B0EE480A224659462846FFF7E9FCF0EEEC
:1046B0006B1AB0EE6A1AF0EE4B0AB0EE4A0A2246C6
:1046C00059462846FFF7DCFCF0EE491AB0EE691AAD
:1046D000F0EE6B0AB0EE6A0AA5E1F8EECC7AF4EEE1
:1046E000E76AF1EE10FAADD5B4EEE71AF1EE10FA82
:1046F000A8D5FDEEE67A17EE90BAFDEEC17A17EE78
:10470000902A934531D13AEECAAAD4ED047ABBF18E
:10471000000F2AEE27AA03DB1CEE103A5B4504DCEF
:10472000C84BC94A40F6414166E607EE90BAF8EE3A
:10473000E70AB0EE4A0A70EEAC0A30EEC11A70EE2B
:10474000E60AFFF7A5FA05EB8B02D2ED007A039B90
:1047500077EE807A03EB8B03C2ED007AD3ED007A1B
:1047600077EE8A7AC3ED007A0AE7F4EEC16AF1EED9
:1047700010FA13DD7AEE687A3AEEE8AA79EE67AAC3
:1047800039EE4AAAF0EE667AB1EE4FFAF0EE416ADF
:10479000B1EE477AB0EE671AB0EE698AB5EEC07A2C
:1047A000F1EE10FA04DAA94BA74A40F6534123E68A
:1047B000B5EEC0FAF1EE10FA04DAA54BA24A40F6C3
:1047C000544119E6FDEEE67AB0EE686A17EE900AFB
:1047D000FDEEC17A411C17EE90BA07EE901AF8EE82
:1047E000E75AB0EE680A75EEC87AD4ED049AA7EEDF
:1047F000276A820005EB800007EE90BAF8EEE77AB0
:10480000B4EE469AF1EE10FA37EEC88A48BFB0EE21
:10481000496AA7EE080A36EE4A8A75EEE65A28EE8D
:10482000298AD0ED006A65EE885AB4EEC09AE5EEAA
:10483000AD6AF1EE10FAC0ED006A0BD5ABEB0103E7
:1048400006EE903A39EE466AF8EEE66AB0EE490AAC
:1048500086EE267A04322A4429EE877A8B450BDCD1
:10486000B0EEC87AB4EEEE7AF1EE10FA12D9794BC6
:10487000754A40F69441BFE5B0EE486AA7EE2D6A4E
:104880000131D2ED006A76EE866A38EE078AE2ECF4
:10489000016AE3E79FED707A30EE477AB4EEEA7A88
:1048A000F1EE10FA04D46D4B674A40F69541A3E54A
:1048B00077EEAC0A3AEEC00A30EEC11A70EEE70AA3
:1048C000FFF7E6F9A9EE808A05EB8B02039BD2ED98
:1048D000007A77EE887A03EB8B03C2ED007A93EDD2
:1048E000007A7AEECA7AA9EEA77A83ED007A47E6D3
:1048F000F4EECA9AF1EE10FA00F19D80B4EECA8A85
:10490000F1EE10FA0DD5F4EECA9AF1EE10FA10DDC0
:10491000F0EE4B1AB0EE4A1AF0EE680AB0EE480A12
:1049200074E0F4EECA9AF1EE10FA02D5B4EECA8A37
:10493000EBE7B4EEEA8AF1EE10FAF4EEEA9A0BD560
:10494000F1EE10FA0EDDF0EE6B1AB0EE6A1AF0EE30
:10495000680AB0EE480AB2E6F1EE10FA02D5B4EEFB
:10496000EA8AEDE7F0EE491AB0EE691AF0EE680A4D
:10497000B0EE480A57E0F1EC017AB4EC017A76EE39
:10498000A76AF0EE657A36EE877AD7E90203B0EED1
:10499000C77AE7EE067A00FB0A30FDEEE77A17EEFB
:1049A000903AFF2BA8BFFF238354013204E5D3EDD7
:1049B000017A93ED027A77EE877AC3ED017A00E50A
:1049C000D9F80040484606F0EFFDA146B3E4F4EE06
:1049D000CA9AF1EE10FA96D5B4EEEA8AF1EE10FA20
:1049E000A7DDF0EE6B1AB0EE6A1AF0EE680AB0EED0
:1049F000480A224659462846FFF742FBF0EE4B1A7A
:104A0000B0EE4A1AF0EE6B0AB0EE6A0A2246594638
:104A10002846FFF735FBF0EE491AB0EE691AF0EEC2
:104A20004B0AB0EE4A0A594622462846FFF728FBB1
:104A30001FEE90BA08E6B4EEEA8AF1EE10FA7FF7BC
:104A400075AFCEE716E500086DE9000828E5000817
:104A500030E5000838E500080AD7233C4CE500089B
:104A60002DE9FF4788460021044616461D46FFF7FC
:104A70000FFAD4E901794F4515DB00231A462AE0E5
:104A80001E2B39D101212046FFF718FA636899459A
:104A900009DD2046FEF7FEFD00F00F030F2B02D0CC
:104AA00000110F28F2D1D4F804A0D14504DD236809
:104AB00013F80A301B2BE3D82046FEF7EBFD0C2839
:104AC00004D12046FEF7E6FD40F480708045D0D149
:104AD000AAEB07033A46214601A8FEF7E6FDDDE909
:104AE0000234A34205DA01A8FFF78EFA022E2860ED
:104AF00006D004B0BDE8F0872046FFF785FAD2E77C
:104B0000029BA342F5DA01A8FFF77EFA6860F0E79E
:104B100070B58AB001AD85E80E000023CDE90433FD
:104B20000693044605AB022212210EA8FFF798FF58
:104B3000069E0EB1059B33B90023C4E90033A36080
:104B400020460AB070BD3246294607A8FEF7ADFDE3
:104B5000132104AB0122FFF783FF04990029EBD056
:104B600031442846FFF794F929462046FFF714FA06
:104B7000E6E700002DE9F04F2DED028BEBB0154676
:104B800000F15C020591814607CA0AAB83E8070081
:104B9000059B00930DAE09F144030ECB3046FFF7A1
:104BA000B1F94FF0000801234446C246CDF8108009
:104BB0000693D6E901239A4280F26C833046FEF7D1
:104BC00069FD431E83461E2B00F25E83DFE813F06F
:104BD00033005C03330049005F0085007300F80078
:104BE0005C03BE0172028A025C0381025C035C0307
:104BF0005C0333001F001F003B005400330015010D
:104C00004801860186015C03EF01C9009700069BFD
:104C10002BB1049B04EBD47403EB64030493049B57
:104C2000D91D48BF03F10E01C9103046FFF746F900
:104C300000240694BDE7049B04EBD47403EB6403E7
:104C400004930024B5E7012C40F324836AAB03EB03
:104C5000840353ED310A13ED320A2846FEF74AFE6B
:104C6000E6E7002C40F316836AAB03EB840454EDB3
:104C7000310A9FEDB50AF0E7002C40F30B836AABD5
:104C800003EB8404DFEDB00A14ED310AE5E7012CF3
:104C900040F300830DF1E80B01275B46DBED010AD1
:104CA00093ED000A28460237FEF74BFEA7420BF1B0
:104CB000080BF2DBC5E7002C40F3EC8200276AAB5F
:104CC00003EB870353ED300A9FED9F0A2846013717
:104CD000FEF737FEBC42B4DD03E0002C40F3DA827D
:104CE00000276AAB03EB8703DFED970A13ED300A69
:104CF00028460137FEF725FEBC42A2DDDFE7032C84
:104D000040F3C8824FF0000B6AAB03EB8B0313ED4B
:104D1000300ADFED8D0A6AAB03EB8B0313ED2F1A1C
:104D20006AAB03EB8B0353ED2E1AA4EB0B03052B9D
:104D300008BF6AAB0BF1040706BF03EB870313ED53
:104D4000302A9FED812A6AAB03EB8B0353ED2D2AAA
:104D500028460BF1070BFEF714FEA345BFF671AF13
:104D600003E0032C40F3968200276AAB03EB870332
:104D700053ED300A9FED740A6AAB03EB870313ED22
:104D80002F1A6AAB03EB870353ED2E1A6AAB03EBC2
:104D9000870313ED2D2AE31B052B08BF6AAB07F130
:104DA000040B06BF03EB8B0353ED302ADFED662ABD
:104DB00028460737FEF7E5FDA742BFF642AFA3E757
:104DC000052C40F367823AAF4FF0050B3B46D7ED19
:104DD000052A97ED042AD7ED031A97ED021AD7EDAD
:104DE000010A93ED000A28460BF1060BFEF7C9FDF8
:104DF000A34507F11807E9DB23E7072C40F34A82B4
:104E0000A21E3AAF4FF0000B3B46D7ED052A97EDB7
:104E1000042AD7ED031A97ED021AD7ED010A93ED94
:104E2000000A07922846FEF7ACFD5B46079A03F19D
:104E30000B018A4207F118070BF1060BE4DC07337C
:104E4000A34280F227826AAA02EB830302EB8B0B58
:104E500053ED300A1BED300A2846FEF772FDF0E6EE
:104E6000072C40F31782A31F0DF1E80B01270793CE
:104E70005B46DBED010A93ED000A2846FEF761FD73
:104E8000079B02379F420BF1080BF0DBA4F10803EC
:104E90005A0823F00103D91DA14203F1030002F1D6
:104EA000010280F2F7816AAC0DF5D47C04EB830734
:104EB00004EB81010CEB80000CEBC20251ED302AB7
:104EC00017ED2A2A57ED2B1A17ED2C1A50ED300A40
:104ED00012ED300A2846FEF754FDB2E6032C40F3EB
:104EE000D98114F001022CD0DDED3A7A9FED167ACB
:104EF0003AA9D31C01EB820720E097ED000A97ED59
:104F0000032A97ED011AD7ED021A0793BBF11B0F85
:104F10000DBFF0EE670AF0EE422AF0EE400AF0EE26
:104F2000472A1CBFB0EE670AB0EE472A2846FEF7B4
:104F300028FD079B10370433F0EE477A9C42DCDCF7
:104F40007FE6DFED017AD1E700000000B8F1000F45
:104F50002BD1D9F87C3043B309F1740393E80700EF
:104F600016AF87E8070038464146FEF791FF3846FE
:104F7000FEF790FB002870D138460599FEF79EFF9A
:104F80003846FEF787FB009013AF09F168030ECB9C
:104F90003846FEF7B7FF97E807008DE8070009F1EC
:104FA00038030ECB0AA8FFF7B3FD4FF00108002C21
:104FB00040F37081013C6AAB03EB840313ED308A4C
:104FC000BAF1090FBDEEC88A00F364810AF101034A
:104FD00007931CAA0C230DAF03FB0A2397E80700D5
:104FE00083E80700BBF10A0F14BF09F150020AAAB7
:104FF00007CA10AB83E8070010AB93E807000DF178
:10500000580A8AE8070000215046FEF741FF0221B6
:105010005046FEF757FF48F26B43984244DCB0F528
:105020009B6F40F26B43B8BF6B2318EE102AD31866
:105030003DD483423BDA00939AE80E0019A8FEF7AC
:1050400061FF199A1B9B3A60BB60002B00F0228124
:105050000023DDF81CA07B60ABE503280CD1022106
:105060003846FEF72FFF022107903846FEF72AFF49
:10507000079B4345024602DC4FF0FF3083E738468A
:105080000992FEF707FB022108903846FEF71AFF47
:10509000059B099A934204DB8342089B01DA184678
:1050A00071E708F10108E3E74FF40043BDE700238F
:1050B0001A46C8E7BAF1000F40F3EC801CAA0AF1C7
:1050C000FF3A0C2303FB0A2393E8070086E8070056
:1050D0006FE52846FEF7E8FB01206BB0BDEC028BC4
:1050E000BDE8F08F3046FEF7D5FA2238032800F2EB
:1050F000D180DFE800F002295482062C40F3CA80F8
:105100009DED3C7A5FED702A9DED3D2A9DED3B1AA9
:105110009DED3A0ADDED3E6A9DED3F6ADDED405AB8
:10512000F0EE620AF0EE471A2846FEF72AFC5FED21
:105130007A2AB0EE652AF1EE471AB0EE461AF0EE82
:10514000620AB0EE660AC5E60C2C40F3A3809DED22
:10515000407ADDED416A9DED426ADDED435A9DEDF9
:10516000445ADDED454ADDED3F2A9DED3E2ADDED59
:105170003D1A9DED3C1ADDED3B0A9DED3A0A2846AD
:10518000FEF7FFFBF0EE642AB0EE452AF0EE651A5A
:10519000B0EE461AF0EE660AB0EE470A9AE6082C20
:1051A00078DD9DED3B7A9DED3D6A5FED992A9DEDA1
:1051B0003E2A9DED3C1A9DED3A0ADDED416ADDED9A
:1051C0003F5A9DED405ADDED424AF0EE461AF0EEB0
:1051D000470A2846FEF7D5FB77EE062A5FEDA60ABA
:1051E00072EEA62AB0EE642AF1EE622AF0EE661A9A
:1051F000B0EE451AB0EE650A6CE60A2C4ADD9DED6C
:105200003A0ADDED3B0A9DED3C1ADDED3D1A9DEDC0
:105210003E2ADDED3F2A9DED406ADDED415A9DEDD0
:10522000425ADDED434ADDED446A70EE017A30EE1C
:10523000A17A77EE827A37EE227A77EE867A37EEA7
:10524000257A77EE857A37EE247AF0EEE73AB0EEFB
:10525000C74AF4EEC43AF1EE10FAD6BFB0EE667A61
:10526000B1EE477AF1EE676A2846FEF78AFBF0EE68
:10527000472AB0EE662AF0EE641AB0EE451AF0EE58
:10528000650AB0EE460A25E6FF2805D01C2814D092
:105290001F2812DC002020E704213046FEF712FE12
:1052A00007EE900AFAEEC87A2F2CF3DC6AAB03EB18
:1052B000840343ED307A01347BE44FF0FF31304614
:1052C000FEF7FCFD3046FEF79FFE00B207EE900AA7
:1052D000F8EEE77AE8E700BF2DE9F04F00230D462E
:1052E000904699B00446C0E90E330364C0E9011248
:1052F000A14A41462846FEF726FAA04A4146824680
:105300002846FEF720FA9E4A206141460646284676
:10531000FEF719FA9B4A6061414681462846FEF72E
:1053200012FA994AA061059041462846FEF70BFA09
:10533000964AE061414683462846FEF704FA944ABD
:105340002062414607462846FEF7FDF9914A606211
:1053500041462846FEF7F7F9059BA062BAF1000F17
:1053600003D1002019B0BDE8F08FB9F1000FF8D0DB
:10537000BBF1000FF5D0002FF3D0002B35D0002E5D
:10538000EFD0854A41462846FEF7DDF9002800F0B7
:10539000D68004302B182A5C5B7803EB02239BB287
:1053A000E3604FF0FF33E3620AF10203EA18EB5CBB
:1053B000527802EB0322002392B2236305EB0A0327
:1053C00003EBC202934240F0BD80236B002BC8D098
:1053D00009F1320905EB090315F809205B7803EBA5
:1053E00002239BB263630120BCE702266B4A05934C
:1053F00041462846CDE90B63CDE90D33FEF7A3F90D
:105400000028AED028444FF000522264A06304F17B
:10541000380207CA059B0FAF87E80700C4E91A33B3
:10542000C4E91C33C4E91E3331463846FEF746FD55
:105430003846FEF72FF906AE01463846FEF728FD3E
:1054400039463046FEF7A8FD15A83946FEF7A4FDFB
:10545000059B00930DF1480B15A890E80E005846E7
:10546000FEF750FD39463046FEF796FD3946304688
:10547000FEF792FD96E8070004F1500383E8070069
:105480000CAB012211215846FFF7EAFA0BAB0122BF
:105490004FF483715846FFF7E3FA0DAB01224FF446
:1054A00092715846FFF7DCFA0EAB012240F225114B
:1054B0005846FFF7D5FA9BE807008DE8070030460D
:1054C00097E80E00FFF724FB96E8070004F15C0361
:1054D00083E807000B9B022B7FF443AF0C9B0593E3
:1054E000002B3FF43EAF0D99D1B1DDF838B0BBF1E0
:1054F000000F3FF436AF3846FEF7CAFC3946304657
:10550000FEF74AFD96E8070004F1680383E8070008
:10551000CBF100535A46394604F17400FEF7C5F842
:1055200005993846FEF7B4FC39463046FEF734FD9F
:1055300096E8070004F1440383E8070021E74FF6EB
:10554000FF732DE71879597901EB002189B203F136
:10555000080651B103290DD19979DB7903EB0123B9
:105560009BB2012B01D00A2B04D13046FEF7B1F8D3
:1055700050442063334625E760E5000865E50008F0
:105580006AE500086FE5000874E5000879E50008A1
:105590007EE5000883E500088DE5000888E5000841
:1055A00010B50446FEF798F820B1081E18BF012078
:1055B000404210BD2378742B1CD16378742B19D111
:1055C000A378632B16D1E378662B13D1201DFEF749
:1055D00080F8B0F5803F02D0B0F5003F0AD1A36853
:1055E0001BBA994206DA04EB81000C30BDE810408A
:1055F000FEF76FB84FF0FF30DBE770B504462DEDD6
:10560000088B0E46F0EE41AAB0EE618AF0EE42BA87
:10561000B0EE62BAB0EE43AA1546112D55D0B0EEE9
:10562000007AF0EE408AEAEE878AB0EE609AA8EE41
:10563000079A78EEAB8AF5EE007A39EE0B9A68EEAF
:10564000A78A29EE279A70EE2B7AF6EE009A70EE72
:105650008B6AB0EE687A97EEA97AF0EE497AD6EEC8
:10566000A97A67EEA77AE7EE077AF4EECA7AF1EE46
:1056700010FA20DD78EE201A3AEE801A013561EE3C
:10568000A91A21EE291A2A46B0EE4A3AF0EE492A22
:10569000B0EE682A31462046FFF7AFFF7AEEABAA9C
:1056A00038EE0B8A6AEEA9AA28EE298AF0EE490A9A
:1056B000B0EE680AB1E733682CB104EBC304C4ED63
:1056C00000BA84ED01BA01333360BDEC088B70BDC4
:1056D0002DE9F0474368026B98189C5C477807EB0C
:1056E0000427BFB20D2F00F20281DFE817F00E0091
:1056F00000013B000001420000011D00000100010B
:10570000000100010001CD00CD0002329C189A5C1E
:10571000637803EB02239BB2063B8B4240F3C080CD
:1057200008448079BDE8F087901D1D181C5C6878DE
:1057300000EB042080B28142C0F0B28002F1080484
:105740001E191D5D747804EB052410FA84F4A1423F
:1057500080F0A680081A0A3202EB400299189B5C7E
:10576000487877E0644B654A40F2EA51644805F0B6
:10577000F5FEB1F5803F80F2938002F10C001C1819
:10578000185C647804EB002402F10E07C4F34E04A5
:1057900007EB440418191D5D407800EB052002F169
:1057A000080580B203EB050E8842C8BF3C4602F1F3
:1057B0000A005E5D9EF8015003EB000C05EB062528
:1057C0001E5C9CF8010000EB0620C5F34E0580B27C
:1057D000023C002842D1951D5E195D5D96F801C01E
:1057E000C7F102060CEB052CCCF34E0C34441032FE
:1057F000C4F34F0402EB4C02660002EB440403EBDB
:10580000040813F804E098F8014004EB0E24A4B255
:105810008C424FEA4C0585DC374403EB070813F84C
:1058200007E098F8017007EB0E27BFB28F42FFF632
:1058300079AF02EB8C003718DA1913F807C05278E9
:1058400002EB0C2292B2D2B9421B324498189B5CF4
:105850004078084400EB032080B263E76D0804EB56
:10586000450C03EB0C0613F80CE0767806EB0E26DD
:10587000B6B2013880B28E42B8BF6446A9E70C1BAD
:105880003A4402EB440269E702F10C001844FDF7C8
:1058900020FF4FF0000904464FF00C0AA14501DB40
:1058A00000203FE7A4EB090509EB65050AFB052687
:1058B00006F110001844FDF70CFF8142804614D316
:1058C00006F114001844FDF704FF814202D905F1E6
:1058D0000109E3E718369819FDF7FBFE0C2F7FF45A
:1058E00021AFA1EB080840441CE72C46D6E7024B49
:1058F000024A40F2316139E706E4000855EA00083F
:10590000D0E300082DE9F047D0F840908CB0DDE9F5
:10591000148704468A4616461D46B9F1000F2CD05E
:105920002C22002101A806F051F801236A465146B5
:1059300020460093FFF71EF916B1A8B1069B33600D
:1059400015B198B1089B2B60B8F1000F03D078B166
:10595000079BC8F800300FB160B938604FF00109FB
:1059600048460CB0BDE8F0870346E8E70346EAE79F
:105970000346EEE7099B3B60F0E7FEF747F9011E9F
:10598000EEDB46B162688B1CD018D25C437803EB27
:1059900002231BB2336045B162680B1DD018D25C84
:1059A000437803EB02231BB22B60B8F1000F09D040
:1059B00062688B1DD018D25C437803EB02231BB2C4
:1059C000C8F80030002FC9D06368083158185A5CF5
:1059D000437803EB02231BB2CDE700002DE9F04F23
:1059E0002DED0A8B056CABB007460E460C92002DD0
:1059F00040F0EE824468FEF709F90C9B00281D6018
:105A0000C0F24B822318225C5E7806EB02261FFA56
:105A100086F836B2002E40F34F8100F10A03E318F6
:105A2000069300EB48004FEA48030D9300F10A0388
:105A3000E118E25C4B78069903EB02230C3010FA74
:105A400083F31C440D9B069A023B1A44CB5C5078AE
:105A500000EB032083B208930D9B13FA80F00E2312
:105A600000FB033005F098FD8246002800F0158207
:105A70001C2101FB080108462A462B46002B40F05A
:105A8000A080227812F0080316BF63780134023434
:105A9000089F0273AF4205F1010600F10E0000F30A
:105AA0008E80002308461A46057BAF0705F01006D6
:105AB00040F18C8014F8015B06B96D422B44089EBE
:105AC00020F80E3B964202F101057DDC00231A46C8
:105AD000087B460700F0200540F1858014F8010B93
